:0300000002223B9E
:0C223B00787FE4F6D8FD75810F02228246
:102A1200900951EFF07D02E4FF1225E7900951E0A1
:0C2A220044FE529A439A08C285D2EB226F
:10000E00EF7009C281C2805393FD802AEFB40109BB
:10001E00C281D2805393EF801DEFB40209D281C208
:10002E00805393DF8010EFB40309D281D2805397AF
:09003E00FB80037FFF227F0022FA
:10273600439A04ED64017016EF70028019EFB4023B
:10274600028027EFB40304D28180157FFF22ED6457
:10275600037022EF7004C2818012EFB40108C281B7
:10276600D280C2838012EFB40208D281C280C283B3
:0F27760080067FFF227FFF22C286D2EB7F0022E8
:03004B0002298205
:10298200C0E0C083C082C0D075D00830850CAF9F34
:10299200900988E4F0A3EFF0C285308602C286D0A7
:0829A200D0D082D083D0E032D6
:10004E000000000000000000002F0000000007006C
:10005E00070000147F147F1400242A7F2A120062E6
:10006E006408132300364955225000000503000092
:10007E0000001C224100000041221C000014083E1A
:10008E0008140008083E0808000000A060000008E0
:10009E000808080800006060000000201008040234
:1000AE00003E5149453E0000427F400000426151F2
:1000BE004946002141454B31001814127F1000278C
:1000CE0045454539003C4A4949300001710905034F
:1000DE0000364949493600064949291E0000363680
:1000EE0000000000563600000008142241000014E3
:1000FE0014141414000041221408000201510906C0
:10010E0000324959513E007C1211127C007F494940
:10011E004936003E41414122007F4141221C007F71
:10012E0049494941007F09090901003E4149497A7F
:10013E00007F0808087F0000417F410000204041F9
:10014E003F01007F08142241007F40404040007F65
:10015E00020C027F007F0408107F003E4141413EA9
:10016E00007F09090906003E4151215E007F0919F1
:10017E0029460046494949310001017F0101003FEE
:10018E004040403F001F2040201F003F4038403F6E
:10019E0000631408146300070870080700615149D2
:1001AE00454300007F41410000552A552A55000065
:1001BE0041417F00000402010204004040404040E3
:1001CE00000001020400002054545478007F48447B
:1001DE00443800384444442000384444487F0038B2
:1001EE005454541800087E0901020018A4A4A47CDB
:1001FE00007F080404780000447D400000408084A5
:10020E007D00007F102844000000417F4000007CEC
:10021E0004180478007C08040478003844444438F8
:10022E0000FC242424180018242418FC007C080444
:10023E00040800485454542000043F444020003C1D
:10024E004040207C001C2040201C003C4030403CA4
:10025E00004428102844001CA0A0A07C0044645434
:10026E004C44141414141414000000000000000078
:10027E000000000000000000000000F80000000078
:10028E00000000333000000000100C06100C0600B9
:10029E00000000000000000040C07840C078400020
:1002AE00043F04043F040400007088FC0830000082
:1002BE00001820FF211E0000F008F000E0180000DA
:1002CE0000211C031E211E0000F008887000000093
:1002DE001E2123241927211010160E0000000000E5
:1002EE000000000000000000000000E01804020002
:1002FE00000000071820400000020418E000000073
:10030E000040201807000000404080F08040400070
:10031E000202010F01020200000000F000000000C6
:10032E000101011F0101010000000000000000009A
:10033E0080B070000000000000000000000000000F
:10034E000001010101010101000000000000000098
:10035E000030300000000000000000008060180433
:10036E00006018060100000000E010080810E00010
:10037E00000F102020100F00001010F800000000D9
:10038E000020203F20200000007008080888700020
:10039E0000302824222130000030088888483000A0
:1003AE000018202020110E000000C02010F80000C0
:1003BE0000070424243F240000F808888808080059
:1003CE000019212020110E0000E01088881800006E
:1003DE00000F112020110E0000380808C838080040
:1003EE000000003F000000000070880808887000C0
:1003FE00001C222121221C0000E010080810E00041
:10040E000000312222110F00000000C0C0000000C9
:10041E0000000030300000000000008000000000EE
:10042E0000008060000000000000804020100800E6
:10043E0000010204081020004040404040404000AF
:10044E00040404040404040000081020408000008A
:10045E000020100804020100007048080808F0008F
:10046E000000003036010000C030C828E810E0005F
:10047E000718272423140B000000C038E0000000EA
:10048E00203C23020227382008F888888870000054
:10049E00203F202020110E00C03008080808380028
:1004AE00071820202010080008F808080810E0009F
:1004BE00203F202020100F0008F88888E808100040
:1004CE00203F20202320180008F88888E808100014
:1004DE00203F200003000000C0300808083800004C
:1004EE0007182020221E020008F808000008F8084D
:1004FE00203F210101213F20000808F808080000D4
:10050E000020203F2020000000000808F808080006
:10051E00C08080807F00000008F888C0281808007E
:10052E00203F20012638200008F8080000000000B7
:10053E00203F20202020300008F8F800F8F80800AE
:10054E00203F003F003F200008F830C00008F808A8
:10055E00203F200007183F00E01008080810E000B8
:10056E000F10202020100F0008F808080808F000CF
:10057E00203F210101010000E01008080810E000F2
:10058E000F18242438504F0008F888888888700087
:10059E00203F2000030C3020007088080808380027
:1005AE000038202121221C00180808F8080818001D
:1005BE000000203F2000000008F808000008F8089E
:1005CE00001F202020201F000878880000C838084F
:1005DE00000007380E010000F80800F80008F800C7
:1005EE00033C0700073C0300081868808068180861
:1005FE0020302C03032C30200838C800C8380800DF
:10060E000000203F2000000010080808C83808002D
:10061E002038262120201800000000FE02020200D1
:10062E000000007F40404000000C30C00000000081
:10063E00000000010638C00000020202FE000000A9
:10064E00004040407F00000000000402020204004F
:10065E00000000000000000000000000000000008C
:10066E008080808080808080000202040000000074
:10067E00000000000000000000008080808000006C
:10068E000019242222223F2008F80080800000005A
:10069E00003F112020110E0000000080808000001D
:1006AE00000E112020201100000000808088F8002C
:1006BE00000E112020103F2000008080808000005E
:1006CE00001F222222221300008080F088888818C2
:1006DE000020203F202000000000808080808000CD
:1006EE00006B94949493600008F800808080000062
:1006FE00203F210000203F2000809898000000003D
:10070E000020203F2020000000000080989800006C
:10071E0000C08080807F000008F80000808080008C
:10072E00203F24022D302000000808F800000000B1
:10073E000020203F2020000080808080808080006C
:10074E00203F20003F20003F8080008080800000FE
:10075E00203F210000203F2000008080808000008C
:10076E00001F202020201F008080008080000000BD
:10077E0080FFA12020110E000000008080808000EC
:10078E00000E112020A0FF808080800080808000DD
:10079E0020203F212000010000008080808080000A
:1007AE000033242424241900008080E0808000007F
:1007BE000000001F202000008080000000808000CC
:1007CE00001F202020103F2080808000008080802D
:1007DE0000010E30080601008080008000808080BD
:1007EE000F300C030C300F000080800080808000E2
:1007FE000020312E0E31200080808000008080800D
:10080E0080818E70180601000080808080808000BC
:10081E000021302C2221300000000000807C0202DA
:10082E0000000000003F404000000000FF000000FC
:10083E0000000000FF0000000002027C80000000AB
:10084E000040403F000000000006010102020404C7
:10085E00000000000000000008C8B88FE88888403B
:10086E00300FC8082818000000000000000000002B
:10087E00000000000000000008180808FF04844073
:10088E00300E010E3040800000000000000000001D
:10089E0000000000000000001010D0FF901000FEBD
:1008AE00020202FE00000000000000000000000036
:1008BE000000000000000000040300FF0083601F22
:1008CE000000003F404078000000000000000000E3
:1008DE00000000000000000080809E9292929EE038
:1008EE00809EB2D2929E80000000000000000000A8
:1008FE0000000000000000000808F4949292F1003D
:10090E0001F2929494F8080000000000000000002C
:10091E000000000000000000000000000000C03FCA
:10092E00C0000000000000000000000000000000F9
:10093E000000000000000000804020100C030000AA
:10094E0000030C102040800000000000000000009A
:10095E00000000000000000002FA8282FE8000FE0D
:10096E0002126282621A0200000000000000000003
:10097E00000000000000000008184884443F007F7B
:10098E00504846414658400000000000000000005C
:10099E0000000000000000004044C44444444010E5
:1009AE0010FF101010F0000000000000000000000A
:1009BE000000000000000000103C131014B840307E
:1009CE000E014080403F00000000000000000000CB
:1009DE00000000000000000080809E9292929EE037
:1009EE00809EB2D2929E80000000000000000000A7
:1009FE0000000000000000000808F4949292F1003C
:100A0E0001F2929494F8080000000000000000002B
:100A1E0000000000000000000000FE0282828282C0
:100A2E00FA82828282820200000000000000000032
:100A3E00000000000000000080601F404040404069
:100A4E007F4040445840400000000000000000007D
:100A5E000000000000000000001010101010FF1029
:100A6E0010101010F0000000000000000000000048
:100A7E000000000000000000008040201806010069
:100A8E00204080403F0000000000000000000000F9
:100A9E000000000000000000000000000000000048
:100AAE000000000000000000000000000000000038
:100ABE0000000000000000000000363600000000BC
:100ACE000000000000000000000000000000000018
:100ADE0000000000000000000484E45C44C4201008
:100AEE00E82724E4342CE0000000000000000000A1
:100AFE00000000000000000002017F10103F806027
:100B0E001F09093F49897F00000000000000000016
:100B1E000000000000000000100C4444444445C690
:100B2E004444444444140C00000000000000000043
:100B3E0000000000000000008040201E2040407F8A
:100B4E0044444444444040000000000000000000C3
:100B5E000000000000000000404042CC0000FC24D9
:100B6E00A4242222A3620000000000000000000066
:100B7E0000000000000000000040201F20584750D9
:100B8E00484542454850400000000000000000006B
:100B9E0000000000000000000000FE0202F212122F
:100BAE0012F20202FE000000000000000000000031
:100BBE00000000000000000000007F2020272424F9
:100BCE00242720207F00000000000000000000000D
:100BDE000000000000000000404042CC0040A09EFB
:100BEE008282829EA02020000000000000000000F3
:100BFE0000000000000000000000003F908840430D
:100C0E002C102846418080000000000000000000EB
:100C1E000000000000000000001715D55557557D47
:100C2E00555755D5151700000000000000000000B4
:100C3E0000000000000000004040407F5555555513
:100C4E005555557F40404000000000000000000058
:100C5E0000000000000000002030AC633000FC24D7
:100C6E0025262424243C0000000000000000000083
:100C7E00000000000000000022672212523807FF19
:100C8E00097F093F89FF00000000000000000000FE
:100C9E000000000000000000808080BEA2A2A2A280
:100CAE00A2A2A2BE80808000000000000000000012
:100CBE00000000000000000000000006050404040F
:100CCE004484443C000000000000000000000000CE
:100CDE0000000000000000001010D0FF9014E4AFE0
:100CEE00A4A4A4AFE4040000000000000000000073
:100CFE000000000000000000040300FF00894B2AE2
:100D0E001A0E1A2A4B888000000000000000000016
:100D1E0000000000000000001010909090909010C5
:100D2E0010FF10101116100000000000000000004F
:100D3E000000000000000000002060203F10101096
:100D4E0000030C102040F80000000000000000001E
:100D5E0000000000000000000010101010D030FF46
:100D6E0030D0101010100000000000000000000035
:100D7E00000000000000000010080402090808FF2F
:100D8E00080809020408100000000000000000001E
:100D9E0000000000000000001010D0FF901000FEB8
:100DAE00020202FE00000000000000000000000031
:100DBE000000000000000000040300FF0083601F1D
:100DCE000000003F404078000000000000000000DE
:100DDE000000000000000000000202C2020202FE3B
:100DEE008282828282020000000000000000000069
:100DFE0000000000000000004040407F4040407F67
:100E0E004040404040404000000000000000000014
:100E1E000000000000000000002010E8242724A499
:100E2E0024342CE000000000000000000000000050
:100E3E0000000000000000000080804F40201807D6
:100E4E001010204F80000000000000000000000085
:100E5E000000000000000000101010FF90088888AD
:100E6E00FF0000FF8888080000000000000000005E
:100E7E0000000000000000000242817F0008080808
:100E8E00FF0000FF0808080000000000000000003E
:100E9E00000000000000000020104C475454545431
:100EAE00545454D40404000000000000000000005C
:100EBE000000000000000000000000000000000024
:100ECE000000000F3040F0000000000000000000A5
:100EDE000000000000000000008060F807003E22C5
:100EEE0022E222223E00000000000000000000006E
:100EFE000000000000000000010000FF20110905A5
:100F0E0003FF03050911200000000000000000008F
:100F1E000000000000000000101010FF10104048EC
:100F2E0048487F48C848400000000000000000000C
:100F3E0000000000000000000444827F0100020255
:100F4E000A1242827F020200000000000000000030
:100F5E00000000000000000000001011161010F03C
:100F6E00101014131000000000000000000000001C
:100F7E0000000000000000008181414121110D039D
:100F8E000D11214141818100000000000000000090
:100F9E00000000000000000040404242424242FE7B
:100FAE004242424242404000000000000000000069
:100FBE000000000000000000000000000040807FE4
:100FCE000000000000000000000000000000000013
:100FDE00000000000000000000F80122202222A2E2
:100FEE00FA22222202FE0000000000000000000093
:100FFE00000000000000000000FF000804021120A5
:10100E001F000040807F0000000000000000000074
:08101E000000000000000000CA
:1029F400E4FEC2B400EF30E704D2B38002C2B3EF06
:0D2A040025E0FFD2B4000EEEB408E7C2B426
:012A110022A2
:1027CE00AD07D2B3D2B400C2B3007F781229F4C2DF
:1027DE00B400D2B40000C2B400E4FF1229F4C2B4B3
:1027EE0000D2B40000C2B400AF051229F4C2B40086
:1027FE00D2B40000C2B400C2B3D2B400D2B300222D
:10280E00AD07D2B3D2B400C2B3007F781229F4C29E
:10281E00B400D2B40000C2B4007F401229F4C2B496
:10282E0000D2B40000C2B400AF051229F4C2B40045
:10283E00D2B40000C2B400C2B3D2B400D2B30022EC
:102A6600F583E5822CF582E43583F583E493FF7DD7
:012A7600015E
:0A2A7700ED600302280E1227CE22A4
:06292E00A907AA05E4F070
:10293400AC07ED24B0FFE4FD122A77EC54F0C45444
:102944000F4410FFE4FD122A77EC540F4401FFE416
:04295400FD022A77DF
:102AC900E4FD7F8D122A77E4FD7F14122A77E4FD55
:052AD9007FAF022A7727
:102ADE00E4FD7F8D122A77E4FD7F10122A77E4FD44
:052AEE007FAE022A7713
:10290200E4FCEC24B0FFE4FD122A77E4FDFF122A76
:1029120077E4FD7F10122A77E4FB7D01E4FF122A9F
:0B292200770BEBB480F40CECB408D78A
:01292D002287
:1023D700E4FBFAEB24B0FFE4FD122A77E4FDFF12D9
:1023E7002A77E4FD7F10122A77E490098AF0A3F098
:1023F700EB25E0FDEA33FC90098BE0C4F8540FC8E5
:1024070068FF90098AE0C454F048FE74002FF582F3
:1024170074003EF583E5822DF582E5833CF583A3C1
:10242700E0FF7D01122A7790098BE004F070069097
:10243700098AE004F0C390098BE0948090098AE050
:0F244700940040AC0BBB00010AEB64084A7084A0
:012456002263
:10205F0090094AE004A4FF900943E02FFFA3E0FD9D
:0A206F00900949E090095BF07B2E18
:06207900AA07A905AF0350
:10207F00E4FCEF24E0FBEAD3947F4004E4FA09097F
:10208F0090095BE064107052AF02AD01122934E485
:10209F00FC75F010EBA42CF582E435F0F583E582A6
:1020AF002476F582E5833402122A700CECB408E131
:1020BF00AF02E904FD122934E4FC75F010EBA42CF7
:1020CF00F582E435F0F583E582247EF582E58334ED
:1020DF0002122A700CECB408E122AF02AE01AD0679
:1020EF00122934E4FC75F006EBA4244EF582E5F0DA
:0A20FF003400122A660CECB406EB64
:0121090022B3
:0726E600C3EF9E14FD7F0A03
:0826ED00900978EFF0A3EDF075
:1026F500A31215D600000001900979E0FF14F0EF50
:102705006020A3E0F8A3E0F9A3E0FAA3E0FB9009B9
:1027150078E0FFE4FCFDFE12148C90097A1215CACC
:1027250080D690097AE0FCA3E0FDA3E0FEA3E0FFDC
:012735002281
:101D4000FFA3E0FD90094DE0FAA3E090094AFBE013
:0C1D500090096BF0900949E090096CF0DC
:0E1D5C00900967EFF0A3EDF0A3EAF0A3EBF01F
:101D6A00E490096FF090096DF090096BE0FF90091B
:101D7A006DE0FEC39F4003021E161226E6A804A9C0
:101D8A0005AA06AB07900969E0FEA3E0FFE4FCFDA3
:101D9A00121517E47B0AFAF9F812151790096EEB77
:101DAA00F0A3E0703690096BE014FF90096DE0FE35
:101DBA00C39F5027A3E0701D90096CE0FCC3138EEB
:101DCA00F0A4FF900967E02FFFA3E0FD90095BEC08
:101DDA00F07B20802B90096F7401F090096CE0FE73
:101DEA00C313FFA3E0FDEF8DF0A4FF900967E02F76
:101DFA00FFA3E0FD90096EE02430FB90095BEEF052
:0C1E0A0012207990096DE004F0021D73B5
:011E160022A9
:0E1EE30090097EEFF0A3EDF0A3EAF0A3EBF080
:101EF100E4900983F0EB4A6017900983E004F07CD9
:101F0100007D0AAF03AE02121440AA06AB0780E5BA
:101F1100900980E0FAA3E0FBD39400EA6480948006
:101F2100401990097EE0FFA3E0FD900983E090094C
:101F31006BF0900982E090096C806690097EE0FF69
:101F4100A3E0FD900982E090095BF07B2D122079DE
:101F5100900980E0FEA3E0FF122B39900980EEF09A
:101F6100A3EFF0A3E0FE90097EB41019E02408FF6E
:101F7100A3E0FDA3E0FAA3E0FB900983E090096BE5
:101F8100F0A3EE801CE02406FFA3E0FDA3E0FAA38A
:101F9100E0FB900983E090096BF0900982E09009E1
:051FA1006CF0121D5C54
:011FA6002218
:0818F200900943EFF0A3EDF0B3
:1018FA00E490094AF0A3F0A3F0A3F0A3F0A3F0A3A5
:10190A00F0FFFEFDFC900945E0F8A3E0F9A3E0FA38
:10191A00A3E0FB1212C4600A400890094C7401F05B
:10192A00801CE490094CF0900945E0FCA3E0FDA37B
:10193A00E0FEA3E0FF1213319009451215CA90097F
:10194A0045E0FCA3E0FDA3E0FEA3E0FF12138090B4
:10195A00094DEEF0A3EFF0FDAC06EC121347A80414
:10196A00A905AA06AB07900945E0FCA3E0FDA3E0A0
:10197A00FEA3E0FF121029E4FBFA79C8784212119B
:10198A001E12138090094F801B90094DE0FEA3E0C0
:10199A00FF4E601790094AE004F07C007D0A121499
:1019AA004090094DEEF0A3EFF080DE90094B7402EF
:1019BA00F0900945E0FCA3E0FDA3E0FEA3E0FF12DE
:1019CA00138090094DEEF0A3EFF090094CE06055BA
:1019DA00900949E0FE64109009437030E0FFA3E0EB
:1019EA00FD90094DE0FAA3E0FB90094AE090096BEB
:1019FA00F0A3EEF0121D5C90094AE075F00812207F
:101A0A006490094AE00475F008021A93E0121D4036
:101A1A0090094AE075F00612206490094AE00475BC
:101A2A00F006021A93900943E0FFA3E0FD900949EA
:101A3A00E090095BF07B2D122079900949E0FE6461
:101A4A0010900943702EE02408FFA3E0FD90094D91
:101A5A00E0FAA3E0FB90094AE090096BF0A3EEF0EC
:101A6A00121D5C75F00812205F90094AE024027585
:101A7A00F0088015E02406121D4075F00612205F5A
:101A8A0090094AE0240275F006A4FF900943E02F6A
:101A9A00FFA3E0FD90094FE0FAA3E090094B121D65
:011AAA004EED
:011AAB002218
:10253200900951EFF0A3EDF0A3EBF0A3EAF0A3E9C9
:01254200F0A8
:10254300E4900957F0900953E0FBA3E0FAA3E0F904
:10255300900957E0F582758300121401FB602F90F8
:102563000951E0FFA3E0FD900956E090095BF012EA
:102573002079900951E02408F0E0D394804007E4E7
:0E258300F0A3E02402F0900957E004F080B7C6
:012591002227
:1024C50090095112292EE4FC75F040EBA42466F521
:1024D50082E5F03408F583E5822CF582E43583F551
:1024E50083E493F4FF7D01122A77900951E004F00B
:1024F5000CECB410D3AF01EA04FD122934E4FC75E9
:10250500F040EBA42486F582E5F03408F583E582F6
:102515002CF582E43583F583E493F4FF7D01122ADB
:0C25250077900951E004F00CECB410D3E6
:012531002287
:1027850090095112292EE4FC75F040EBA42466F55E
:1027950082E5F03408122A66900951E004F00CEC49
:1027A500B410E5AF01EA04FD122934E4FC75F040EC
:1027B500EBA42486F582E5F03408122A66900951C7
:0827C500E004F00CECB410E597
:0127CD0022E9
:08165C00900923EFF0A3EDF06B
:10166400E4900932F0FFFEFDFC900925E0F8A3E0C8
:10167400F9A3E0FAA3E0FB1212C4900923E0FFA34C
:10168400E0FD90092AE090095B501FF07B2D1220A9
:1016940079900925E0FCA3E0FDA3E0FEA3E0FF129E
:1016A4002B209009251215CA8006F07B2012207980
:1016B40090092CE0FFFCE412134CA804A905AA0627
:1016C400AB07900925E0FCA3E0FDA3E0FEA3E0FF47
:1016D40012102990092E1215CA900929E024FA90B3
:1016E400092DF090092AE0FEC31325E025E0FF90C0
:1016F4000923E02FFFA3E0FD90095BEEF07B2E129F
:10170400207990092AE0C313FF900923E02FF0E425
:1017140090092BF090092DE0FF90092BE0FEC39F68
:1017240040030217C51226E6E4121342A804A905D1
:10173400AA06AB07900925E0FCA3E0FDA3E0FEA305
:10174400E0FF1212271213807C007D0A12144090CD
:10175400092CEDF0900932E0703690092DE014FF69
:1017640090092BE0FEC39F5027A3E0701D90092A27
:10177400E0FCC3138EF0A4FF900923E02FFFA3E045
:10178400FD90095BECF07B20802B9009327401F012
:1017940090092AE0FEC313FFA3E0FDEF8DF0A4FF40
:1017A400900923E02FFFA3E0FD90092CE02430FBF7
:1017B40090095BEEF012207990092BE004F00217F7
:1017C4001890092AE0C31325E025E0FF900923E0DF
:1017D4002FFFC007E4FFFE7D207C4190092EE0F836
:1017E400A3E0F9A3E0FAA3E0FB12111E1213807C1C
:1017F400007D0A121440ED2430FB90092AE0900980
:101804005BF0900924E0FDD00712207990092AE0CA
:10181400C31375F005A4FF900923E02FFFC007E46C
:10182400FFFE7DC87C4290092EE0F8A3E0F9A3E016
:10183400FAA3E0FB12111E1213807C007D0A12141D
:1018440040ED2430FB90092AE090095BF0900924D4
:10185400E0FDD00712207990092AE0C31375F00641
:10186400A4FF900923E02FFFC007E4FFFE7D7A7CEC
:101874004490092EE0F8A3E0F9A3E0FAA3E0FB12F8
:10188400111E1213807C007D0A121440ED2430FBDB
:1018940090092AE090095BF0900924E0FDD007123A
:1018A400207990092AE0C31375F007A4FF90092357
:1018B400E02FFFC0077F007E407D1C7C4690092EF0
:1018C400E0F8A3E0F9A3E0FAA3E0FB12111E12135F
:1018D400807C007D0A121440ED2430FB90092AE03C
:0E18E40090095BF0900924E0FDD00702207906
:081AAC00900933EFF0A3EDF007
:101AB400A3E0FCA3E0FDA3E0FEA3E0FF12138090EB
:101AC400093FEEF0A3EFF0E490093CF0900939E00F
:101AD400FF90093CE0FEC39F4003021B761226E6FA
:101AE400A804A905AA06AB0790093FE0FEA3E0FFFE
:101AF400EE3395E0FDFC121517E47B0AFAF9F812AF
:101B0400151790093DEBF0A3E07036900939E01405
:101B1400FF90093CE0FEC39F5027A3E0701D90098D
:101B24003BE0FCC3138EF0A4FF900933E02FFFA326
:101B3400E0FD90095BECF07B20802B90093E740162
:101B4400F090093BE0FEC313FFA3E0FDEF8DF0A48A
:101B5400FF900933E02FFFA3E0FD90093DE024301E
:101B6400FB90095BEEF012207990093CE004F0024E
:101B74001AD090093BE0FEC313FF900939E0FDEF52
:101B84008DF0A4FF900933E02FFFA3E0FD90095BE3
:101B9400EEF07B2E12207990093AE0FD7F0A12269E
:101BA400EDE4121342C004C005C006C00790093F0B
:101BB400E0FCA3E0FDEC121347A804A905AA06ABB8
:101BC40007900935E0FCA3E0FDA3E0FEA3E0FF12CB
:101BD4001029D003D002D001D00012111E1213809C
:101BE400900941EEF0A3EFF0E490093CF090093A3B
:101BF400E0F990093CE0FFC3995065C3E99F1226C0
:101C0400E9A804A905AA06AB07900941E0FEA3E0F0
:101C1400FFEE3395E0FDFC121517E47B0AFAF9F8A0
:101C2400121517AF0390093DEFF0FE90093BE0FC5D
:101C3400C313FF900939E0FD90093CE02D8FF0A417
:101C4400FF900933E02F2405FFA3E0FDEE2430FBD1
:101C540090095BECF012207990093CE004F0808D4F
:011C6400225D
:0A23530090095DEFF090095FEBF0D8
:10235D00E4900964F0A3F0900960E0FF5407700861
:10236D00EF131313541F800A900960E013131354D5
:10237D001F04900966F0900966EDF0900960E0FF8A
:10238D00900966E0FDC39F504090095DE0FF122962
:10239D0034E0FC90095FE0FFECC39F50249009618D
:1023AD00E0FBA3E0FAA3E0F9A3E475F001121476C3
:1023BD0085F082F583121401FF7D01122A770C80BE
:0923CD00D2900966E004F080B230
:0123D60022E4
:101E1700E4FF000FEFB464FAE4FD7FAE122A77E423
:101E2700FDFF122A77E4FD7F10122A77E4FD7F4039
:101E3700122A77E4FD7FB0122A77E4FD7F81122A08
:101E470077E4FD7FFF122A77E4FD7FA1122A77E46A
:101E5700FD7FA6122A77E4FD7FA8122A77E4FD7F8B
:101E67003F122A77E4FD7FC8122A77E4FD7FD31259
:101E77002A77E4FDFF122A77E4FD7FD5122A77E45B
:101E8700FD7F80122A77E4FD7FD8122A77E4FD7F51
:101E970005122A77E4FD7FD9122A77E4FD7FF11234
:101EA7002A77E4FD7FDA122A77E4FD7F12122A7778
:101EB700E4FD7FDB122A77E4FD7F30122A77E4FD09
:101EC7007F8D122A77E4FD7F14122A77E4FD7FAF16
:0C1ED700122A77122902E4FDFF022934D0
:10284E00AC05AB07E4FD7F2E122A77E4FD7F27123D
:10285E002A77E4FDFF122A77AF03E4FD122A77E40C
:10286E00FDFF122A77AF04E4FD122A77E4FDFF1272
:10287E002A77E4FD7FFF122A77E4FD7F2F022A7765
:072B8300E4FD7F2E022A771A
:1028CC00E4FD7F2E122A77E4FD7F29122A77E4FD9E
:1028DC00FF122A77E4FDFF122A77E4FD7F07122A04
:1028EC0077E4FD7F07122A77E4FD7F01122A77E453
:0628FC00FD7F2F022A7788
:062B8A00313233000000AF
:10288E004309050101014309200101014C0908001A
:10289E000003E8000003E8000003E84C0914000000
:1028AE000000000000000000000041090300410983
:0828BE000400430900FFFFFFC5
:102A2E007D017F011225927D047F011225927D0585
:0C2A3E007F01122592D291D294D29522F1
:0D2B130074052FF582E43409F583E0FF22FC
:102A8100EF25E025E02414F582E43409F583E0FC28
:0A2A9100A3E0FDA3E0FEA3E0FF2296
:031FA700CBEFCBB2
:101FAA009009511215D6000000009009511215D659
:101FBA00000F4240CFEBCFE4FCFDFE900951E0F860
:101FCA00A3E0F9A3E0FAA3E0FB12148CE47BE87A1D
:101FDA0003F9F81215179009511215CA900951E020
:101FEA00F8A3E0F9A3E0FAA3E0FBC3E49BFFE49AB9
:101FFA00FE740199FDE498FC9009511215CA9009E2
:10200A0051E0FCA3E0FDA3E0FEA3E02401FFE43ECF
:10201A00FEE43DFDE43CFC9009511215CA900951B9
:10202A00E0FCA3E0FDA3E0FEA3E0FF78081215B7E9
:10203A00900903EFF0FB900951A3A3A3E0FF9009D5
:10204A0004F0E58954F14401F5898B8C8F8AC28D9D
:04205A00D2A9D28CA9
:01205E00225F
:101C6500900900E025E0FFA291E4334FF0A3E025C1
:101C7500E0FFA294E4334FF0A3E025E0FFA295E452
:101C8500334FF0E490095CF090095CE0FFC39403E6
:101C95004003021D3F74002FF582E43409F583E00B
:101CA500540F704D90095CE0FF2405F582E434097A
:101CB500F583E4F0EFC394034003021D3F90095CF4
:101CC500E025E025E02414F582E43409F583C0839A
:101CD500C082E0FCA3E0FDA3E0FEA3E02404FFE452
:101CE5003EFEE43DFDE43CFCD082D0831215CA8063
:101CF5004090095CE02400F582E43409F583E05462
:101D05000FFFBF0F2C90095CE0FF2405F582E4343A
:101D150009F5837401F0EFC39403501EEF25E02508
:101D2500E02414F582E43409F5831215D600000089
:0A1D35000090095CE004F0021C8D30
:011D3F002281
:03000B000229AA1D
:1029AA00C0E0C0F0C083C082C0D075D008900903CF
:1029BA00E0F58CA3E0F58A121C65D0D0D082D083D2
:0529CA00D0F0D0E03266
:0C2B2D00C2C7D2C5D2C475C2F3C2C12217
:0800030030C0FDC2C0AFC122F4
:082B7B008FC130C1FDC2C1226F
:092B4500C296C297C290C2B522EB
:092B4E00C296D297C290D2B522C2
:092B5700D296C297D290D2B522A9
:092B6000C296D297D290D2B522A0
:092B6900C296C297D290D2B522A7
:092B7200D296D297D290D2B5227E
:1029CF007D067F011225927D077F01122592E4FD7E
:1029DF007F011225927D057F011225E7C296C297CE
:0529EF00C290C2B522F8
:102AF30075A15575A1AAE5B954F84404F5B9E4F5EF
:022B0300A1220D
:0E2B0500EF4E600905A1EF1F70F61E80F3224F
:102A9B00AD07AC06ED4C600E7FE87E03122B05ED07
:072AAB001D70F11C80EE22FA
:102AB20075A15575A1AAEF600543B101800353B119
:072AC200FEE4F5A1F5FF227F
:030047008FFF2206
:10259200EF14601B1460291460392403704674011F
:1025A200A805088002C333D8FCF4529252932274D5
:1025B20001A805088002C333D8FCFFF4529280219F
:1025C2007401A805088002C333D8FCFF4292EFF4DD
:1025D2005293227401A805088002C333D8FCFF423B
:0525E20092EF4293227C
:1025E700EF14601B146029146039240370467401CA
:1025F700A805088002C333D8FCF452965297227478
:1026070001A805088002C333D8FCFFF45296802145
:102617007401A805088002C333D8FCFF4296EFF483
:102627005297227401A805088002C333D8FCFF42E1
:0526370096EF4297221E
:10245700122AF37F057E00122A9B7F08121FA712FC
:102467001E17122902122A2E1229CF7F01122A12B1
:10247700D2AF12263C7F0312000ED2847B1AE4FDF2
:102487007F021224C57FE87E03122A9BE59F75F021
:10249700FF84FF7E007C037DE812142ECCEECCCDAA
:1024A700EFCDE41213479009841215CA7B1AE4FD95
:0E24B7007F021227857FE87E03122A9B80BEDB
:102958002057656C636F6D65212000207072657368
:10296800733A20006B5061200020616972207075F5
:0A2978006D703A003A002D002000B7
:0528C600420970000052
:10263C00E4FB7D017F081227857B017D017F181249
:10264C0027857B027D017F281227857B037D017FF7
:10265C00381227857B047D017F481227857B057DF9
:10266C00017F581227857B067D017F681227857BA9
:10267C00FF7A2979589009567410F07D047F021264
:05268C002532022902C5
:1021A50090098CEEF0A3EFF04E70127B187D047F42
:1021B500601227857B197D047F7012278590098C15
:1021C500E07004A3E0640170127B177D047F601248
:1021D50027857B077D047F7012278590098CE07029
:1021E50004A3E0640270127B167D047F60122785CC
:1021F5007B077D047F7012278590098CE07004A30E
:10220500E0640370127B1A7D047F601227857B1BB7
:102215007D047F7012278590098CE07004A3E0642B
:102225000470127B1C7D047F601227857B1E7D0454
:062235007F7012278522D4
:10210A00E4FBFD7F081227857B01E4FD7F18122777
:10211A00857B02E4FD7F281227857B03E4FD7F3857
:10212A001227857B04E4FD7F481227857B05E4FDA1
:10213A007F581227857B06E4FD7F681227857BFF7F
:10214A007A2979639009567410F07D02E4FF12250A
:10215A00327BFF7A29796C9009567410F07D027FE0
:10216A00641225327BFF7A2979719009567410F02E
:10217A007D04E4FF1225327B0E7D06E4FF122785DB
:10218A007B0F7D067F101227857B127D067F6012EA
:0B219A0027857B137D067F70022785E0
:102691007B107D027F301227857B117D027F4012E6
:1026A10027857BFF7A29797C7D027F501225327B39
:1026B1001C7D047F301227857B1D7D047F401227FE
:1026C100857B0A7D067F601227857B0B7D067F70E7
:1026D1001227857B0C7D06E4FF1227857B0D7D0685
:0526E1007F10022785B7
:102A4A00120000900970E0FAA3E0FB90096B74028F
:0C2A5A00F0A37410F07D027F58021D5C98
:1022C700AF9FEF2497FEE434FF90098EF0A3CEF082
:1022D700C390098EE0648094807BFF50287A297927
:1022E7007E9009567410F07D027F371225329009CF
:1022F7008EE0FEA3E0FFC3E49FFFE49E90098EF00B
:10230700A3EFF080117A2979809009567410F07D37
:10231700027F3712253290098EE0FEA3E0FF7C0092
:102327007D0212144090098EEEF0A3EFF07C007D41
:102337000A121440AA06AB0790096B7402F0A37443
:0B23470010F07D027F3F121D5CD2846D
:012352002268
:101026000213ECE86480F8E933E83360110460F0F9
:10103600ED33EC337009E8FCE9FDEAFEEBFF220430
:1010460060DED3EB9FEA9EE99DE8C2E78CF0C2F72B
:1010560095F0400CE8CCF8E9CDF9EACEFAEBCFFBF7
:101066001213B785D0F05804700320D5B3E8047086
:10107600075002B2D50213F692D5EC0460F7E4CC21
:10108600C0E0C398F8603B94186008400DD0E0FBC0
:101096000213CEE4FBFAC9FC8028E830E406E4C972
:1010A600FBE4CAFCE830E305E4C9CACBFCE8540714
:1010B6006010F8C3E913F9EA13FAEB13FBEC13FC1F
:1010C600D8F130F52FC3E49CFCEF9BFFEE9AFEEDC2
:1010D60099FDD0E0FBEF4E4D4C701222DB0302135C
:1010E600F3EC2CFCEF33FFEE33FEED33FDED30E792
:1010F600EB0213CEEF2BFFEE3AFEED39FDD0E0FB0F
:1011060050130BBB00030213F6ED13FDEE13FEEFB7
:0811160013FFEC13FC0213CEE1
:10111E00EC4D6011E8497017ED33EC3304600DE4CB
:10112E00FCFFFEFD22E933E8330470F80213EC12E3
:10113E0013B758046009E4CC2481500628500902E4
:10114E0013F62840030213F3C0E0EB4A7044B98053
:10115E0006D0E0FB0213E2EF4E701CBD8008EBFFE1
:10116E00EAFEE9FD80EBE98DF0A4FEE5F002120740
:10117E00E9CDF9EAFEEBFFEF89F0A4FCE5F0CE89AC
:10118E00F0A42EFFE435F0CD89F0A42DFEE435F069
:10119E008067EF4E7005BD80D780C3EF8BF0A4AC97
:1011AE00F0EE8BF0A42CFCE435F0F8EF8AF0A42CD2
:1011BE00E5F038FCE433CB8DF0A42CFCE5F03BF8E5
:1011CE00EE8AF0A42CFCE5F038F8E433CF89F0A4D5
:1011DE002CFCE5F038CF3400CE89F0A42FFFE5F0DB
:1011EE003EFEE433C98DF0A42EFEE5F039CD8AF033
:1011FE00A42FFFE5F03EFEE43DFD33D0E0FB5007AB
:10120E000BBB000F0213F6EC2CFCEF33FFEE33FE9C
:06121E00ED33FD0213CECA
:101224000213F6EC5D046005E8590470030213EC44
:101234001213B7580460F6EC4860F2EC7004FDFE3B
:10124400FF22C860DB2481C85009C398600250069D
:101254000213F39850CAF582E9294B4A7005AB8210
:101264000213E275F0007C1A7880C3EF9BEE9AEDCE
:1012740099400DC3EF9BFFEE9AFEED99FDE842F015
:10128400DC23ACF0D0E0FFD0E0FED0E0FDAB822068
:10129400E7101BEB60BAEC2CFCEF33FFEE33FEEDF2
:1012A40033FD0213CEE803F830E705C0F075F00013
:1012B400EF2FFFEE33FEED33FD40B830E7C280AAD6
:1012C40074F8CC6480CCC86480C8F582046043C3DD
:1012D400EB9FF5F0EA9E42F0E99D42F0E89C45F070
:1012E40060305018E5825FFFE582F42B5582FB5095
:1012F400210ABA001D09B90019088016E5825BFBB2
:10130400E582F42F5582FF50090EBE00050DBD0085
:10131400010CC3EB9FF5F0EA9E42F0E99D42F0E830
:0D1324009C45F06007CC4820E701B3EC22A7
:10133100ED33EC33600A047003BD8004ECB2E7FCCA
:011341002289
:1013420075F020800E75F010800575F0087D007E26
:10135200007F003392D530D5031215A9EC3340102B
:10136200EF33FFEE33FEED33FDEC33FCD5F0ED222F
:0E137200E5F0247EA2D513CC92E7CDCEFF226B
:10138000EDD2E7CD33EC3392D524814006E4FFFE65
:10139000FDFC22FCE4CFCECDCC24E0501174FF80C4
:1013A000EDC3CC13CCCD13CDCE13CECF13CF047061
:0713B000F030D5DE0215A9A3
:0D2B2000ED33EC3360065004EC6480FC22C1
:1013B700E9D2E7C933E833F892D5EDD2E7CD33EC7C
:0713C70033FC5002B2D522F5
:1013CE00EC30E7100FBF000C0EBE00080DBD000480
:1013DE000BEB6014A2D5EB13FCED92E7FD2274FF2C
:1013EE00FCFDFEFF22E480F8A2D574FF13FC7D8085
:0313FE00E480EF99
:10224700022457E493A3F8E493A34003F68001F232
:1022570008DFF48029E493A3F85407240CC8C33398
:10226700C4540F4420C8834004F456800146F6DF67
:10227700E4800B010204081020408090288EE47E41
:10228700019360BCA3FF543F30E509541FFEE4935C
:10229700A360010ECF54C025E060A840B8E493A323
:1022A700FAE493A3F8E493A3C8C582C8CAC583CA4E
:1022B700F0A3C8C582C8CAC583CADFE9DEE780BE06
:0128CB00000C
:10140100BB010CE58229F582E5833AF583E02250A0
:1014110006E92582F8E622BBFE06E92582F8E222EA
:0D142100E58229F582E5833AF583E4932204
:10142E00EF8DF0A4A8F0CF8CF0A428CE8DF0A42ED2
:02143E00FE228C
:10144000C2D5EC30E709B2D5E4C39DFDE49CFCEEC7
:1014500030E715B2D5E4C39FFFE49EFE121607C322
:10146000E49DFDE49CFC800312160730D507C3E41D
:061470009FFFE49EFE2236
:10147600A3F8E0C5F025F0F0E58215827002158329
:06148600E0C838F0E82286
:10148C00E88FF0A4CC8BF0A42CFCE98EF0A42CFCFF
:10149C008AF0EDA42CFCEA8EF0A4CDA8F08BF0A47D
:1014AC002DCC3825F0FDE98FF0A42CCD35F0FCEBDC
:1014BC008EF0A4FEA9F0EB8FF0A4CFC5F02ECD39A1
:0F14CC00FEE43CFCEAA42DCE35F0FDE43CFC220E
:1014DB0075F008758200EF2FFFEE33FECD33CDCCC8
:1014EB0033CCC58233C5829BED9AEC99E58298404B
:1014FB000CF582EE9BFEED9AFDEC99FC0FD5F0D628
:10150B00E4CEFBE4CDFAE4CCF9A88222B800C1B951
:10151B000059BA002DEC8BF084CFCECDFCE5F0CB8F
:10152B00F97818EF2FFFEE33FEED33FDEC33FCEBC8
:10153B0033FB10D703994004EB99FB0FD8E5E4F983
:10154B00FA227818EF2FFFEE33FEED33FDEC33FC70
:10155B00C933C910D7059BE99A4007EC9BFCE99A64
:10156B00F90FD8E0E4C9FAE4CCFB2275F010EF2FA9
:10157B00FFEE33FEED33FDCC33CCC833C810D707A9
:10158B009BEC9AE899400AED9BFDEC9AFCE899F8E4
:0E159B000FD5F0DAE4CDFBE4CCFAE4C8F92277
:0E15A900C3E49FFFE49EFEE49DFDE49CFC2253
:1015B700E8600FECC313FCED13FDEE13FEEF13FF12
:0315C700D8F12236
:0C15CA00ECF0A3EDF0A3EEF0A3EFF02294
:1015D600A8828583F0D083D0821215ED1215ED1204
:1015E60015ED1215EDE473E493A3C583C5F0C58329
:1015F600C8C582C8F0A3C583C5F0C583C8C582C85F
:0116060022C1
:0C2B3900EE30E707C3E49FFFE49EFE229D
:10160700BC000BBE0029EF8DF084FFADF022E4CCC7
:10161700F875F008EF2FFFEE33FEEC33FCEE9DEC90
:10162700984005FCEE9DFE0FD5F0E9E4CEFD22EDD6
:10163700F8F5F0EE8420D21CFEADF075F008EF2F20
:10164700FFED33FD4007985006D5F0F222C398FD11
:051657000FD5F0EA22AE
:00000001FF
