:0300000002267E57
:0C267E00787FE4F6D8FD7581170226C5B0
:102D2000900900EFF07D02E4FF122930900900E0E5
:102D300044FE529A439A08C285D2EB7F0312000EDA
:032D4000D2842218
:10000E00EF7009C281C2805393FD802AEFB40109BB
:10001E00C281D2805393EF801DEFB40209D281C208
:10002E00805393DF8010EFB40309D281D2805397AF
:09003E00FB80037FFF227F0022FA
:1029D500439A04ED64017016EF70028019EFB4029A
:1029E500028027EFB40304D28180157FFF22ED64B6
:1029F500037022EF7004C2818012EFB40108C28116
:102A0500D280C2838012EFB40208D281C280C28311
:0F2A150080067FFF227FFF22C286D2EB7F002246
:03004B00022C8AFA
:102C8A00C0E0C083C082C0D075D00830850CAF9F29
:102C9A0090096AE4F0A3EFF0C285308602C286D0BA
:082CAA00D0D082D083D0E032CB
:10004E000000000000000000002F0000000007006C
:10005E00070000147F147F1400242A7F2A120062E6
:10006E006408132300364955225000000503000092
:10007E0000001C224100000041221C000014083E1A
:10008E0008140008083E0808000000A060000008E0
:10009E000808080800006060000000201008040234
:1000AE00003E5149453E0000427F400000426151F2
:1000BE004946002141454B31001814127F1000278C
:1000CE0045454539003C4A4949300001710905034F
:1000DE0000364949493600064949291E0000363680
:1000EE0000000000563600000008142241000014E3
:1000FE0014141414000041221408000201510906C0
:10010E0000324959513E007C1211127C007F494940
:10011E004936003E41414122007F4141221C007F71
:10012E0049494941007F09090901003E4149497A7F
:10013E00007F0808087F0000417F410000204041F9
:10014E003F01007F08142241007F40404040007F65
:10015E00020C027F007F0408107F003E4141413EA9
:10016E00007F09090906003E4151215E007F0919F1
:10017E0029460046494949310001017F0101003FEE
:10018E004040403F001F2040201F003F4038403F6E
:10019E0000631408146300070870080700615149D2
:1001AE00454300007F41410000552A552A55000065
:1001BE0041417F00000402010204004040404040E3
:1001CE00000001020400002054545478007F48447B
:1001DE00443800384444442000384444487F0038B2
:1001EE005454541800087E0901020018A4A4A47CDB
:1001FE00007F080404780000447D400000408084A5
:10020E007D00007F102844000000417F4000007CEC
:10021E0004180478007C08040478003844444438F8
:10022E0000FC242424180018242418FC007C080444
:10023E00040800485454542000043F444020003C1D
:10024E004040207C001C2040201C003C4030403CA4
:10025E00004428102844001CA0A0A07C0044645434
:10026E004C44141414141414000000000000000078
:10027E000000000000000000000000F80000000078
:10028E00000000333000000000100C06100C0600B9
:10029E00000000000000000040C07840C078400020
:1002AE00043F04043F040400007088FC0830000082
:1002BE00001820FF211E0000F008F000E0180000DA
:1002CE0000211C031E211E0000F008887000000093
:1002DE001E2123241927211010160E0000000000E5
:1002EE000000000000000000000000E01804020002
:1002FE00000000071820400000020418E000000073
:10030E000040201807000000404080F08040400070
:10031E000202010F01020200000000F000000000C6
:10032E000101011F0101010000000000000000009A
:10033E0080B070000000000000000000000000000F
:10034E000001010101010101000000000000000098
:10035E000030300000000000000000008060180433
:10036E00006018060100000000E010080810E00010
:10037E00000F102020100F00001010F800000000D9
:10038E000020203F20200000007008080888700020
:10039E0000302824222130000030088888483000A0
:1003AE000018202020110E000000C02010F80000C0
:1003BE0000070424243F240000F808888808080059
:1003CE000019212020110E0000E01088881800006E
:1003DE00000F112020110E0000380808C838080040
:1003EE000000003F000000000070880808887000C0
:1003FE00001C222121221C0000E010080810E00041
:10040E000000312222110F00000000C0C0000000C9
:10041E0000000030300000000000008000000000EE
:10042E0000008060000000000000804020100800E6
:10043E0000010204081020004040404040404000AF
:10044E00040404040404040000081020408000008A
:10045E000020100804020100007048080808F0008F
:10046E000000003036010000C030C828E810E0005F
:10047E000718272423140B000000C038E0000000EA
:10048E00203C23020227382008F888888870000054
:10049E00203F202020110E00C03008080808380028
:1004AE00071820202010080008F808080810E0009F
:1004BE00203F202020100F0008F88888E808100040
:1004CE00203F20202320180008F88888E808100014
:1004DE00203F200003000000C0300808083800004C
:1004EE0007182020221E020008F808000008F8084D
:1004FE00203F210101213F20000808F808080000D4
:10050E000020203F2020000000000808F808080006
:10051E00C08080807F00000008F888C0281808007E
:10052E00203F20012638200008F8080000000000B7
:10053E00203F20202020300008F8F800F8F80800AE
:10054E00203F003F003F200008F830C00008F808A8
:10055E00203F200007183F00E01008080810E000B8
:10056E000F10202020100F0008F808080808F000CF
:10057E00203F210101010000E01008080810E000F2
:10058E000F18242438504F0008F888888888700087
:10059E00203F2000030C3020007088080808380027
:1005AE000038202121221C00180808F8080818001D
:1005BE000000203F2000000008F808000008F8089E
:1005CE00001F202020201F000878880000C838084F
:1005DE00000007380E010000F80800F80008F800C7
:1005EE00033C0700073C0300081868808068180861
:1005FE0020302C03032C30200838C800C8380800DF
:10060E000000203F2000000010080808C83808002D
:10061E002038262120201800000000FE02020200D1
:10062E000000007F40404000000C30C00000000081
:10063E00000000010638C00000020202FE000000A9
:10064E00004040407F00000000000402020204004F
:10065E00000000000000000000000000000000008C
:10066E008080808080808080000202040000000074
:10067E00000000000000000000008080808000006C
:10068E000019242222223F2008F80080800000005A
:10069E00003F112020110E0000000080808000001D
:1006AE00000E112020201100000000808088F8002C
:1006BE00000E112020103F2000008080808000005E
:1006CE00001F222222221300008080F088888818C2
:1006DE000020203F202000000000808080808000CD
:1006EE00006B94949493600008F800808080000062
:1006FE00203F210000203F2000809898000000003D
:10070E000020203F2020000000000080989800006C
:10071E0000C08080807F000008F80000808080008C
:10072E00203F24022D302000000808F800000000B1
:10073E000020203F2020000080808080808080006C
:10074E00203F20003F20003F8080008080800000FE
:10075E00203F210000203F2000008080808000008C
:10076E00001F202020201F008080008080000000BD
:10077E0080FFA12020110E000000008080808000EC
:10078E00000E112020A0FF808080800080808000DD
:10079E0020203F212000010000008080808080000A
:1007AE000033242424241900008080E0808000007F
:1007BE000000001F202000008080000000808000CC
:1007CE00001F202020103F2080808000008080802D
:1007DE0000010E30080601008080008000808080BD
:1007EE000F300C030C300F000080800080808000E2
:1007FE000020312E0E31200080808000008080800D
:10080E0080818E70180601000080808080808000BC
:10081E000021302C2221300000000000807C0202DA
:10082E0000000000003F404000000000FF000000FC
:10083E0000000000FF0000000002027C80000000AB
:10084E000040403F000000000006010102020404C7
:10085E00000000000000000008C8B88FE88888403B
:10086E00300FC8082818000000000000000000002B
:10087E00000000000000000008180808FF04844073
:10088E00300E010E3040800000000000000000001D
:10089E0000000000000000001010D0FF901000FEBD
:1008AE00020202FE00000000000000000000000036
:1008BE000000000000000000040300FF0083601F22
:1008CE000000003F404078000000000000000000E3
:1008DE00000000000000000080809E9292929EE038
:1008EE00809EB2D2929E80000000000000000000A8
:1008FE0000000000000000000808F4949292F1003D
:10090E0001F2929494F8080000000000000000002C
:10091E000000000000000000000000000000C03FCA
:10092E00C0000000000000000000000000000000F9
:10093E000000000000000000804020100C030000AA
:10094E0000030C102040800000000000000000009A
:10095E00000000000000000002FA8282FE8000FE0D
:10096E0002126282621A0200000000000000000003
:10097E00000000000000000008184884443F007F7B
:10098E00504846414658400000000000000000005C
:10099E0000000000000000004044C44444444010E5
:1009AE0010FF101010F0000000000000000000000A
:1009BE000000000000000000103C131014B840307E
:1009CE000E014080403F00000000000000000000CB
:1009DE00000000000000000080809E9292929EE037
:1009EE00809EB2D2929E80000000000000000000A7
:1009FE0000000000000000000808F4949292F1003C
:100A0E0001F2929494F8080000000000000000002B
:100A1E000000000000000000404042CC00504EC8D4
:100A2E00487FC84848400000000000000000000059
:100A3E0000000000000000000040201F20504C432A
:100A4E0040404F50505C400000000000000000008D
:100A5E0000000000000000001010FF100082864A07
:100A6E0052A2524A86808000000000000000000062
:100A7E00000000000000000042827F0100101212F0
:100A8E0012FF121212100000000000000000000001
:100A9E000000000000000000404042CC0000FC249A
:100AAE00A4242222A3620000000000000000000027
:100ABE0000000000000000000040201F205847509A
:100ACE00484542454850400000000000000000002C
:100ADE0000000000000000000000FE0202F21212F0
:100AEE0012F20202FE0000000000000000000000F2
:100AFE00000000000000000000007F2020272424BA
:100B0E00242720207F0000000000000000000000CD
:100B1E00000000000000000020104C4754545454B4
:100B2E00545454D4040400000000000000000000DF
:100B3E0000000000000000000000000000000000A7
:100B4E000000000F3040F000000000000000000028
:100B5E0000000000000000000000FE02828282827F
:100B6E00FA828282828202000000000000000000F1
:100B7E00000000000000000080601F404040404028
:100B8E007F4040445840400000000000000000003C
:100B9E000000000000000000000202C2020202FE7D
:100BAE0082828282820200000000000000000000AB
:100BBE0000000000000000004040407F4040407FA9
:100BCE004040404040404000000000000000000057
:100BDE000000000000000000002010E8242724A4DC
:100BEE0024342CE000000000000000000000000093
:100BFE0000000000000000000080804F4020180719
:100C0E001010204F800000000000000000000000C7
:100C1E00000000000000000000001011161010F07F
:100C2E00101014131000000000000000000000005F
:100C3E0000000000000000008181414121110D03E0
:100C4E000D112141418181000000000000000000D3
:100C5E00000000000000000000F80122202222A265
:100C6E00FA22222202FE0000000000000000000016
:100C7E00000000000000000000FF00080402112028
:100C8E001F000040807F00000000000000000000F8
:100C9E0000000000000000002030AC633000FC2497
:100CAE0025262424243C0000000000000000000043
:100CBE00000000000000000022672212523807FFD9
:100CCE00097F093F89FF00000000000000000000BE
:100CDE000000000000000000808080BEA2A2A2A240
:100CEE00A2A2A2BE808080000000000000000000D2
:100CFE0000000000000000000000000605040404CF
:100D0E004484443C0000000000000000000000008D
:100D1E00000000000000000000001011161010F07E
:100D2E00101014131000000000000000000000005E
:100D3E0000000000000000008181414121110D03DF
:100D4E000D112141418181000000000000000000D2
:100D5E00000000000000000040404242424242FEBD
:100D6E0042424242424040000000000000000000AB
:100D7E000000000000000000000000000040807F26
:100D8E000000000000000000000000000000000055
:100D9E000000000000000000404042CC0040A09E39
:100DAE008282829EA0202000000000000000000031
:100DBE0000000000000000000000003F908840434B
:100DCE002C1028464180800000000000000000002A
:100DDE000000000000000000001715D55557557D86
:100DEE00555755D5151700000000000000000000F3
:100DFE0000000000000000004040407F5555555552
:100E0E005555557F40404000000000000000000096
:100E1E000000000000000000000202C2020202FEFA
:100E2E008282828282020000000000000000000028
:100E3E0000000000000000004040407F4040407F26
:100E4E0040404040404040000000000000000000D4
:100E5E000000000000000000002010E8242724A459
:100E6E0024342CE000000000000000000000000010
:100E7E0000000000000000000080804F4020180796
:100E8E001010204F80000000000000000000000045
:100E9E00000000000000000000000000000000C084
:100EAE00F8BC888080808080000000000000000078
:100EBE000000000000000000808080808080808024
:100ECE0080C0C08000000000000000000000000094
:100EDE00000000000000000000008060305C47430E
:100EEE0044444444444444440000000000000000D4
:100EFE0000000000000000004444444444C4E446A2
:100F0E0004000000000000000000000000000000CF
:100F1E0000000000000000000000000000000000C3
:100F2E0000000000000000000000000000000000B3
:100F3E00000000000000000000000000001FFF8005
:100F4E000000000000000000000000000000000093
:100F5E000000000000000000000000000000000083
:100F6E000000000000000000000000000000000073
:100F7E000000000000000000000000000000030F51
:100F8E001C3830707F4000000000000000000000A0
:100F9E000000000000000000000000000000F0F063
:100FAE0010101010101010100000000000000000B3
:100FBE000000000000000000D090901010101010E3
:100FCE0010181C18100000000000000000000000A7
:100FDE000000000000000000000000000000FFFF05
:100FEE000080808080808080000000000000000073
:100FFE000000000000000000FFFF818080808080E4
:10100E00C0C08000000000000000000000000000D2
:10101E0000000000000000000000000000F0FF01D2
:10102E0000000000000000000000000000000000B2
:10103E000000000000000000FFFF00000008187014
:10104E00E0C00000000000000000000000000000F2
:10105E000000000000000000004020180E131010C9
:10106E0010101010101010100000000000000000F2
:10107E0000000000000000001F1F101010101010C4
:10108E0013131018181000000000000000000000DC
:08109E0000000000000000004A
:102D6400E4FEC2B400EF30E704D2B38002C2B3EF92
:0D2D740025E0FFD2B4000EEEB408E7C2B4B3
:012D8100222F
:102AAF00AD07D2B3D2B400C2B3007F78122D64C287
:102ABF00B400D2B40000C2B400E4FF122D64C2B45B
:102ACF0000D2B40000C2B400AF05122D64C2B4002E
:102ADF00D2B40000C2B400C2B3D2B400D2B3002249
:102AEF00AD07D2B3D2B400C2B3007F78122D64C247
:102AFF00B400D2B40000C2B4007F40122D64C2B43F
:102B0F0000D2B40000C2B400AF05122D64C2B400ED
:102B1F00D2B40000C2B400C2B3D2B400D2B3002208
:102D8200F583E5822CF582E43583F583E493FF7DB8
:012D9200013F
:0A2D9300ED6003022AEF122AAF22BE
:062C3600A907AA05E4F065
:102C3C00AC07ED24B0FFE4FD122D93EC54F0C4541A
:102C4C000F4410FFE4FD122D93EC540F4401FFE4EC
:042C5C00FD022D93B5
:102DE500E4FD7F8D122D93E4FD7F14122D93E4FDF8
:052DF5007FAF022D93E9
:102DFA00E4FD7F8D122D93E4FD7F10122D93E4FDE7
:052E0A007FAE022D93D4
:102BDE00E4FCEC24B0FFE4FD122D93E4FDFF122D76
:102BEE0093E4FD7F10122D93E4FB7D01E4FF122D83
:0B2BFE00930BEBB480F40CECB408D790
:012C090022A8
:10278E00E4FBFAEB24B0FFE4FD122D93E4FDFF12FF
:10279E002D93E4FD7F10122D93E490096CF0A3F0BD
:1027AE00EB25E0FDEA33FC90096DE0C4F8540FC848
:1027BE0068FF90096CE0C454F048FE74002FF58257
:1027CE0074003EF583E5822DF582E5833CF583A307
:1027DE00E0FF7D01122D9390096DE004F0700690DC
:1027EE00096CE004F0C390096DE0948090096CE0F0
:0F27FE00940040AC0BBB00010AEB64084A7084E6
:01280D0022A8
:10253E00900952E004A4FF90094BE02FFFA3E0FDA9
:0A254E00900951E0900913F07B2E74
:06255800AA07A905AF036C
:10255E00E4FCEF24E0FBEAD3947F4004E4FA09099B
:10256E00900913E064107052AF02AD01122C3CE4DE
:10257E00FC75F010EBA42CF582E435F0F583E582C2
:10258E002476F582E5833402122D8C0CECB408E12E
:10259E00AF02E904FD122C3CE4FC75F010EBA42C08
:1025AE00F582E435F0F583E582247EF582E5833409
:1025BE0002122D8C0CECB408E122AF02AE01AD0676
:1025CE00122C3CE4FC75F006EBA4244EF582E5F0EB
:0A25DE003400122D820CECB406EB61
:0125E80022D0
:07298500C3EF9E14FD7F0A61
:08298C00900910EFF0A3EDF03B
:10299400A312165500000001900911E0FF14F0EF96
:1029A4006020A3E0F8A3E0F9A3E0FAA3E0FB900918
:1029B40010E0FFE4FCFDFE1214FA9009121216490D
:1029C40080D6900912E0FCA3E0FDA3E0FEA3E0FFA3
:0129D40022E0
:10223500FFA3E0FD900955E0FAA3E0900952FBE009
:0C22450090090BF0900951E090090CF09A
:0E225100900907EFF0A3EDF0A3EAF0A3EBF085
:10225F00E490090FF090090DF090090BE0FF900941
:10226F000DE0FEC39F400302230B122985A804A98A
:10227F0005AA06AB07900909E0FEA3E0FFE4FCFD09
:10228F00121585E47B0AFAF9F812158590090EEB01
:10229F00F0A3E0703690090BE014FF90090DE0FEFB
:1022AF00C39F5027A3E0701D90090CE0FCC3138E51
:1022BF00F0A4FF900907E02FFFA3E0FD900913ECB6
:1022CF00F07B20802B90090F7401F090090CE0FE39
:1022DF00C313FFA3E0FDEF8DF0A4FF900907E02FDC
:1022EF00FFA3E0FD90090EE02430FB900913EEF000
:0C22FF0012255890090DE004F00222683E
:01230B0022AF
:0E1F8C00900901EFF0A3EDF0A3EAF0A3EBF053
:101F9A00E4900906F0EB4A6017900906E004F07C29
:101FAA00007D0AAF03AE021214AEAA06AB0780E5A3
:101FBA00900903E0FAA3E0FBD39400EA64809480DA
:101FCA004019900901E0FFA3E0FD900906E090099D
:101FDA000BF0900905E090090C8071C3900903E0A9
:101FEA00648094805069900901E0FFA3E0FD9009A4
:101FFA0005E0900913F07B2D122558900903E0FEA5
:10200A00A3E0FF122E7F900903EEF0A3EFF0A3E006
:10201A00FE900901B41019E02408FFA3E0FDA3E033
:10202A00FAA3E0FB900906E090090BF0A3EE801CEE
:10203A00E02406FFA3E0FDA3E0FAA3E0FB90090673
:10204A00E090090BF0900905E090090CF0802390CC
:10205A000903E07002A3E0701C900901E0FFA3E00D
:10206A00FD90090B7401F0900905E090090CF0E469
:05207A00FBFA122251E7
:01207F00223E
:0819710090094BEFF0A3EDF02B
:10197900E4900952F0A3F0A3F0A3F0A3F0A3F0A31D
:10198900F0FFFEFDFC90094DE0F8A3E0F9A3E0FAB1
:10199900A3E0FB121344600A40089009547401F053
:1019A900801CE4900954F090094DE0FCA3E0FDA3EC
:1019B900E0FEA3E0FF1213B190094D1216499009F8
:1019C9004DE0FCA3E0FDA3E0FEA3E0FF12140090AC
:1019D9000955EEF0A3EFF0FDAC06EC1213C7A8040D
:1019E900A905AA06AB0790094DE0FCA3E0FDA3E019
:1019F900FEA3E0FF1210A9E4FBFA79C8784212119C
:101A09009E121400900957EEF0A3EFF0900955E0EB
:101A19007002A3E06022900955E0FEA3E0FF4E604A
:101A29001D900952E004F07C007D0A1214AE900961
:101A390055EEF0A3EFF080DE9009527401F09009A1
:101A4900537402F090094DE0FCA3E0FDA3E0FEA36E
:101A5900E0FF121400900955EEF0A3EFF09009543D
:101A6900E06055900951E0FE641090094B7030E038
:101A7900FFA3E0FD900955E0FAA3E0FB900952E0CD
:101A890090090BF0A3EEF0122251900952E075F083
:101A990008122543900952E00475F008021B25E05D
:101AA900122235900952E075F00612254390095229
:101AB900E00475F006021B2590094BE0FFA3E0FD49
:101AC900900951E0900913F07B2D12255890095186
:101AD900E0FE641090094B702EE02408FFA3E0FD9E
:101AE900900955E0FAA3E0FB900952E090090BF048
:101AF900A3EEF012225175F00812253E900952E02A
:101B0900240275F0088015E0240612223575F006C6
:101B190012253E900952E0240275F006A4FF9009AF
:101B29004BE02FFFA3E0FD900957E0FAA3E09009ED
:041B390053122243DE
:011B3D002285
:10287B00900901EFF0A3EDF0A3EBF0A3EAF0A3E9CD
:01288B00F05C
:10288C00E4900907F0900903E0FBA3E0FAA3E0F958
:10289C00900907E0F582758300121481FB602F907C
:1028AC000901E0FFA3E0FD900906E0900913F01286
:1028BC002558900901E02408F0E0D394804007E407
:0E28CC00F0A3E02402F0900907E004F080B7CA
:0128DA0022DB
:10280E00900900122C36E4FC75F040EBA42466F51A
:10281E0082E5F03408F583E5822CF582E43583F504
:10282E0083E493F4FF7D01122D93900900E004F0F0
:10283E000CECB410D3AF01EA04FD122C3CE4FC7591
:10284E00F040EBA42486F582E5F03408F583E582AA
:10285E002CF582E43583F583E493F4FF7D01122D8C
:0C286E0093900900E004F00CECB410D3CF
:01287A00223B
:102A2400900901122C36E4FC75F040EBA42466F501
:102A340082E5F03408122D82900901E004F00CECD8
:102A4400B410E5AF01EA04FD122C3CE4FC75F0403F
:102A5400EBA42486F582E5F03408122D8290090156
:082A6400E004F00CECB410E5F5
:012A6C002247
:0816DB0090092BEFF0A3EDF0E4
:1016E300E490093AF0FFFEFDFC90092DE0F8A3E039
:1016F300F9A3E0FAA3E0FB12134490092BE0FFA344
:10170300E0FD900932E0900913501FF07B2D122564
:101713005890092DE0FCA3E0FDA3E0FEA3E0FF1237
:101723002E7290092D1216498006F07B201225583F
:10173300900934E0FFFCE41213CCA804A905AA061F
:10174300AB0790092DE0FCA3E0FDA3E0FEA3E0FFBF
:101753001210A9900936121649900931E024FA9023
:101763000935F0900932E0FEC31325E025E0FF9030
:10177300092BE02FFFA3E0FD900913EEF07B2E125F
:101783002558900932E0C313FF90092BE02FF0E4B2
:10179300900933F0900935E0FF900933E0FEC39FD1
:1017A3004003021844122985E41213C2A804A905B0
:1017B300AA06AB0790092DE0FCA3E0FDA3E0FEA37E
:1017C300E0FF1212A71214007C007D0A1214AE90DF
:1017D3000934EDF090093AE07036900935E014FFD2
:1017E300900933E0FEC39F5027A3E0701D90093298
:1017F300E0FCC3138EF0A4FF90092BE02FFFA3E0BE
:10180300FD900913ECF07B20802B90093A7401F0D2
:10181300900932E0FEC313FFA3E0FDEF8DF0A4FFB8
:1018230090092BE02FFFA3E0FD900934E02430FB67
:10183300900913EEF0122558900933E004F00217D3
:1018430097900932E0C31325E025E0FF90092BE0D0
:101853002FFFC007E4FFFE7D207C41900936E0F8AE
:10186300A3E0F9A3E0FAA3E0FB12119E1214007C9B
:10187300007D0A1214AEED2430FB900932E090098A
:1018830013F090092CE0FDD007122558900932E09F
:10189300C31375F005A4FF90092BE02FFFC007E4E5
:1018A300FFFE7DC87C42900936E0F8A3E0F9A3E08F
:1018B300FAA3E0FB12119E1214007C007D0A12149D
:1018C300AEED2430FB900932E0900913F090092C1F
:1018D300E0FDD007122558900932E0C31375F006D6
:1018E300A4FF90092BE02FFFC007E4FFFE7D7A7C65
:1018F30044900936E0F8A3E0F9A3E0FAA3E0FB1271
:10190300119E1214007C007D0A1214AEED2430FBEC
:10191300900932E0900913F090092CE0FDD00712F2
:101923002558900932E0C31375F007A4FF90092BE3
:10193300E02FFFC0077F007E407D1C7C4690093668
:10194300E0F8A3E0F9A3E0FAA3E0FB12119E12145E
:10195300007C007D0A1214AEED2430FB900932E0C6
:0E196300900913F090092CE0FDD007022558E2
:081B3E0090093BEFF0A3EDF06C
:101B4600A3E0FCA3E0FDA3E0FEA3E0FF12140090D7
:101B56000947EEF0A3EFF0E4900944F0900941E064
:101B6600FF900944E0FEC39F4003021C081229852A
:101B7600A804A905AA06AB07900947E0FEA3E0FF63
:101B8600EE3395E0FDFC121585E47B0AFAF9F812AE
:101B96001585900945EBF0A3E07036900941E014F5
:101BA600FF900944E0FEC39F5027A3E0701D9009F3
:101BB60043E0FCC3138EF0A4FF90093BE02FFFA384
:101BC600E0FD900913ECF07B20802B900946740110
:101BD600F0900943E0FEC313FFA3E0FDEF8DF0A4F0
:101BE600FF90093BE02FFFA3E0FD900945E024307C
:101BF600FB900913EEF0122558900944E004F00218
:101C06001B62900943E0FEC313FF900941E0FDEF1C
:101C16008DF0A4FF90093BE02FFFA3E0FD90091390
:101C2600EEF07B2E122558900942E0FD7F0A12291C
:101C36008CE41213C2C004C005C006C00790094751
:101C4600E0FCA3E0FDEC1213C7A804A905AA06ABA5
:101C56000790093DE0FCA3E0FDA3E0FEA3E0FF1230
:101C660010A9D003D002D001D00012119E12140088
:101C7600900949EEF0A3EFF0E4900944F090094290
:101C8600E0F9900944E0FFC3995065C3E99F122922
:101C960088A804A905AA06AB07900949E0FEA3E0B7
:101CA600FFEE3395E0FDFC121585E47B0AFAF9F8A0
:101CB600121585AF03900945EFF0FE900943E0FC4D
:101CC600C313FF900941E0FD900944E02D8FF0A475
:101CD600FF90093BE02F2405FFA3E0FDEE2430FB37
:101CE600900913ECF0122558900944E004F0808D19
:011CF60022CB
:0A270A00900959EFF090095BEBF025
:10271400E4900960F0A3F090095CE0FF54077008AE
:10272400EF131313541F800A90095CE0131313541E
:102734001F04900962F0900962EDF090095CE0FFDB
:10274400900962E0FDC39F5040900959E0FF122CAC
:102754003CE0FC90095BE0FFECC39F502490095DD2
:10276400E0FBA3E0FAA3E0F9A3E475F0011214E49A
:1027740085F082F583121481FF7D01122D930C8064
:09278400D2900962E004F080B279
:01278D002229
:10230C00E4FF000FEFB464FAE4FD7FAE122D93E40A
:10231C00FDFF122D93E4FD7F10122D93E4FD7F4001
:10232C00122D93E4FD7FB0122D93E4FD7F81122DCD
:10233C0093E4FD7FFF122D93E4FD7FA1122D93E416
:10234C00FD7FA6122D93E4FD7FA8122D93E4FD7F53
:10235C003F122D93E4FD7FC8122D93E4FD7FD31221
:10236C002D93E4FDFF122D93E4FD7FD5122D93E404
:10237C00FD7F80122D93E4FD7FD8122D93E4FD7F19
:10238C0005122D93E4FD7FD9122D93E4FD7FF112FC
:10239C002D93E4FD7FDA122D93E4FD7F12122D9321
:1023AC00E4FD7FDB122D93E4FD7F30122D93E4FDD1
:1023BC007F8D122D93E4FD7F14122D93E4FD7FAFDE
:0C23CC00122D93122BDEE4FDFF022C3CCE
:102B2F00AC05AB07E4FD7F2E122D93E4FD7F27123A
:102B3F002D93E4FDFF122D93AF03E4FD122D93E4CB
:102B4F00FDFF122D93AF04E4FD122D93E4FDFF1250
:102B5F002D93E4FD7FFF122D93E4FD7F2F022D9324
:072EE100E4FD7F2E022D939A
:102BA800E4FD7F2E122D93E4FD7F29122D93E4FD81
:102BB800FF122D93E4FDFF122D93E4FD7F07122DE4
:102BC80093E4FD7F07122D93E4FD7F01122D93E41A
:062BD800FD7F2F022D938A
:102C0A0043091C0101014C091F00000000000000DB
:102C1A00000000000041091A0041091B004309177E
:032C2A00FFFFFFAA
:0D2E6500741C2FF582E43409F583E0FF2290
:102B6F00EF25E025E0241FF582E43409F583E0FC2E
:102B7F00A3E0FDA3E0FEA3E0FFE47BF47A01F9F804
:102B8F00C312162550089009007401F08005E490D7
:082B9F000900F0900900E0FFBD
:012BA700220B
:0323D800CBEFCB7D
:1023DB0090090012165500000000900900121655C6
:1023EB00000F4240CFEBCFE4FCFDFE900900E0F87C
:1023FB00A3E0F9A3E0FAA3E0FB1214FAE47BE87A7A
:10240B0003F9F8121585900900121649900900E09E
:10241B00F8A3E0F9A3E0FAA3E0FBC3E49BFFE49A83
:10242B00FE740199FDE498FC90090012164990097D
:10243B0000E0FCA3E0FDA3E0FEA3E02401FFE43EEB
:10244B00FEE43DFDE43CFC900900121649900900A6
:10245B00E0FCA3E0FDA3E0FEA3E0FF780812163634
:10246B0090091AEFF0FB900900A3A3A3E0FF9009DA
:10247B001BF0E58954F14401F5898B8C8F8AC28D51
:04248B00D2A9D28C74
:01248F00222A
:10208000900917E025E0FFA291E4334FF0A3E0258B
:10209000E0FFA294E4334FF0A3E025E0FFA295E433
:1020A000334FF0E4900916F0900916E0FFC3940353
:1020B000400302215A74172FF582E43409F583E0B6
:1020C000540F704D900916E0FF241CF582E434098A
:1020D000F583E4F0EFC39403400302215A900916FC
:1020E000E025E025E0241FF582E43409F583C08370
:1020F000C082E0FCA3E0FDA3E0FEA3E0240AFFE42D
:102100003EFEE43DFDE43CFCD082D08312164980C3
:1021100040900916E02417F582E43409F583E05471
:102120000FFFBF0F2C900916E0FF241CF582E4344A
:1021300009F5837401F0EFC39403501EEF25E025E9
:10214000E0241FF582E43409F583121655000000DF
:0A21500000900916E004F00220A838
:01215A002262
:03000B00022CB212
:102CB200C0E0C0F0C083C082C0D075D01090091AA5
:102CC200E0F58CA3E0F58A122080D0D0D082D083A8
:052CD200D0F0D0E0325B
:102D43007F641223D87D017F031228DB7D047F0378
:102D53001228DB7D057F031228DBD291D294D29512
:012D6300224D
:092EAB00C296C297C290C2B52282
:092EB400C296D297C290D2B52259
:092EBD00D296C297D290D2B52240
:092EC600C296D297D290D2B52237
:092ECF00C296C297D290D2B5223E
:092ED800D296D297D290D2B52215
:102CD7007D067F011228DB7D077F011228DBE4FDDB
:102CE7007F011228DB7D057F01122930C296C2972A
:052CF700C290C2B522ED
:0400470043C610227A
:0F2E480030980990096EE599F0E0FF227F002293
:080003003099048F99C2992283
:102D9D00C29890096EE599F0E0FE543C1313543F30
:0A2DAD00B50705EE5403FF227F0076
:012DB70022F9
:062EE800E490096EF022E7
:102E360075A15575A1AAE5B954F84404F5B9E4F5A8
:022E4600A122C7
:0E2E5700EF4E600905A1EF1F70F61E80F322FA
:102DCF00EF4E6011E5C330E7FBE5C320E7FBEF1FD4
:062DDF0070EE1E80EB22E5
:102DB80075A15575A1AAEF600543B101800353B110
:072DC800FEE4F5A1F5FF2276
:032EEE008FFF2231
:1028DB00EF14601B146029146039240370467401D3
:1028EB00A805088002C333D8FCF452925293227489
:1028FB0001A805088002C333D8FCFFF45292802153
:10290B007401A805088002C333D8FCFF4292EFF490
:10291B005293227401A805088002C333D8FCFF42EE
:05292B0092EF4293222F
:10293000EF14601B1460291460392403704674017D
:10294000A805088002C333D8FCF45296529722742B
:1029500001A805088002C333D8FCFFF452968021F9
:102960007401A805088002C333D8FCFF4296EFF437
:102970005297227401A805088002C333D8FCFF4295
:0529800096EF429722D2
:1025E900C29FD29EC29DC2CDC2CC438780900900B2
:1025F9001216550000061AE47B0AFAF9F890090048
:10260900E0FCA3E0FDA3E0FEA3E0FF12158590091D
:1026190004EBF0900900E0FCA3E0FDA3E0FEA3E0D9
:10262900FFE47B0AFAF9F812158590090012164998
:10263900900904E0C39405401F900900E0FCA3E061
:10264900FDA3E0FEA3E02401FFE43EFEE43DFDE43A
:102659003CFC900900121649E589540F4420F5897C
:1026690043C9A0900900A3A3A3E0F404F58DD28E79
:04267900D299D29C84
:01267D00223A
:102E0F00122E367F057E00122DCFD2AF122CFC1260
:042E1F002E9680FB70
:0A2EA1003A006B7061002020200051
:082C2D0041096900410964003E
:0A2E8B00900963E59FF0D284E0FF98
:012E9500221A
:102A6D00E4FB7D017F08122A247B017D017F181272
:102A7D002A247B027D017F28122A247B037D017F7E
:102A8D0038122A247B047D017F48122A247B057D80
:102A9D00017F58122A247B067D017F68122A2402A9
:022AAD002BDE1E
:101CF700900900EFF0E4FBFD7F08122A247B01E442
:101D0700FD7F18122A247B02E4FD7F28122A247BF8
:101D170003E4FD7F38122A247B04E4FD7F48122A5E
:101D2700247B05E4FD7F58122A247B06E4FD7F68A7
:101D3700122A24900900E024FE7003021DC81470C3
:101D470003021E2824026003021E947B177D047F72
:101D570011122A247B0C7D047F21122A247BFF7A0F
:101D67002E79A19009067410F07D047F3112287B2B
:101D7700122E8BEF24BAFFE434FFFE900965F0A31F
:101D8700EFF0C3EE648094805007E4900965F0A3F8
:101D9700F07BFF7A2E79A39009067410F07D047FFB
:101DA7005A12287B7BFF7A2E79A79009067410F0C8
:101DB7007D047F4112287B900965E0FAA3E0021EAB
:101DC700867B187D047F11122A247B0C7D047F21DA
:101DD700122A247BFF7A2E79A19009067410F07DD0
:101DE700047F3112287B7BFF7A2E79A39009067432
:101DF70010F07D047F5A12287B7BFF7A2E79A790FB
:101E070009067410F07D047F4112287B122E8BEF98
:101E170024C9FFE434FFFE900965F0FAA3EFF080D0
:101E27005E7B0F7D047F11122A247B107D047F21A6
:101E3700122A247BFF7A2E79A19009067410F07D6F
:101E4700047F3112287B7BFF7A2E79A390090674D1
:101E570010F07D047F5A12287B7BFF7A2E79A7909A
:101E670009067410F07D047F4112287B122E8BEF38
:101E770024E5FFE434FFFE900965F0FAA3EFF0FBD9
:0E1E87009009057410F07D047F41121F8C221B
:10215B00E4FBFD7F08122A247B01E4FD7F18122A81
:10216B00247B02E4FD7F28122A247B03E4FD7F38C5
:10217B00122A247B04E4FD7F48122A247B05E4FD0C
:10218B007F58122A247B06E4FD7F68122A249009CB
:10219B0069E014603B04706E7B117D027F20122876
:1021AB000E7B127D027F3012280E7B157D027F4045
:1021BB0012280E7B167D027F5012280E7B137D0496
:1021CB007F30122A247B147D047F40122A24803610
:1021DB007B117D027F20122A247B127D027F30121D
:1021EB002A247B157D027F40122A247B167D027FD9
:1021FB0050122A247B137D047F3012280E7B147D12
:10220B00047F4012280E7B097D067F08122A247B4F
:10221B000A7D067F18122A247B077D067F58122A17
:0A222B00247B087D067F68022A2448
:10249000E4FBFD7F08122A247B01E4FD7F18122A49
:1024A000247B02E4FD7F28122A247B03E4FD7F388D
:1024B000122A247B04E4FD7F48122A247B05E4FDD4
:1024C0007F58122A247B06E4FD7F68122A247B11A0
:1024D0007D037F20122A247B127D037F30122A2461
:1024E0007B157D037F40122A247B167D037F5012CB
:1024F0002A247BFF7A2E79A19009067410F07D03BF
:102500007F6012287B7BFF7A2E79A79009067410D2
:10251000F07D037F6812287B900964E0FB7A0090CD
:1025200009057410F07D037F68121F8C7B097D06FE
:0E2530007F08122A247B0A7D067F18022A24C7
:101E9500EF14605D147003021F31147003021F7686
:101EA50024036003021F8B900968E0FF121CF77F73
:101EB50001122E65EF7009122EBD9009687401F0AC
:101EC5007F02122E65EF7009122EC6900968740202
:101ED500F0E4FF122E65EF7009122EAB90096874BD
:101EE50003F0E4FF122B6FEF64016003021F8B8088
:101EF5007912215B7F02122E65EF700E900969E061
:101F050004F0E0D394024002E4F0E4FF122E65EF02
:101F150070099009677402F0122BDE7F01122E659D
:101F2500EF7063900969F09009678042122490E48C
:101F3500FF122E65EF700E900964E014F0E0C39473
:101F4500005002E4F07F02122E65EF7006900964DE
:101F5500E004F0900964E0D394104002E4F07F01BE
:101F6500122E65EF7020900969F090096704F080E2
:101F750012E4FF122E657F02122E657F01122E6577
:071F8500EF7003122BDE22B6
:102CFC0012230C122BDE122D43122CD77F01122D16
:102D0C00201225E9E4900967F0900964F0900968B5
:042D1C007403F0222A
:102C6000EF24FE60111460182402701D122EBD9016
:102C700009687401F022122EC69009687402F022CD
:0A2C8000122EAB9009687403F022D5
:102E2300E4FF30980B900964E0FF122D9D122C6093
:032E3300022EE884
:0B2E9600900967E0FF121E95022E233A
:1010A60002146CE86480F8E933E83360110460F0F8
:1010B600ED33EC337009E8FCE9FDEAFEEBFF2204B0
:1010C60060DED3EB9FEA9EE99DE8C2E78CF0C2F7AB
:1010D60095F0400CE8CCF8E9CDF9EACEFAEBCFFB77
:1010E60012143785D0F05804700320D5B3E8047085
:1010F600075002B2D502147692D5EC0460F7E4CC20
:10110600C0E0C398F8603B94186008400DD0E0FB3F
:1011160002144EE4FBFAC9FC8028E830E406E4C970
:10112600FBE4CAFCE830E305E4C9CACBFCE8540793
:101136006010F8C3E913F9EA13FAEB13FBEC13FC9E
:10114600D8F130F52FC3E49CFCEF9BFFEE9AFEED41
:1011560099FDD0E0FBEF4E4D4C701222DB030214DA
:1011660073EC2CFCEF33FFEE33FEED33FDED30E791
:10117600EB02144EEF2BFFEE3AFEED39FDD0E0FB0D
:1011860050130BBB0003021476ED13FDEE13FEEFB6
:0811960013FFEC13FC02144EE0
:10119E00EC4D6011E8497017ED33EC3304600DE44B
:1011AE00FCFFFEFD22E933E8330470F802146C12E2
:1011BE00143758046009E4CC2481500628500902E3
:1011CE001476284003021473C0E0EB4A7044B980D1
:1011DE0006D0E0FB021462EF4E701CBD8008EBFFE0
:1011EE00EAFEE9FD80EBE98DF0A4FEE5F002128740
:1011FE00E9CDF9EAFEEBFFEF89F0A4FCE5F0CE892C
:10120E00F0A42EFFE435F0CD89F0A42DFEE435F0E8
:10121E008067EF4E7005BD80D780C3EF8BF0A4AC16
:10122E00F0EE8BF0A42CFCE435F0F8EF8AF0A42C51
:10123E00E5F038FCE433CB8DF0A42CFCE5F03BF864
:10124E00EE8AF0A42CFCE5F038F8E433CF89F0A454
:10125E002CFCE5F038CF3400CE89F0A42FFFE5F05A
:10126E003EFEE433C98DF0A42EFEE5F039CD8AF0B2
:10127E00A42FFFE5F03EFEE43DFD33D0E0FB50072A
:10128E000BBB000F021476EC2CFCEF33FFEE33FE9B
:06129E00ED33FD02144EC9
:1012A400021476EC5D046005E85904700302146CC2
:1012B400121437580460F6EC4860F2EC7004FDFE3A
:1012C400FF22C860DB2481C85009C398600250061D
:1012D4000214739850CAF582E9294B4A7005AB820F
:1012E40002146275F0007C1A7880C3EF9BEE9AEDCD
:1012F40099400DC3EF9BFFEE9AFEED99FDE842F095
:10130400DC23ACF0D0E0FFD0E0FED0E0FDAB8220E7
:10131400E7101BEB60BAEC2CFCEF33FFEE33FEED71
:1013240033FD02144EE803F830E705C0F075F00011
:10133400EF2FFFEE33FEED33FD40B830E7C280AA55
:1013440074F8CC6480CCC86480C8F582046043C35C
:10135400EB9FF5F0EA9E42F0E99D42F0E89C45F0EF
:1013640060305018E5825FFFE582F42B5582FB5014
:10137400210ABA001D09B90019088016E5825BFB31
:10138400E582F42F5582FF50090EBE00050DBD0005
:10139400010CC3EB9FF5F0EA9E42F0E99D42F0E8B0
:0D13A4009C45F06007CC4820E701B3EC2227
:1013B100ED33EC33600A047003BD8004ECB2E7FC4A
:0113C1002209
:1013C20075F020800E75F010800575F0087D007EA6
:1013D200007F003392D530D503121617EC3340103C
:1013E200EF33FFEE33FEED33FDEC33FCD5F0ED22AF
:0E13F200E5F0247EA2D513CC92E7CDCEFF22EB
:10140000EDD2E7CD33EC3392D524814006E4FFFEE4
:10141000FDFC22FCE4CFCECDCC24E0501174FF8043
:10142000EDC3CC13CCCD13CDCE13CECF13CF0470E0
:07143000F030D5DE021617B3
:0D2E7200ED33EC3360065004EC6480FC226C
:10143700E9D2E7C933E833F892D5EDD2E7CD33ECFB
:0714470033FC5002B2D52274
:10144E00EC30E7100FBF000C0EBE00080DBD0004FF
:10145E000BEB6014A2D5EB13FCED92E7FD2274FFAB
:10146E00FCFDFEFF22E480F8A2D574FF13FC7D8004
:03147E00E480EF18
:10268A00022E0FE493A3F8E493A34003F68001F229
:10269A0008DFF48029E493A3F85407240CC8C33351
:1026AA00C4540F4420C8834004F456800146F6DF20
:1026BA00E4800B0102040810204080902C0AE47E7A
:1026CA00019360BCA3FF543F30E509541FFEE49315
:1026DA00A360010ECF54C025E060A840B8E493A3DC
:1026EA00FAE493A3F8E493A3C8C582C8CAC583CA07
:1026FA00F0A3C8C582C8CAC583CADFE9DEE780BEBF
:012C3500009E
:10148100BB010CE58229F582E5833AF583E0225020
:1014910006E92582F8E622BBFE06E92582F8E2226A
:0D14A100E58229F582E5833AF583E4932284
:1014AE00C2D5EC30E709B2D5E4C39DFDE49CFCEE59
:1014BE0030E715B2D5E4C39FFFE49EFE121686C335
:1014CE00E49DFDE49CFC800312168630D507C3E430
:0614DE009FFFE49EFE22C8
:1014E400A3F8E0C5F025F0F0E582158270021583BB
:0614F400E0C838F0E82218
:1014FA00E88FF0A4CC8BF0A42CFCE98EF0A42CFC91
:10150A008AF0EDA42CFCEA8EF0A4CDA8F08BF0A40E
:10151A002DCC3825F0FDE98FF0A42CCD35F0FCEB6D
:10152A008EF0A4FEA9F0EB8FF0A4CFC5F02ECD3932
:0F153A00FEE43CFCEAA42DCE35F0FDE43CFC229F
:1015490075F008758200EF2FFFEE33FECD33CDCC59
:1015590033CCC58233C5829BED9AEC99E5829840DC
:101569000CF582EE9BFEED9AFDEC99FC0FD5F0D6B9
:10157900E4CEFBE4CDFAE4CCF9A88222B800C1B9E3
:101589000059BA002DEC8BF084CFCECDFCE5F0CB21
:10159900F97818EF2FFFEE33FEED33FDEC33FCEB5A
:1015A90033FB10D703994004EB99FB0FD8E5E4F915
:1015B900FA227818EF2FFFEE33FEED33FDEC33FC02
:1015C900C933C910D7059BE99A4007EC9BFCE99AF6
:1015D900F90FD8E0E4C9FAE4CCFB2275F010EF2F3B
:1015E900FFEE33FEED33FDCC33CCC833C810D7073B
:1015F9009BEC9AE899400AED9BFDEC9AFCE899F876
:0E1609000FD5F0DAE4CDFBE4CCFAE4C8F92208
:0E161700C3E49FFFE49EFEE49DFDE49CFC22E4
:10162500EB9FF5F0EA9E42F0E99D42F0E89C45F01B
:011635002292
:10163600E8600FECC313FCED13FDEE13FEEF13FF92
:03164600D8F122B6
:0C164900ECF0A3EDF0A3EEF0A3EFF02214
:10165500A8828583F0D083D08212166C12166C1284
:10166500166C12166CE473E493A3C583C5F0C583A9
:10167500C8C582C8F0A3C583C5F0C583C8C582C8DF
:011685002242
:0C2E7F00EE30E707C3E49FFFE49EFE2254
:10168600BC000BBE0029EF8DF084FFADF022E4CC48
:10169600F875F008EF2FFFEE33FEEC33FCEE9DEC11
:1016A600984005FCEE9DFE0FD5F0E9E4CEFD22ED57
:1016B600F8F5F0EE8420D21CFEADF075F008EF2FA1
:1016C600FFED33FD4007985006D5F0F222C398FD92
:0516D6000FD5F0EA222F
:00000001FF
