:030000000226676E
:0C266700787FE4F6D8FD75810F0226AEE6
:102D6E00900900EFF07D02E4FF122919900900E0AE
:102D7E0044FE529A439A08C285D2EB7F03122B5817
:032D8E00D28422CA
:102B5800EF7009C281C2805393FD802AEFB4010946
:102B6800C281D2805393EF801DEFB40209D281C293
:102B7800805393DF8010EFB40309D281D28053973A
:092B8800FB80037FFF227F002285
:1029BE00439A04ED64017016EF70028019EFB402B1
:1029CE00028027EFB40304D28180157FFF22ED64CD
:1029DE00037022EF7004C2818012EFB40108C2812D
:1029EE00D280C2838012EFB40208D281C280C28329
:0F29FE0080067FFF227FFF22C286D2EB7F00225E
:03004B00022CD8AC
:102CD800C0E0C083C082C0D075D00830850CAF9FDB
:102CE80090097CE4F0A3EFF0C285308602C286D05A
:082CF800D0D082D083D0E0327D
:10004E000000000000000000002F0000000007006C
:10005E00070000147F147F1400242A7F2A120062E6
:10006E006408132300364955225000000503000092
:10007E0000001C224100000041221C000014083E1A
:10008E0008140008083E0808000000A060000008E0
:10009E000808080800006060000000201008040234
:1000AE00003E5149453E0000427F400000426151F2
:1000BE004946002141454B31001814127F1000278C
:1000CE0045454539003C4A4949300001710905034F
:1000DE0000364949493600064949291E0000363680
:1000EE0000000000563600000008142241000014E3
:1000FE0014141414000041221408000201510906C0
:10010E0000324959513E007C1211127C007F494940
:10011E004936003E41414122007F4141221C007F71
:10012E0049494941007F09090901003E4149497A7F
:10013E00007F0808087F0000417F410000204041F9
:10014E003F01007F08142241007F40404040007F65
:10015E00020C027F007F0408107F003E4141413EA9
:10016E00007F09090906003E4151215E007F0919F1
:10017E0029460046494949310001017F0101003FEE
:10018E004040403F001F2040201F003F4038403F6E
:10019E0000631408146300070870080700615149D2
:1001AE00454300007F41410000552A552A55000065
:1001BE0041417F00000402010204004040404040E3
:1001CE00000001020400002054545478007F48447B
:1001DE00443800384444442000384444487F0038B2
:1001EE005454541800087E0901020018A4A4A47CDB
:1001FE00007F080404780000447D400000408084A5
:10020E007D00007F102844000000417F4000007CEC
:10021E0004180478007C08040478003844444438F8
:10022E0000FC242424180018242418FC007C080444
:10023E00040800485454542000043F444020003C1D
:10024E004040207C001C2040201C003C4030403CA4
:10025E00004428102844001CA0A0A07C0044645434
:10026E004C44141414141414000000000000000078
:10027E000000000000000000000000F80000000078
:10028E00000000333000000000100C06100C0600B9
:10029E00000000000000000040C07840C078400020
:1002AE00043F04043F040400007088FC0830000082
:1002BE00001820FF211E0000F008F000E0180000DA
:1002CE0000211C031E211E0000F008887000000093
:1002DE001E2123241927211010160E0000000000E5
:1002EE000000000000000000000000E01804020002
:1002FE00000000071820400000020418E000000073
:10030E000040201807000000404080F08040400070
:10031E000202010F01020200000000F000000000C6
:10032E000101011F0101010000000000000000009A
:10033E0080B070000000000000000000000000000F
:10034E000001010101010101000000000000000098
:10035E000030300000000000000000008060180433
:10036E00006018060100000000E010080810E00010
:10037E00000F102020100F00001010F800000000D9
:10038E000020203F20200000007008080888700020
:10039E0000302824222130000030088888483000A0
:1003AE000018202020110E000000C02010F80000C0
:1003BE0000070424243F240000F808888808080059
:1003CE000019212020110E0000E01088881800006E
:1003DE00000F112020110E0000380808C838080040
:1003EE000000003F000000000070880808887000C0
:1003FE00001C222121221C0000E010080810E00041
:10040E000000312222110F00000000C0C0000000C9
:10041E0000000030300000000000008000000000EE
:10042E0000008060000000000000804020100800E6
:10043E0000010204081020004040404040404000AF
:10044E00040404040404040000081020408000008A
:10045E000020100804020100007048080808F0008F
:10046E000000003036010000C030C828E810E0005F
:10047E000718272423140B000000C038E0000000EA
:10048E00203C23020227382008F888888870000054
:10049E00203F202020110E00C03008080808380028
:1004AE00071820202010080008F808080810E0009F
:1004BE00203F202020100F0008F88888E808100040
:1004CE00203F20202320180008F88888E808100014
:1004DE00203F200003000000C0300808083800004C
:1004EE0007182020221E020008F808000008F8084D
:1004FE00203F210101213F20000808F808080000D4
:10050E000020203F2020000000000808F808080006
:10051E00C08080807F00000008F888C0281808007E
:10052E00203F20012638200008F8080000000000B7
:10053E00203F20202020300008F8F800F8F80800AE
:10054E00203F003F003F200008F830C00008F808A8
:10055E00203F200007183F00E01008080810E000B8
:10056E000F10202020100F0008F808080808F000CF
:10057E00203F210101010000E01008080810E000F2
:10058E000F18242438504F0008F888888888700087
:10059E00203F2000030C3020007088080808380027
:1005AE000038202121221C00180808F8080818001D
:1005BE000000203F2000000008F808000008F8089E
:1005CE00001F202020201F000878880000C838084F
:1005DE00000007380E010000F80800F80008F800C7
:1005EE00033C0700073C0300081868808068180861
:1005FE0020302C03032C30200838C800C8380800DF
:10060E000000203F2000000010080808C83808002D
:10061E002038262120201800000000FE02020200D1
:10062E000000007F40404000000C30C00000000081
:10063E00000000010638C00000020202FE000000A9
:10064E00004040407F00000000000402020204004F
:10065E00000000000000000000000000000000008C
:10066E008080808080808080000202040000000074
:10067E00000000000000000000008080808000006C
:10068E000019242222223F2008F80080800000005A
:10069E00003F112020110E0000000080808000001D
:1006AE00000E112020201100000000808088F8002C
:1006BE00000E112020103F2000008080808000005E
:1006CE00001F222222221300008080F088888818C2
:1006DE000020203F202000000000808080808000CD
:1006EE00006B94949493600008F800808080000062
:1006FE00203F210000203F2000809898000000003D
:10070E000020203F2020000000000080989800006C
:10071E0000C08080807F000008F80000808080008C
:10072E00203F24022D302000000808F800000000B1
:10073E000020203F2020000080808080808080006C
:10074E00203F20003F20003F8080008080800000FE
:10075E00203F210000203F2000008080808000008C
:10076E00001F202020201F008080008080000000BD
:10077E0080FFA12020110E000000008080808000EC
:10078E00000E112020A0FF808080800080808000DD
:10079E0020203F212000010000008080808080000A
:1007AE000033242424241900008080E0808000007F
:1007BE000000001F202000008080000000808000CC
:1007CE00001F202020103F2080808000008080802D
:1007DE0000010E30080601008080008000808080BD
:1007EE000F300C030C300F000080800080808000E2
:1007FE000020312E0E31200080808000008080800D
:10080E0080818E70180601000080808080808000BC
:10081E000021302C2221300000000000807C0202DA
:10082E0000000000003F404000000000FF000000FC
:10083E0000000000FF0000000002027C80000000AB
:10084E000040403F000000000006010102020404C7
:10085E00000000000000000008C8B88FE88888403B
:10086E00300FC8082818000000000000000000002B
:10087E00000000000000000008180808FF04844073
:10088E00300E010E3040800000000000000000001D
:10089E0000000000000000001010D0FF901000FEBD
:1008AE00020202FE00000000000000000000000036
:1008BE000000000000000000040300FF0083601F22
:1008CE000000003F404078000000000000000000E3
:1008DE00000000000000000080809E9292929EE038
:1008EE00809EB2D2929E80000000000000000000A8
:1008FE0000000000000000000808F4949292F1003D
:10090E0001F2929494F8080000000000000000002C
:10091E000000000000000000000000000000C03FCA
:10092E00C0000000000000000000000000000000F9
:10093E000000000000000000804020100C030000AA
:10094E0000030C102040800000000000000000009A
:10095E00000000000000000002FA8282FE8000FE0D
:10096E0002126282621A0200000000000000000003
:10097E00000000000000000008184884443F007F7B
:10098E00504846414658400000000000000000005C
:10099E0000000000000000004044C44444444010E5
:1009AE0010FF101010F0000000000000000000000A
:1009BE000000000000000000103C131014B840307E
:1009CE000E014080403F00000000000000000000CB
:1009DE00000000000000000080809E9292929EE037
:1009EE00809EB2D2929E80000000000000000000A7
:1009FE0000000000000000000808F4949292F1003C
:100A0E0001F2929494F8080000000000000000002B
:100A1E000000000000000000404042CC00504EC8D4
:100A2E00487FC84848400000000000000000000059
:100A3E0000000000000000000040201F20504C432A
:100A4E0040404F50505C400000000000000000008D
:100A5E0000000000000000001010FF100082864A07
:100A6E0052A2524A86808000000000000000000062
:100A7E00000000000000000042827F0100101212F0
:100A8E0012FF121212100000000000000000000001
:100A9E000000000000000000404042CC0000FC249A
:100AAE00A4242222A3620000000000000000000027
:100ABE0000000000000000000040201F205847509A
:100ACE00484542454850400000000000000000002C
:100ADE0000000000000000000000FE0202F21212F0
:100AEE0012F20202FE0000000000000000000000F2
:100AFE00000000000000000000007F2020272424BA
:100B0E00242720207F0000000000000000000000CD
:100B1E00000000000000000020104C4754545454B4
:100B2E00545454D4040400000000000000000000DF
:100B3E0000000000000000000000000000000000A7
:100B4E000000000F3040F000000000000000000028
:100B5E0000000000000000000000FE02828282827F
:100B6E00FA828282828202000000000000000000F1
:100B7E00000000000000000080601F404040404028
:100B8E007F4040445840400000000000000000003C
:100B9E000000000000000000000202C2020202FE7D
:100BAE0082828282820200000000000000000000AB
:100BBE0000000000000000004040407F4040407FA9
:100BCE004040404040404000000000000000000057
:100BDE000000000000000000002010E8242724A4DC
:100BEE0024342CE000000000000000000000000093
:100BFE0000000000000000000080804F4020180719
:100C0E001010204F800000000000000000000000C7
:100C1E00000000000000000000001011161010F07F
:100C2E00101014131000000000000000000000005F
:100C3E0000000000000000008181414121110D03E0
:100C4E000D112141418181000000000000000000D3
:100C5E00000000000000000000F80122202222A265
:100C6E00FA22222202FE0000000000000000000016
:100C7E00000000000000000000FF00080402112028
:100C8E001F000040807F00000000000000000000F8
:100C9E0000000000000000002030AC633000FC2497
:100CAE0025262424243C0000000000000000000043
:100CBE00000000000000000022672212523807FFD9
:100CCE00097F093F89FF00000000000000000000BE
:100CDE000000000000000000808080BEA2A2A2A240
:100CEE00A2A2A2BE808080000000000000000000D2
:100CFE0000000000000000000000000605040404CF
:100D0E004484443C0000000000000000000000008D
:100D1E00000000000000000000001011161010F07E
:100D2E00101014131000000000000000000000005E
:100D3E0000000000000000008181414121110D03DF
:100D4E000D112141418181000000000000000000D2
:100D5E00000000000000000040404242424242FEBD
:100D6E0042424242424040000000000000000000AB
:100D7E000000000000000000000000000040807F26
:100D8E000000000000000000000000000000000055
:100D9E000000000000000000404042CC0040A09E39
:100DAE008282829EA0202000000000000000000031
:100DBE0000000000000000000000003F908840434B
:100DCE002C1028464180800000000000000000002A
:100DDE000000000000000000001715D55557557D86
:100DEE00555755D5151700000000000000000000F3
:100DFE0000000000000000004040407F5555555552
:100E0E005555557F40404000000000000000000096
:100E1E000000000000000000000202C2020202FEFA
:100E2E008282828282020000000000000000000028
:100E3E0000000000000000004040407F4040407F26
:100E4E0040404040404040000000000000000000D4
:100E5E000000000000000000002010E8242724A459
:100E6E0024342CE000000000000000000000000010
:100E7E0000000000000000000080804F4020180796
:100E8E001010204F80000000000000000000000045
:100E9E00000000000000000000000000000000C084
:100EAE00F8BC888080808080000000000000000078
:100EBE000000000000000000808080808080808024
:100ECE0080C0C08000000000000000000000000094
:100EDE00000000000000000000008060305C47430E
:100EEE0044444444444444440000000000000000D4
:100EFE0000000000000000004444444444C4E446A2
:100F0E0004000000000000000000000000000000CF
:100F1E0000000000000000000000000000000000C3
:100F2E0000000000000000000000000000000000B3
:100F3E00000000000000000000000000001FFF8005
:100F4E000000000000000000000000000000000093
:100F5E000000000000000000000000000000000083
:100F6E000000000000000000000000000000000073
:100F7E000000000000000000000000000000030F51
:100F8E001C3830707F4000000000000000000000A0
:100F9E000000000000000000000000000000F0F063
:100FAE0010101010101010100000000000000000B3
:100FBE000000000000000000D090901010101010E3
:100FCE0010181C18100000000000000000000000A7
:100FDE000000000000000000000000000000FFFF05
:100FEE000080808080808080000000000000000073
:100FFE000000000000000000FFFF818080808080E4
:10100E00C0C08000000000000000000000000000D2
:10101E0000000000000000000000000000F0FF01D2
:10102E0000000000000000000000000000000000B2
:10103E000000000000000000FFFF00000008187014
:10104E00E0C00000000000000000000000000000F2
:10105E000000000000000000004020180E131010C9
:10106E0010101010101010100000000000000000F2
:10107E0000000000000000001F1F101010101010C4
:10108E0013131018181000000000000000000000DC
:08109E0000000000000000004A
:102DB200E4FEC2B400EF30E704D2B38002C2B3EF44
:0D2DC20025E0FFD2B4000EEEB408E7C2B465
:012DCF0022E1
:102A9800AD07D2B3D2B400C2B3007F78122DB2C250
:102AA800B400D2B40000C2B400E4FF122DB2C2B424
:102AB80000D2B40000C2B400AF05122DB2C2B400F7
:102AC800D2B40000C2B400C2B3D2B400D2B3002260
:102AD800AD07D2B3D2B400C2B3007F78122DB2C210
:102AE800B400D2B40000C2B4007F40122DB2C2B408
:102AF80000D2B40000C2B400AF05122DB2C2B400B7
:102B0800D2B40000C2B400C2B3D2B400D2B300221F
:102DD000F583E5822CF582E43583F583E493FF7D6A
:012DE00001F1
:0A2DE100ED6003022AD8122A98229E
:062C8400A907AA05E4F017
:102C8A00AC07ED24B0FFE4FD122DE1EC54F0C4547E
:102C9A000F4410FFE4FD122DE1EC540F4401FFE450
:042CAA00FD022DE119
:10000E00E4FD7F8D122DE1E4FD7F14122DE1E4FD60
:05001E007FAF022DE19F
:102E2E00E4FD7F8D122DE1E4FD7F10122DE1E4FD16
:052E3E007FAE022DE152
:102C0000E4FCEC24B0FFE4FD122DE1E4FDFF122D05
:102C1000E1E4FD7F10122DE1E4FB7D01E4FF122DC4
:0B2C2000E10BEBB480F40CECB408D71F
:012C2B002286
:10277700E4FBFAEB24B0FFE4FD122DE1E4FDFF12C8
:102787002DE1E4FD7F10122DE1E490097EF0A3F026
:10279700EB25E0FDEA33FC90097FE0C4F8540FC84D
:1027A70068FF90097EE0C454F048FE74002FF5825C
:1027B70074003EF583E5822DF582E5833CF583A31E
:1027C700E0FF7D01122DE190097FE004F070069093
:1027D700097EE004F0C390097FE0948090097EE0D1
:0F27E700940040AC0BBB00010AEB64084A7084FD
:0127F60022C0
:10248800900964E004A4FF90095DE02FFFA3E0FD3C
:0A249800900963E0900914F07B2E18
:0624A200AA07A905AF0323
:1024A800E4FCEF24E0FBEAD3947F4004E4FA090952
:1024B800900914E064107052AF02AD01122C8AE446
:1024C800FC75F010EBA42CF582E435F0F583E58279
:1024D8002476F582E5833402122DDA0CECB408E197
:1024E800AF02E904FD122C8AE4FC75F010EBA42C71
:1024F800F582E435F0F583E582247EF582E58334C0
:1025080002122DDA0CECB408E122AF02AE01AD06DE
:10251800122C8AE4FC75F006EBA4244EF582E5F053
:0A2528003400122DD00CECB406EBC9
:012532002286
:07296E00C3EF9E14FD7F0A78
:08297500900911EFF0A3EDF051
:10297D00A312165500000001900912E0FF14F0EFAC
:10298D006020A3E0F8A3E0F9A3E0FAA3E0FB90092F
:10299D0011E0FFE4FCFDFE1214FA90091312164922
:1029AD0080D6900913E0FCA3E0FDA3E0FEA3E0FFB9
:0129BD0022F7
:10222D00FFA3E0FD900967E0FAA3E0900964FBE0ED
:0C223D0090090CF0900963E090090DF08E
:0E224900900908EFF0A3EDF0A3EAF0A3EBF08C
:10225700E4900910F090090EF090090CE0FF900946
:102267000EE0FEC39F400302230312296EA804A9B0
:1022770005AA06AB0790090AE0FEA3E0FFE4FCFD10
:10228700121585E47B0AFAF9F812158590090FEB08
:10229700F0A3E0703690090CE014FF90090EE0FE01
:1022A700C39F5027A3E0701D90090DE0FCC3138E58
:1022B700F0A4FF900908E02FFFA3E0FD900914ECBC
:1022C700F07B20802B9009107401F090090DE0FE3F
:1022D700C313FFA3E0FDEF8DF0A4FF900908E02FE3
:1022E700FFA3E0FD90090FE02430FB900914EEF006
:0C22F7001224A290090EE004F002226004
:0123030022B7
:0E1E9500900902EFF0A3EDF0A3EAF0A3EBF04A
:101EA300E4900907F0EB4A6017900907E004F07C1F
:101EB300007D0AAF03AE021214AEAA06AB0780E59B
:101EC300900904E0FAA3E0FBD39400EA64809480D1
:101ED3004019900902E0FFA3E0FD900907E0900993
:101EE3000CF0900906E090090D8071C3900904E09D
:101EF300648094805069900902E0FFA3E0FD90099B
:101F030006E0900914F07B2D1224A2900904E0FE50
:101F1300A3E0FF122E91900904EEF0A3EFF0A3E0EB
:101F2300FE900902B41019E02408FFA3E0FDA3E02A
:101F3300FAA3E0FB900907E090090CF0A3EE801CE4
:101F4300E02406FFA3E0FDA3E0FAA3E0FB9009076A
:101F5300E090090CF0900906E090090DF0802390C1
:101F63000904E07002A3E0701C900902E0FFA3E003
:101F7300FD90090C7401F0900906E090090DF0E45E
:051F8300FBFA122249E7
:011F88002236
:0819710090095DEFF0A3EDF019
:10197900E4900964F0A3F0A3F0A3F0A3F0A3F0A30B
:10198900F0FFFEFDFC90095FE0F8A3E0F9A3E0FA9F
:10199900A3E0FB121344600A40089009667401F041
:1019A900801CE4900966F090095FE0FCA3E0FDA3C8
:1019B900E0FEA3E0FF1213B190095F1216499009E6
:1019C9005FE0FCA3E0FDA3E0FEA3E0FF121400909A
:1019D9000967EEF0A3EFF0FDAC06EC1213C7A804FB
:1019E900A905AA06AB0790095FE0FCA3E0FDA3E007
:1019F900FEA3E0FF1210A9E4FBFA79C8784212119C
:101A09009E121400900969EEF0A3EFF0900967E0C7
:101A19007002A3E06022900967E0FEA3E0FF4E6038
:101A29001D900964E004F07C007D0A1214AE90094F
:101A390067EEF0A3EFF080DE9009647401F090097D
:101A4900657402F090095FE0FCA3E0FDA3E0FEA34A
:101A5900E0FF121400900967EEF0A3EFF090096619
:101A6900E06055900963E0FE641090095D7030E014
:101A7900FFA3E0FD900967E0FAA3E0FB900964E0A9
:101A890090090CF0A3EEF0122249900964E075F078
:101A99000812248D900964E00475F008021B25E002
:101AA90012222D900964E075F00612248D900964C4
:101AB900E00475F006021B2590095DE0FFA3E0FD37
:101AC900900963E0900914F07B2D1224A290096318
:101AD900E0FE641090095D702EE02408FFA3E0FD8C
:101AE900900967E0FAA3E0FB900964E090090CF023
:101AF900A3EEF012224975F008122488900964E0D7
:101B0900240275F0088015E0240612222D75F006CE
:101B1900122488900964E0240275F006A4FF900954
:101B29005DE02FFFA3E0FD900969E0FAA3E09009C9
:041B39006512223BD4
:011B3D002285
:10286400900902EFF0A3EDF0A3EBF0A3EAF0A3E9E3
:01287400F073
:10287500E4900908F0900904E0FBA3E0FAA3E0F96D
:10288500900908E0F582758300121481FB602F9092
:102895000902E0FFA3E0FD900907E0900914F0129A
:1028A50024A2900902E02408F0E0D394804007E4D4
:0E28B500F0A3E02402F0900908E004F080B7E0
:0128C30022F2
:1027F700900901122C84E4FC75F040EBA42466F5E3
:1028070082E5F03408F583E5822CF582E43583F51B
:1028170083E493F4FF7D01122DE1900901E004F0B8
:102827000CECB410D3AF01EA04FD122C8AE4FC755A
:10283700F040EBA42486F582E5F03408F583E582C1
:102847002CF582E43583F583E493F4FF7D01122DA3
:0C285700E1900901E004F00CECB410D397
:012863002252
:102A0D00900902122C84E4FC75F040EBA42466F5C9
:102A1D0082E5F03408122DD0900902E004F00CECA0
:102A2D00B410E5AF01EA04FD122C8AE4FC75F04008
:102A3D00EBA42486F582E5F03408122DD09009021E
:082A4D00E004F00CECB410E50C
:012A5500225E
:0816DB0090093DEFF0A3EDF0D2
:1016E300E490094CF0FFFEFDFC90093FE0F8A3E015
:1016F300F9A3E0FAA3E0FB12134490093DE0FFA332
:10170300E0FD900944E0900914501FF07B2D122452
:10171300A290093FE0FCA3E0FDA3E0FEA3E0FF12DB
:101723002E8490093F1216498006F07B201224A2D2
:10173300900946E0FFFCE41213CCA804A905AA060D
:10174300AB0790093FE0FCA3E0FDA3E0FEA3E0FFAD
:101753001210A9900948121649900943E024FA90FF
:101763000947F0900944E0FEC31325E025E0FF900C
:10177300093DE02FFFA3E0FD900914EEF07B2E124C
:1017830024A2900944E0C313FF90093DE02FF0E445
:10179300900945F0900947E0FF900945E0FEC39F9B
:1017A300400302184412296EE41213C2A804A905C7
:1017B300AA06AB0790093FE0FCA3E0FDA3E0FEA36C
:1017C300E0FF1212A71214007C007D0A1214AE90DF
:1017D3000946EDF090094CE07036900947E014FF9C
:1017E300900945E0FEC39F5027A3E0701D90094474
:1017F300E0FCC3138EF0A4FF90093DE02FFFA3E0AC
:10180300FD900914ECF07B20802B90094C7401F0BF
:10181300900944E0FEC313FFA3E0FDEF8DF0A4FFA6
:1018230090093DE02FFFA3E0FD900946E02430FB43
:10183300900914EEF01224A2900945E004F0021777
:1018430097900944E0C31325E025E0FF90093DE0AC
:101853002FFFC007E4FFFE7D207C41900948E0F89C
:10186300A3E0F9A3E0FAA3E0FB12119E1214007C9B
:10187300007D0A1214AEED2430FB900944E0900978
:1018830014F090093EE0FDD0071224A2900944E031
:10189300C31375F005A4FF90093DE02FFFC007E4D3
:1018A300FFFE7DC87C42900948E0F8A3E0F9A3E07D
:1018B300FAA3E0FB12119E1214007C007D0A12149D
:1018C300AEED2430FB900944E0900914F090093EFA
:1018D300E0FDD0071224A2900944E0C31375F0067B
:1018E300A4FF90093DE02FFFC007E4FFFE7D7A7C53
:1018F30044900948E0F8A3E0F9A3E0FAA3E0FB125F
:10190300119E1214007C007D0A1214AEED2430FBEC
:10191300900944E0900914F090093EE0FDD00712CD
:1019230024A2900944E0C31375F007A4FF90093D76
:10193300E02FFFC0077F007E407D1C7C4690094856
:10194300E0F8A3E0F9A3E0FAA3E0FB12119E12145E
:10195300007C007D0A1214AEED2430FB900944E0B4
:0E196300900914F090093EE0FDD0070224A286
:081B3E0090094DEFF0A3EDF05A
:101B4600A3E0FCA3E0FDA3E0FEA3E0FF12140090D7
:101B56000959EEF0A3EFF0E4900956F0900953E02E
:101B6600FF900956E0FEC39F4003021C0812296E2F
:101B7600A804A905AA06AB07900959E0FEA3E0FF51
:101B8600EE3395E0FDFC121585E47B0AFAF9F812AE
:101B96001585900957EBF0A3E07036900953E014D1
:101BA600FF900956E0FEC39F5027A3E0701D9009E1
:101BB60055E0FCC3138EF0A4FF90094DE02FFFA360
:101BC600E0FD900914ECF07B20802B9009587401FD
:101BD600F0900955E0FEC313FFA3E0FDEF8DF0A4DE
:101BE600FF90094DE02FFFA3E0FD900957E0243058
:101BF600FB900914EEF01224A2900956E004F002BC
:101C06001B62900955E0FEC313FF900953E0FDEFF8
:101C16008DF0A4FF90094DE02FFFA3E0FD9009147D
:101C2600EEF07B2E1224A2900954E0FD7F0A1229C1
:101C360075E41213C2C004C005C006C00790095956
:101C4600E0FCA3E0FDEC1213C7A804A905AA06ABA5
:101C56000790094FE0FCA3E0FDA3E0FEA3E0FF121E
:101C660010A9D003D002D001D00012119E12140088
:101C760090095BEEF0A3EFF0E4900956F09009545A
:101C8600E0F9900956E0FFC3995065C3E99F122910
:101C960071A804A905AA06AB0790095BE0FEA3E0BC
:101CA600FFEE3395E0FDFC121585E47B0AFAF9F8A0
:101CB600121585AF03900957EFF0FE900955E0FC29
:101CC600C313FF900953E0FD900956E02D8FF0A451
:101CD600FF90094DE02F2405FFA3E0FDEE2430FB25
:101CE600900914ECF01224A2900956E004F0808DBD
:011CF60022CB
:0A26F30090096BEFF090096DEBF019
:1026FD00E4900972F0A3F090096EE0FF54077008A2
:10270D00EF131313541F800A90096EE01313135423
:10271D001F04900974F0900974EDF090096EE0FFBC
:10272D00900974E0FDC39F504090096BE0FF122C9F
:10273D008AE0FC90096DE0FFECC39F502490096F77
:10274D00E0FBA3E0FAA3E0F9A3E475F0011214E4B1
:10275D0085F082F583121481FF7D01122DE10C802D
:09276D00D2900974E004F080B27E
:012776002240
:10230400E4FF000FEFB464FAE4FD7FAE122DE1E4C4
:10231400FDFF122DE1E4FD7F10122DE1E4FD7F406D
:10232400122DE1E4FD7FB0122DE1E4FD7F81122D39
:10233400E1E4FD7FFF122DE1E4FD7FA1122DE1E434
:10234400FD7FA6122DE1E4FD7FA8122DE1E4FD7FBF
:102354003F122DE1E4FD7FC8122DE1E4FD7FD3128D
:102364002DE1E4FDFF122DE1E4FD7FD5122DE1E422
:10237400FD7F80122DE1E4FD7FD8122DE1E4FD7F85
:1023840005122DE1E4FD7FD9122DE1E4FD7FF11268
:102394002DE1E4FD7FDA122DE1E4FD7F12122DE13F
:1023A400E4FD7FDB122DE1E4FD7F30122DE1E4FD3D
:1023B4007F8D122DE1E4FD7F14122DE1E4FD7FAF4A
:0C23C400122DE1122C00E4FDFF022C8A17
:102B1800AC05AB07E4FD7F2E122DE1E4FD7F271203
:102B28002DE1E4FDFF122DE1AF03E4FD122DE1E4F8
:102B3800FDFF122DE1AF04E4FD122DE1E4FDFF12CB
:102B48002DE1E4FD7FFF122DE1E4FD7F2F022DE151
:072EF000E4FD7F2E022DE13D
:102BCA00E4FD7F2E122DE1E4FD7F29122DE1E4FDC3
:102BDA00FF122DE1E4FDFF122DE1E4FD7F07122D26
:102BEA00E1E4FD7F07122DE1E4FD7F01122DE1E40E
:062BFA00FD7F2F022DE11A
:102C2C0043091D0101014C092000000000000000B7
:102C3C00000000000041091B0041091C0043091859
:032C4C00FFFFFF88
:0D2E7700741D2FF582E43409F583E0FF227D
:102B9100EF25E025E02420F582E43409F583E0FC0B
:102BA100A3E0FDA3E0FEA3E0FFE47BE87A03F9F8EC
:102BB100C312162550089009017401F08005E490B4
:082BC1000901F0900901E0FF99
:012BC90022E9
:0323D000CBEFCB85
:1023D30090090012165500000000900900121655CE
:1023E300000F4240CFEBCFE4FCFDFE900900E0F884
:1023F300A3E0F9A3E0FAA3E0FB1214FAE47BE87A82
:1024030003F9F8121585900900121649900900E0A6
:10241300F8A3E0F9A3E0FAA3E0FBC3E49BFFE49A8B
:10242300FE740199FDE498FC900900121649900985
:1024330000E0FCA3E0FDA3E0FEA3E02401FFE43EF3
:10244300FEE43DFDE43CFC900900121649900900AE
:10245300E0FCA3E0FDA3E0FEA3E0FF78081216363C
:1024630090091BEFF0FB900900A3A3A3E0FF9009E1
:102473001CF0E58954F14401F5898B8C8F8AC28D58
:04248300D2A9D28C7C
:012487002232
:10207800900918E025E0FFA291E4334FF0A3E02592
:10208800E0FFA294E4334FF0A3E025E0FFA295E43B
:10209800334FF0E4900917F0900917E0FFC3940359
:1020A800400302215274182FF582E43409F583E0C5
:1020B800540F704D900917E0FF241DF582E4340990
:1020C800F583E4F0EFC3940340030221529009170B
:1020D800E025E025E02420F582E43409F583C08377
:1020E800C082E0FCA3E0FDA3E0FEA3E0240AFFE435
:1020F8003EFEE43DFDE43CFCD082D08312164980CC
:1021080040900917E02418F582E43409F583E05477
:102118000FFFBF0F2C900917E0FF241DF582E43450
:1021280009F5837401F0EFC39403501EEF25E025F1
:10213800E02420F582E43409F583121655000000E6
:0A21480000900917E004F00220A047
:01215200226A
:03000B00020026CA
:10002600C0E0C0F0C083C082C0D075D00890091B64
:10003600E0F58CA3E0F58A122078D0D0D082D08368
:05004600D0F0D0E03213
:102D91007FC81223D07D017F031228C47D047F03E5
:102DA1001228C47D057F031228C4D291D294D295F2
:012DB10022FF
:092EB200C296C297C290C2B5227B
:092EBB00C296D297C290D2B52252
:092EC400D296C297D290D2B52239
:092ECD00C296D297D290D2B52230
:092ED600C296C297D290D2B52237
:092EDF00D296D297D290D2B5220E
:102D00007D067F011228C47D077F011228C4E4FDDF
:102D10007F011228C47D057F01122919C296C2972E
:052D2000C290C2B522C3
:042EFD0043C6102296
:080003003098FDC298AF99226C
:082EE8008F993099FDC2992277
:03002300022D2586
:0B2D2500C0E0C083C082C0D075D008A1
:102D300030980EAE99C298AF0E122EE890092CEF83
:012D4000F0A2
:092D4100D0D0D082D083D0E03262
:102E020090092CE0FE543C1313543FB50705EE54D1
:052E120003FF227F0018
:012E17002298
:062EF700E490092CF0221A
:102E570075A15575A1AAE5B954F84404F5B9E4F587
:022E6700A122A6
:0E2E6900EF4E600905A1EF1F70F61E80F322E8
:102E1800EF4E6011E5C330E7FBE5C320E7FBEF1F8A
:062E280070EE1E80EB229B
:102DEB0075A15575A1AAEF600543B101800353B1DD
:072DFB00FEE4F5A1F5FF2243
:032F01008FFF221D
:1028C400EF14601B146029146039240370467401EA
:1028D400A805088002C333D8FCF4529252932274A0
:1028E40001A805088002C333D8FCFFF4529280216A
:1028F4007401A805088002C333D8FCFF4292EFF4A8
:102904005293227401A805088002C333D8FCFF4205
:0529140092EF42932246
:10291900EF14601B14602914603924037046740194
:10292900A805088002C333D8FCF452965297227442
:1029390001A805088002C333D8FCFFF45296802110
:102949007401A805088002C333D8FCFF4296EFF44E
:102959005297227401A805088002C333D8FCFF42AC
:0529690096EF429722E9
:1025CE00C29FD29EC29DC2CDC2CC438780900900CD
:1025DE001216550000061AE47B0AFAF9F890090063
:1025EE00E0FCA3E0FDA3E0FEA3E0FF121585900939
:1025FE0004EBF0900900E0FCA3E0FDA3E0FEA3E0F5
:10260E00FFE47B0AFAF9F8121585900900121649B3
:10261E00900904E0C39405401F900900E0FCA3E07C
:10262E00FDA3E0FEA3E02401FFE43EFEE43DFDE455
:10263E003CFC900900121649E589540F4420F58997
:10264E0043C9A0900900A3A3A3E0F404F58DD28E94
:08265E00D299D29CD299D2ACB2
:012666002251
:102E4300122E577F057E00122E18122D4AD2AF1272
:042E53002C5880FB7C
:0A2EA8003A006B706100202020004A
:082C4F0041097B0041097600F8
:0A2E9D00900975E59FF0D284E0FF74
:012EA7002208
:102A5600E4FB7D017F08122A0D7B017D017F1812A0
:102A66002A0D7B027D017F28122A0D7B037D017FC3
:102A760038122A0D7B047D017F48122A0D7B057DC5
:102A8600017F58122A0D7B067D017F68122A0D02EE
:022A96002C0012
:101CF700900901EFF0E4FBFD7F08122A0D7B01E458
:101D0700FD7F18122A0D7B02E4FD7F28122A0D7B26
:101D170003E4FD7F38122A0D7B04E4FD7F48122A75
:101D27000D7B05E4FD7F58122A0D7B06E4FD7F68D5
:101D3700122A0D900901E024FE7003021DC81470D9
:101D470003021E2824026003021E947B177D047F72
:101D570011122A0D7B0C7D047F21122A0D7BFF7A3D
:101D67002E79A89009077410F07D047F311228643A
:101D7700122E9DEF24BAFFE434FFFE900977F0A3FB
:101D8700EFF0C3EE648094805007E4900977F0A3E6
:101D9700F07BFF7A2E79AA9009077410F07D047FF3
:101DA7005A1228647BFF7A2E79AE9009077410F0D7
:101DB7007D047F41122864900977E0FAA3E0021EB0
:101DC700867B187D047F11122A0D7B0C7D047F21F1
:101DD700122A0D7BFF7A2E79A89009077410F07DDF
:101DE700047F311228647BFF7A2E79AA9009077441
:101DF70010F07D047F5A1228647BFF7A2E79AE900B
:101E070009077410F07D047F41122864122E9DEF9C
:101E170024C9FFE434FFFE900977F0FAA3EFF080BE
:101E27005E7B0F7D047F11122A0D7B107D047F21BD
:101E3700122A0D7BFF7A2E79A89009077410F07D7E
:101E4700047F311228647BFF7A2E79AA90090774E0
:101E570010F07D047F5A1228647BFF7A2E79AE90AA
:101E670009077410F07D047F41122864122E9DEF3C
:101E770024E5FFE434FFFE900977F0FAA3EFF0FBC7
:0E1E87009009067410F07D047F41121E952212
:10215300E4FBFD7F08122A0D7B01E4FD7F18122AA0
:102163000D7B02E4FD7F28122A0D7B03E4FD7F38FB
:10217300122A0D7B04E4FD7F48122A0D7B05E4FD42
:102183007F58122A0D7B06E4FD7F68122A0D900901
:102193007BE014603B04706E7B117D027F2012276D
:1021A300F77B127D027F301227F77B157D027F407C
:1021B3001227F77B167D027F501227F77B137D04CE
:1021C3007F30122A0D7B147D047F40122A0D803646
:1021D3007B117D027F20122A0D7B127D027F30123C
:1021E3002A0D7B157D027F40122A0D7B167D027F0F
:1021F30050122A0D7B137D047F301227F77B147D49
:10220300047F401227F77B097D067F08122A0D7B86
:102213000A7D067F18122A0D7B077D067F58122A36
:0A2223000D7B087D067F68022A0D7E
:10253300E4FBFD7F08122A0D7B01E4FD7F18122ABC
:102543000D7B02E4FD7F28122A0D7B03E4FD7F3817
:10255300122A0D7B04E4FD7F48122A0D7B05E4FD5E
:102563007F58122A0D7B06E4FD7F68122A0D7B112A
:102573007D037F20122A0D7B127D037F30122A0DEB
:102583007B157D037F40122A0D7B167D037F50123E
:102593002A0D7BFF7A2E79A89009077410F07D032A
:1025A3007F60122864900976E0FB7A009009067434
:1025B30010F07D037F68121E957B097D067F08124C
:0B25C3002A0D7B0A7D067F18022A0DFE
:101F8900EF14605D147003022025147003022062AF
:101F99002403600302207790097AE0FF121CF77F7F
:101FA90002122E77EF7009122EC490097A7401F08B
:101FB900E4FF122E77EF7009122ECD90097A740280
:101FC900F07F01122E77EF7009122EB290097A7400
:101FD90003F07F01122B91EF6401600302207780E7
:101FE900711221537F02122E77EF700E90097BE058
:101FF90004F0E0D394024002E4F0E4FF122E77EFFC
:1020090070099009797402F0122C007F01122E7761
:10201900EF705B90097BF0900979803A122533E4DF
:10202900FF122E77EF7006900976E014F07F021206
:102039002E77EF7006900976E004F0900976E0D3E8
:1020490094104002E4F07F01122E77EF702090097E
:102059007BF090097904F08012E4FF122E777F0259
:0F206900122E777F01122E77EF7003122C0022B8
:102D4A00122304122C00122D91122D007F01122D34
:102D5A006E1225CEE4900979F0900976F090097AFE
:042D6A007403F022DC
:102CAE00EF24FE60111460182402701D122EC490C1
:102CBE00097A7401F022122ECD90097A7402F02254
:0A2CCE00122EB290097A7403F0226E
:102C5800E4900900F0900979E0FF121F8990097645
:102C6800E0FF122E02EF6013900976E0FF122E02A9
:0B2C7800900900EFF0122CAE122EF7B6
:012C8300222E
:1010A60002146CE86480F8E933E83360110460F0F8
:1010B600ED33EC337009E8FCE9FDEAFEEBFF2204B0
:1010C60060DED3EB9FEA9EE99DE8C2E78CF0C2F7AB
:1010D60095F0400CE8CCF8E9CDF9EACEFAEBCFFB77
:1010E60012143785D0F05804700320D5B3E8047085
:1010F600075002B2D502147692D5EC0460F7E4CC20
:10110600C0E0C398F8603B94186008400DD0E0FB3F
:1011160002144EE4FBFAC9FC8028E830E406E4C970
:10112600FBE4CAFCE830E305E4C9CACBFCE8540793
:101136006010F8C3E913F9EA13FAEB13FBEC13FC9E
:10114600D8F130F52FC3E49CFCEF9BFFEE9AFEED41
:1011560099FDD0E0FBEF4E4D4C701222DB030214DA
:1011660073EC2CFCEF33FFEE33FEED33FDED30E791
:10117600EB02144EEF2BFFEE3AFEED39FDD0E0FB0D
:1011860050130BBB0003021476ED13FDEE13FEEFB6
:0811960013FFEC13FC02144EE0
:10119E00EC4D6011E8497017ED33EC3304600DE44B
:1011AE00FCFFFEFD22E933E8330470F802146C12E2
:1011BE00143758046009E4CC2481500628500902E3
:1011CE001476284003021473C0E0EB4A7044B980D1
:1011DE0006D0E0FB021462EF4E701CBD8008EBFFE0
:1011EE00EAFEE9FD80EBE98DF0A4FEE5F002128740
:1011FE00E9CDF9EAFEEBFFEF89F0A4FCE5F0CE892C
:10120E00F0A42EFFE435F0CD89F0A42DFEE435F0E8
:10121E008067EF4E7005BD80D780C3EF8BF0A4AC16
:10122E00F0EE8BF0A42CFCE435F0F8EF8AF0A42C51
:10123E00E5F038FCE433CB8DF0A42CFCE5F03BF864
:10124E00EE8AF0A42CFCE5F038F8E433CF89F0A454
:10125E002CFCE5F038CF3400CE89F0A42FFFE5F05A
:10126E003EFEE433C98DF0A42EFEE5F039CD8AF0B2
:10127E00A42FFFE5F03EFEE43DFD33D0E0FB50072A
:10128E000BBB000F021476EC2CFCEF33FFEE33FE9B
:06129E00ED33FD02144EC9
:1012A400021476EC5D046005E85904700302146CC2
:1012B400121437580460F6EC4860F2EC7004FDFE3A
:1012C400FF22C860DB2481C85009C398600250061D
:1012D4000214739850CAF582E9294B4A7005AB820F
:1012E40002146275F0007C1A7880C3EF9BEE9AEDCD
:1012F40099400DC3EF9BFFEE9AFEED99FDE842F095
:10130400DC23ACF0D0E0FFD0E0FED0E0FDAB8220E7
:10131400E7101BEB60BAEC2CFCEF33FFEE33FEED71
:1013240033FD02144EE803F830E705C0F075F00011
:10133400EF2FFFEE33FEED33FD40B830E7C280AA55
:1013440074F8CC6480CCC86480C8F582046043C35C
:10135400EB9FF5F0EA9E42F0E99D42F0E89C45F0EF
:1013640060305018E5825FFFE582F42B5582FB5014
:10137400210ABA001D09B90019088016E5825BFB31
:10138400E582F42F5582FF50090EBE00050DBD0005
:10139400010CC3EB9FF5F0EA9E42F0E99D42F0E8B0
:0D13A4009C45F06007CC4820E701B3EC2227
:1013B100ED33EC33600A047003BD8004ECB2E7FC4A
:0113C1002209
:1013C20075F020800E75F010800575F0087D007EA6
:1013D200007F003392D530D503121617EC3340103C
:1013E200EF33FFEE33FEED33FDEC33FCD5F0ED22AF
:0E13F200E5F0247EA2D513CC92E7CDCEFF22EB
:10140000EDD2E7CD33EC3392D524814006E4FFFEE4
:10141000FDFC22FCE4CFCECDCC24E0501174FF8043
:10142000EDC3CC13CCCD13CDCE13CECF13CF0470E0
:07143000F030D5DE021617B3
:0D2E8400ED33EC3360065004EC6480FC225A
:10143700E9D2E7C933E833F892D5EDD2E7CD33ECFB
:0714470033FC5002B2D52274
:10144E00EC30E7100FBF000C0EBE00080DBD0004FF
:10145E000BEB6014A2D5EB13FCED92E7FD2274FFAB
:10146E00FCFDFEFF22E480F8A2D574FF13FC7D8004
:03147E00E480EF18
:10267300022E43E493A3F8E493A34003F68001F20C
:1026830008DFF48029E493A3F85407240CC8C33368
:10269300C4540F4420C8834004F456800146F6DF37
:1026A300E4800B0102040810204080902C2CE47E6F
:1026B300019360BCA3FF543F30E509541FFEE4932C
:1026C300A360010ECF54C025E060A840B8E493A3F3
:1026D300FAE493A3F8E493A3C8C582C8CAC583CA1E
:1026E300F0A3C8C582C8CAC583CADFE9DEE780BED6
:012C5700007C
:10148100BB010CE58229F582E5833AF583E0225020
:1014910006E92582F8E622BBFE06E92582F8E2226A
:0D14A100E58229F582E5833AF583E4932284
:1014AE00C2D5EC30E709B2D5E4C39DFDE49CFCEE59
:1014BE0030E715B2D5E4C39FFFE49EFE121686C335
:1014CE00E49DFDE49CFC800312168630D507C3E430
:0614DE009FFFE49EFE22C8
:1014E400A3F8E0C5F025F0F0E582158270021583BB
:0614F400E0C838F0E82218
:1014FA00E88FF0A4CC8BF0A42CFCE98EF0A42CFC91
:10150A008AF0EDA42CFCEA8EF0A4CDA8F08BF0A40E
:10151A002DCC3825F0FDE98FF0A42CCD35F0FCEB6D
:10152A008EF0A4FEA9F0EB8FF0A4CFC5F02ECD3932
:0F153A00FEE43CFCEAA42DCE35F0FDE43CFC229F
:1015490075F008758200EF2FFFEE33FECD33CDCC59
:1015590033CCC58233C5829BED9AEC99E5829840DC
:101569000CF582EE9BFEED9AFDEC99FC0FD5F0D6B9
:10157900E4CEFBE4CDFAE4CCF9A88222B800C1B9E3
:101589000059BA002DEC8BF084CFCECDFCE5F0CB21
:10159900F97818EF2FFFEE33FEED33FDEC33FCEB5A
:1015A90033FB10D703994004EB99FB0FD8E5E4F915
:1015B900FA227818EF2FFFEE33FEED33FDEC33FC02
:1015C900C933C910D7059BE99A4007EC9BFCE99AF6
:1015D900F90FD8E0E4C9FAE4CCFB2275F010EF2F3B
:1015E900FFEE33FEED33FDCC33CCC833C810D7073B
:1015F9009BEC9AE899400AED9BFDEC9AFCE899F876
:0E1609000FD5F0DAE4CDFBE4CCFAE4C8F92208
:0E161700C3E49FFFE49EFEE49DFDE49CFC22E4
:10162500EB9FF5F0EA9E42F0E99D42F0E89C45F01B
:011635002292
:10163600E8600FECC313FCED13FDEE13FEEF13FF92
:03164600D8F122B6
:0C164900ECF0A3EDF0A3EEF0A3EFF02214
:10165500A8828583F0D083D08212166C12166C1284
:10166500166C12166CE473E493A3C583C5F0C583A9
:10167500C8C582C8F0A3C583C5F0C583C8C582C8DF
:011685002242
:0C2E9100EE30E707C3E49FFFE49EFE2242
:10168600BC000BBE0029EF8DF084FFADF022E4CC48
:10169600F875F008EF2FFFEE33FEEC33FCEE9DEC11
:1016A600984005FCEE9DFE0FD5F0E9E4CEFD22ED57
:1016B600F8F5F0EE8420D21CFEADF075F008EF2FA1
:1016C600FFED33FD4007985006D5F0F222C398FD92
:0516D6000FD5F0EA222F
:00000001FF
