:03000000022A05CC
:0C2A0500787FE4F6D8FD758117022A4C9A
:10316B00900926EFF07D02E4FF122D16900926E060
:10317B0044FE529A439A08C285D2EB7F03122F9FCB
:03318B00D28422C9
:102F9F00EF7009C281C2805393FD802AEFB40109FB
:102FAF00C281D2805393EF801DEFB40209D281C248
:102FBF00805393DF8010EFB40309D281D2805397EF
:092FCF00FB80037FFF227F00223A
:102DBB00439A04ED64017016EF70028019EFB402B0
:102DCB00028027EFB40304D28180157FFF22ED64CC
:102DDB00037022EF7004C2818012EFB40108C2812C
:102DEB00D280C2838012EFB40208D281C280C28328
:0F2DFB0080067FFF227FFF22C286D2EB7F00225D
:03004B0002311F60
:10311F00C0E0C083C082C0D075D00830850CAF9F8F
:10312F00900981E4F0A3EFF0C285308602C286D009
:08313F00D0D082D083D0E03231
:0A32C500900980E59FF0D284E0FF3D
:0132CF0022DC
:102E0A00900927740AF0E4A3F0A3F0A3F09009272D
:102E1A00E0FF90092AE0C39F501F1232C59009298A
:102E2A00E02FF0900928E03400F07F0A7E00123289
:102E3A002B90092AE004F080D4900927E0FD7C0059
:092E4A00A3E0FEA3E0FF1214AEA8
:012E5300225C
:10004E000000000000000000002F0000000007006C
:10005E00070000147F147F1400242A7F2A120062E6
:10006E006408132300364955225000000503000092
:10007E0000001C224100000041221C000014083E1A
:10008E0008140008083E0808000000A060000008E0
:10009E000808080800006060000000201008040234
:1000AE00003E5149453E0000427F400000426151F2
:1000BE004946002141454B31001814127F1000278C
:1000CE0045454539003C4A4949300001710905034F
:1000DE0000364949493600064949291E0000363680
:1000EE0000000000563600000008142241000014E3
:1000FE0014141414000041221408000201510906C0
:10010E0000324959513E007C1211127C007F494940
:10011E004936003E41414122007F4141221C007F71
:10012E0049494941007F09090901003E4149497A7F
:10013E00007F0808087F0000417F410000204041F9
:10014E003F01007F08142241007F40404040007F65
:10015E00020C027F007F0408107F003E4141413EA9
:10016E00007F09090906003E4151215E007F0919F1
:10017E0029460046494949310001017F0101003FEE
:10018E004040403F001F2040201F003F4038403F6E
:10019E0000631408146300070870080700615149D2
:1001AE00454300007F41410000552A552A55000065
:1001BE0041417F00000402010204004040404040E3
:1001CE00000001020400002054545478007F48447B
:1001DE00443800384444442000384444487F0038B2
:1001EE005454541800087E0901020018A4A4A47CDB
:1001FE00007F080404780000447D400000408084A5
:10020E007D00007F102844000000417F4000007CEC
:10021E0004180478007C08040478003844444438F8
:10022E0000FC242424180018242418FC007C080444
:10023E00040800485454542000043F444020003C1D
:10024E004040207C001C2040201C003C4030403CA4
:10025E00004428102844001CA0A0A07C0044645434
:10026E004C44141414141414000000000000000078
:10027E000000000000000000000000F80000000078
:10028E00000000333000000000100C06100C0600B9
:10029E00000000000000000040C07840C078400020
:1002AE00043F04043F040400007088FC0830000082
:1002BE00001820FF211E0000F008F000E0180000DA
:1002CE0000211C031E211E0000F008887000000093
:1002DE001E2123241927211010160E0000000000E5
:1002EE000000000000000000000000E01804020002
:1002FE00000000071820400000020418E000000073
:10030E000040201807000000404080F08040400070
:10031E000202010F01020200000000F000000000C6
:10032E000101011F0101010000000000000000009A
:10033E0080B070000000000000000000000000000F
:10034E000001010101010101000000000000000098
:10035E000030300000000000000000008060180433
:10036E00006018060100000000E010080810E00010
:10037E00000F102020100F00001010F800000000D9
:10038E000020203F20200000007008080888700020
:10039E0000302824222130000030088888483000A0
:1003AE000018202020110E000000C02010F80000C0
:1003BE0000070424243F240000F808888808080059
:1003CE000019212020110E0000E01088881800006E
:1003DE00000F112020110E0000380808C838080040
:1003EE000000003F000000000070880808887000C0
:1003FE00001C222121221C0000E010080810E00041
:10040E000000312222110F00000000C0C0000000C9
:10041E0000000030300000000000008000000000EE
:10042E0000008060000000000000804020100800E6
:10043E0000010204081020004040404040404000AF
:10044E00040404040404040000081020408000008A
:10045E000020100804020100007048080808F0008F
:10046E000000003036010000C030C828E810E0005F
:10047E000718272423140B000000C038E0000000EA
:10048E00203C23020227382008F888888870000054
:10049E00203F202020110E00C03008080808380028
:1004AE00071820202010080008F808080810E0009F
:1004BE00203F202020100F0008F88888E808100040
:1004CE00203F20202320180008F88888E808100014
:1004DE00203F200003000000C0300808083800004C
:1004EE0007182020221E020008F808000008F8084D
:1004FE00203F210101213F20000808F808080000D4
:10050E000020203F2020000000000808F808080006
:10051E00C08080807F00000008F888C0281808007E
:10052E00203F20012638200008F8080000000000B7
:10053E00203F20202020300008F8F800F8F80800AE
:10054E00203F003F003F200008F830C00008F808A8
:10055E00203F200007183F00E01008080810E000B8
:10056E000F10202020100F0008F808080808F000CF
:10057E00203F210101010000E01008080810E000F2
:10058E000F18242438504F0008F888888888700087
:10059E00203F2000030C3020007088080808380027
:1005AE000038202121221C00180808F8080818001D
:1005BE000000203F2000000008F808000008F8089E
:1005CE00001F202020201F000878880000C838084F
:1005DE00000007380E010000F80800F80008F800C7
:1005EE00033C0700073C0300081868808068180861
:1005FE0020302C03032C30200838C800C8380800DF
:10060E000000203F2000000010080808C83808002D
:10061E002038262120201800000000FE02020200D1
:10062E000000007F40404000000C30C00000000081
:10063E00000000010638C00000020202FE000000A9
:10064E00004040407F00000000000402020204004F
:10065E00000000000000000000000000000000008C
:10066E008080808080808080000202040000000074
:10067E00000000000000000000008080808000006C
:10068E000019242222223F2008F80080800000005A
:10069E00003F112020110E0000000080808000001D
:1006AE00000E112020201100000000808088F8002C
:1006BE00000E112020103F2000008080808000005E
:1006CE00001F222222221300008080F088888818C2
:1006DE000020203F202000000000808080808000CD
:1006EE00006B94949493600008F800808080000062
:1006FE00203F210000203F2000809898000000003D
:10070E000020203F2020000000000080989800006C
:10071E0000C08080807F000008F80000808080008C
:10072E00203F24022D302000000808F800000000B1
:10073E000020203F2020000080808080808080006C
:10074E00203F20003F20003F8080008080800000FE
:10075E00203F210000203F2000008080808000008C
:10076E00001F202020201F008080008080000000BD
:10077E0080FFA12020110E000000008080808000EC
:10078E00000E112020A0FF808080800080808000DD
:10079E0020203F212000010000008080808080000A
:1007AE000033242424241900008080E0808000007F
:1007BE000000001F202000008080000000808000CC
:1007CE00001F202020103F2080808000008080802D
:1007DE0000010E30080601008080008000808080BD
:1007EE000F300C030C300F000080800080808000E2
:1007FE000020312E0E31200080808000008080800D
:10080E0080818E70180601000080808080808000BC
:10081E000021302C2221300000000000807C0202DA
:10082E0000000000003F404000000000FF000000FC
:10083E0000000000FF0000000002027C80000000AB
:10084E000040403F000000000006010102020404C7
:10085E00000000000000000008C8B88FE88888403B
:10086E00300FC8082818000000000000000000002B
:10087E00000000000000000008180808FF04844073
:10088E00300E010E3040800000000000000000001D
:10089E0000000000000000001010D0FF901000FEBD
:1008AE00020202FE00000000000000000000000036
:1008BE000000000000000000040300FF0083601F22
:1008CE000000003F404078000000000000000000E3
:1008DE00000000000000000080809E9292929EE038
:1008EE00809EB2D2929E80000000000000000000A8
:1008FE0000000000000000000808F4949292F1003D
:10090E0001F2929494F8080000000000000000002C
:10091E000000000000000000000000000000C03FCA
:10092E00C0000000000000000000000000000000F9
:10093E000000000000000000804020100C030000AA
:10094E0000030C102040800000000000000000009A
:10095E00000000000000000002FA8282FE8000FE0D
:10096E0002126282621A0200000000000000000003
:10097E00000000000000000008184884443F007F7B
:10098E00504846414658400000000000000000005C
:10099E0000000000000000004044C44444444010E5
:1009AE0010FF101010F0000000000000000000000A
:1009BE000000000000000000103C131014B840307E
:1009CE000E014080403F00000000000000000000CB
:1009DE00000000000000000080809E9292929EE037
:1009EE00809EB2D2929E80000000000000000000A7
:1009FE0000000000000000000808F4949292F1003C
:100A0E0001F2929494F8080000000000000000002B
:100A1E000000000000000000404042CC00504EC8D4
:100A2E00487FC84848400000000000000000000059
:100A3E0000000000000000000040201F20504C432A
:100A4E0040404F50505C400000000000000000008D
:100A5E0000000000000000001010FF100082864A07
:100A6E0052A2524A86808000000000000000000062
:100A7E00000000000000000042827F0100101212F0
:100A8E0012FF121212100000000000000000000001
:100A9E000000000000000000404042CC0000FC249A
:100AAE00A4242222A3620000000000000000000027
:100ABE0000000000000000000040201F205847509A
:100ACE00484542454850400000000000000000002C
:100ADE0000000000000000000000FE0202F21212F0
:100AEE0012F20202FE0000000000000000000000F2
:100AFE00000000000000000000007F2020272424BA
:100B0E00242720207F0000000000000000000000CD
:100B1E00000000000000000020104C4754545454B4
:100B2E00545454D4040400000000000000000000DF
:100B3E0000000000000000000000000000000000A7
:100B4E000000000F3040F000000000000000000028
:100B5E0000000000000000000000FE02828282827F
:100B6E00FA828282828202000000000000000000F1
:100B7E00000000000000000080601F404040404028
:100B8E007F4040445840400000000000000000003C
:100B9E000000000000000000000202C2020202FE7D
:100BAE0082828282820200000000000000000000AB
:100BBE0000000000000000004040407F4040407FA9
:100BCE004040404040404000000000000000000057
:100BDE000000000000000000002010E8242724A4DC
:100BEE0024342CE000000000000000000000000093
:100BFE0000000000000000000080804F4020180719
:100C0E001010204F800000000000000000000000C7
:100C1E00000000000000000000001011161010F07F
:100C2E00101014131000000000000000000000005F
:100C3E0000000000000000008181414121110D03E0
:100C4E000D112141418181000000000000000000D3
:100C5E00000000000000000000F80122202222A265
:100C6E00FA22222202FE0000000000000000000016
:100C7E00000000000000000000FF00080402112028
:100C8E001F000040807F00000000000000000000F8
:100C9E0000000000000000002030AC633000FC2497
:100CAE0025262424243C0000000000000000000043
:100CBE00000000000000000022672212523807FFD9
:100CCE00097F093F89FF00000000000000000000BE
:100CDE000000000000000000808080BEA2A2A2A240
:100CEE00A2A2A2BE808080000000000000000000D2
:100CFE0000000000000000000000000605040404CF
:100D0E004484443C0000000000000000000000008D
:100D1E00000000000000000000001011161010F07E
:100D2E00101014131000000000000000000000005E
:100D3E0000000000000000008181414121110D03DF
:100D4E000D112141418181000000000000000000D2
:100D5E00000000000000000040404242424242FEBD
:100D6E0042424242424040000000000000000000AB
:100D7E000000000000000000000000000040807F26
:100D8E000000000000000000000000000000000055
:100D9E000000000000000000404042CC0040A09E39
:100DAE008282829EA0202000000000000000000031
:100DBE0000000000000000000000003F908840434B
:100DCE002C1028464180800000000000000000002A
:100DDE000000000000000000001715D55557557D86
:100DEE00555755D5151700000000000000000000F3
:100DFE0000000000000000004040407F5555555552
:100E0E005555557F40404000000000000000000096
:100E1E000000000000000000000202C2020202FEFA
:100E2E008282828282020000000000000000000028
:100E3E0000000000000000004040407F4040407F26
:100E4E0040404040404040000000000000000000D4
:100E5E000000000000000000002010E8242724A459
:100E6E0024342CE000000000000000000000000010
:100E7E0000000000000000000080804F4020180796
:100E8E001010204F80000000000000000000000045
:100E9E00000000000000000000000000000000C084
:100EAE00F8BC888080808080000000000000000078
:100EBE000000000000000000808080808080808024
:100ECE0080C0C08000000000000000000000000094
:100EDE00000000000000000000008060305C47430E
:100EEE0044444444444444440000000000000000D4
:100EFE0000000000000000004444444444C4E446A2
:100F0E0004000000000000000000000000000000CF
:100F1E0000000000000000000000000000000000C3
:100F2E0000000000000000000000000000000000B3
:100F3E00000000000000000000000000001FFF8005
:100F4E000000000000000000000000000000000093
:100F5E000000000000000000000000000000000083
:100F6E000000000000000000000000000000000073
:100F7E000000000000000000000000000000030F51
:100F8E001C3830707F4000000000000000000000A0
:100F9E000000000000000000000000000000F0F063
:100FAE0010101010101010100000000000000000B3
:100FBE000000000000000000D090901010101010E3
:100FCE0010181C18100000000000000000000000A7
:100FDE000000000000000000000000000000FFFF05
:100FEE000080808080808080000000000000000073
:100FFE000000000000000000FFFF818080808080E4
:10100E00C0C08000000000000000000000000000D2
:10101E0000000000000000000000000000F0FF01D2
:10102E0000000000000000000000000000000000B2
:10103E000000000000000000FFFF00000008187014
:10104E00E0C00000000000000000000000000000F2
:10105E000000000000000000004020180E131010C9
:10106E0010101010101010100000000000000000F2
:10107E0000000000000000001F1F101010101010C4
:10108E0013131018181000000000000000000000DC
:08109E0000000000000000004A
:10318E00E4FEC2B400EF30E704D2B38002C2B3EF64
:0D319E0025E0FFD2B4000EEEB408E7C2B485
:0131AB002201
:102EDF00AD07D2B3D2B400C2B3007F7812318EC225
:102EEF00B400D2B40000C2B400E4FF12318EC2B4F9
:102EFF0000D2B40000C2B400AF0512318EC2B400CC
:102F0F00D2B40000C2B400C2B3D2B400D2B3002214
:102F1F00AD07D2B3D2B400C2B3007F7812318EC2E4
:102F2F00B400D2B40000C2B4007F4012318EC2B4DC
:102F3F0000D2B40000C2B400AF0512318EC2B4008B
:102F4F00D2B40000C2B400C2B3D2B400D2B30022D4
:1031AC00F583E5822CF582E43583F583E493FF7D8A
:0131BC000111
:0A31BD00ED6003022F1F122EDF2227
:0630CB00A907AA05E4F0CC
:1030D100AC07ED24B0FFE4FD1231BDEC54F0C45453
:1030E1000F4410FFE4FD1231BDEC540F4401FFE425
:0430F100FD0231BDEE
:10000E00E4FD7F8D1231BDE4FD7F141231BDE4FDA0
:05001E007FAF0231BDBF
:10324100E4FD7F8D1231BDE4FD7F101231BDE4FD3F
:053251007FAE0231BD5B
:10307300E4FCEC24B0FFE4FD1231BDE4FDFF1231AA
:10308300BDE4FD7F101231BDE4FB7D01E4FF12318D
:0B309300BD0BEBB480F40CECB408D7CC
:01309E00220F
:102B1500E4FBFAEB24B0FFE4FD1231BDE4FDFF1246
:102B250031BDE4FD7F101231BDE4900983F0A3F0BF
:102B3500EB25E0FDEA33FC900984E0C4F8540FC8A6
:102B450068FF900983E0C454F048FE74002FF582B5
:102B550074003EF583E5822DF582E5833CF583A37C
:102B6500E0FF7D011231BD900984E004F07006900C
:102B75000983E004F0C3900984E09480900983E020
:0F2B8500940040AC0BBB00010AEB64084A70845B
:012B9400221E
:1028C500900969E004A4FF900962E02FFFA3E0FDF1
:0A28D500900968E0900939F07B2EAD
:0628DF00AA07A905AF03E2
:1028E500E4FCEF24E0FBEAD3947F4004E4FA090911
:1028F500900939E064107052AF02AD011230D1E495
:10290500FC75F010EBA42CF582E435F0F583E58237
:102915002476F582E58334021231B60CECB408E175
:10292500AF02E904FD1230D1E4FC75F010EBA42CE4
:10293500F582E435F0F583E582247EF582E583347E
:10294500021231B60CECB408E122AF02AE01AD06BD
:102955001230D1E4FC75F006EBA4244EF582E5F0C7
:0A29650034001231AC0CECB406EBA8
:01296F002245
:072D6B00C3EF9E14FD7F0A77
:082D7200900936EFF0A3EDF02B
:102D7A00A31216AA00000001900937E0FF14F0EF31
:102D8A006020A3E0F8A3E0F9A3E0FAA3E0FB90092E
:102D9A0036E0FFE4FCFDFE12154F90093812169E2C
:102DAA0080D6900938E0FCA3E0FDA3E0FEA3E0FF93
:012DBA0022F6
:1025BC00FFA3E0FD90096CE0FAA3E0900969FBE051
:0C25CC00900931F0900968E0900932F0AD
:0E25D80090092DEFF0A3EDF0A3EAF0A3EBF0D5
:1025E600E4900935F0900933F0900931E0FF900945
:1025F60033E0FEC39F4003022692122D6BA804A966
:1026060005AA06AB0790092FE0FEA3E0FFE4FCFD58
:102616001215DAE47B0AFAF9F81215DA900934EBA6
:10262600F0A3E07036900931E014FF900933E0FE24
:10263600C39F5027A3E0701D900932E0FCC3138EA0
:10264600F0A4FF90092DE02FFFA3E0FD900939ECDF
:10265600F07B20802B9009357401F0900932E0FE62
:10266600C313FFA3E0FDEF8DF0A4FF90092DE02F2B
:10267600FFA3E0FD900934E02430FB900939EEF029
:0C2686001228DF900933E004F00225EF79
:012692002225
:0E230E00900927EFF0A3EDF0A3EAF0A3EBF0A7
:10231C00E490092CF0EB4A601790092CE004F07C57
:10232C00007D0AAF03AE02121503AA06AB0780E5C7
:10233C00900929E0FAA3E0FBD39400EA648094802E
:10234C004019900927E0FFA3E0FD90092CE09009CB
:10235C0031F090092BE09009328071C3900929E08B
:10236C00648094805069900927E0FFA3E0FD9009F8
:10237C002BE0900939F07B2D1228DF900929E0FE23
:10238C00A3E0FF1232B9900929EEF0A3EFF0A3E01D
:10239C00FE900927B41019E02408FFA3E0FDA3E088
:1023AC00FAA3E0FB90092CE0900931F0A3EE801C1D
:1023BC00E02406FFA3E0FDA3E0FAA3E0FB90092CC8
:1023CC00E0900931F090092BE0900932F0802390D5
:1023DC000929E07002A3E0701C900927E0FFA3E03C
:1023EC00FD9009317401F090092BE0900932F0E472
:0523FC00FBFA1225D8D8
:0124010022B8
:081D1700900962EFF0A3EDF06A
:101D1F00E4900969F0A3F0A3F0A3F0A3F0A3F0A35C
:101D2F00F0FFFEFDFC900964E0F8A3E0F9A3E0FAF0
:101D3F00A3E0FB121344600A400890096B7401F092
:101D4F00801CE490096BF0900964E0FCA3E0FDA314
:101D5F00E0FEA3E0FF1213B190096412169E9009E2
:101D6F0064E0FCA3E0FDA3E0FEA3E0FF12140090EB
:101D7F00096CEEF0A3EFF0FDAC06EC1213C7A8044C
:101D8F00A905AA06AB07900964E0FCA3E0FDA3E058
:101D9F00FEA3E0FF1210A9E4FBFA79C878421211F2
:101DAF009E12140090096EEEF0A3EFF090096CE014
:101DBF007002A3E0602290096CE0FEA3E0FF4E608A
:101DCF001D900969E004F07C007D0A12150390094B
:101DDF006CEEF0A3EFF080DE9009697401F09009CA
:101DEF006A7402F0900964E0FCA3E0FDA3E0FEA397
:101DFF00E0FF12140090096CEEF0A3EFF090096B66
:101E0F00E06055900968E0FE64109009627030E060
:101E1F00FFA3E0FD90096CE0FAA3E0FB900969E0F5
:101E2F00900931F0A3EEF01225D8900969E075F012
:101E3F00081228CA900969E00475F008021ECBE069
:101E4F001225BC900969E075F0061228CA9009693D
:101E5F00E00475F006021ECB900962E0FFA3E0FDDF
:101E6F00900968E0900939F07B2D1228DF900968FE
:101E7F00E0FE6410900962702EE02408FFA3E0FDDD
:101E8F0090096CE0FAA3E0FB900969E0900931F04A
:101E9F00A3EEF01225D875F0081228C5900969E055
:101EAF00240275F0088015E024061225BC75F00693
:101EBF001228C5900969E0240275F006A4FF900965
:101ECF0062E02FFFA3E0FD90096EE0FAA3E0900916
:041EDF006A1225CA94
:011EE30022DC
:102C0200900927EFF0A3EDF0A3EBF0A3EAF0A3E91C
:012C1200F0D1
:102C1300E490092DF0900929E0FBA3E0FAA3E0F981
:102C230090092DE0F582758300121481FB602F90CB
:102C33000927E0FFA3E0FD90092CE0900939F01289
:102C430028DF900927E02408F0E0D394804007E4CC
:0E2C5300F0A3E02402F090092DE004F080B719
:012C61002250
:102B95009009261230CBE4FC75F040EBA42466F5D1
:102BA50082E5F03408F583E5822CF582E43583F57A
:102BB50083E493F4FF7D011231BD900926E004F012
:102BC5000CECB410D3AF01EA04FD1230D1E4FC756E
:102BD500F040EBA42486F582E5F03408F583E58220
:102BE5002CF582E43583F583E493F4FF7D011231FE
:0C2BF500BD900926E004F00CECB410D3F5
:012C010022B0
:102E54009009271230CBE4FC75F040EBA42466F50E
:102E640082E5F034081231AC900927E004F00CEC50
:102E7400B410E5AF01EA04FD1230D1E4FC75F04072
:102E8400EBA42486F582E5F034081231AC900927CE
:082E9400E004F00CECB410E5C1
:012E9C002213
:081A8100900942EFF0A3EDF023
:101A8900E4900951F0FFFEFDFC900944E0F8A3E061
:101A9900F9A3E0FAA3E0FB121344900942E0FFA383
:101AA900E0FD900949E0900939501FF07B2D12287B
:101AB900DF900944E0FCA3E0FDA3E0FEA3E0FF12F0
:101AC90032AC90094412169E8006F07B201228DF62
:101AD90090094BE0FFFCE41213CCA804A905AA065F
:101AE900AB07900944E0FCA3E0FDA3E0FEA3E0FFFF
:101AF9001210A990094D12169E900948E024FA90F7
:101B0900094CF0900949E0FEC31325E025E0FF9058
:101B19000942E02FFFA3E0FD900939EEF07B2E1278
:101B290028DF900949E0C313FF900942E02FF0E450
:101B390090094AF090094CE0FF90094AE0FEC39FE2
:101B49004003021BEA122D6BE41213C2A804A90573
:101B5900AA06AB07900944E0FCA3E0FDA3E0FEA3BD
:101B6900E0FF1212A71214007C007D0A12150390DF
:101B7900094BEDF0900951E0703690094CE014FFE3
:101B890090094AE0FEC39F5027A3E0701D900949C0
:101B9900E0FCC3138EF0A4FF900942E02FFFA3E0FD
:101BA900FD900939ECF07B20802B9009517401F0EC
:101BB900900949E0FEC313FFA3E0FDEF8DF0A4FFF8
:101BC900900942E02FFFA3E0FD90094BE02430FB90
:101BD900900939EEF01228DF90094AE004F0021B5F
:101BE9003D900949E0C31325E025E0FF900942E053
:101BF9002FFFC007E4FFFE7D207C4190094DE0F8EE
:101C0900A3E0F9A3E0FAA3E0FB12119E1214007CF1
:101C1900007D0A121503ED2430FB900949E0900973
:101C290039F0900943E0FDD0071228DF900949E017
:101C3900C31375F005A4FF900942E02FFFC007E424
:101C4900FFFE7DC87C4290094DE0F8A3E0F9A3E0CE
:101C5900FAA3E0FB12119E1214007C007D0A1215F2
:101C690003ED2430FB900949E0900939F0900943CC
:101C7900E0FDD0071228DF900949E0C31375F0068B
:101C8900A4FF900942E02FFFC007E4FFFE7D7A7CA4
:101C99004490094DE0F8A3E0F9A3E0FAA3E0FB12B0
:101CA900119E1214007C007D0A121503ED2430FBED
:101CB900900949E0900939F0900943E0FDD00712F5
:101CC90028DF900949E0C31375F007A4FF90094282
:101CD900E02FFFC0077F007E407D1C7C4690094DA8
:101CE900E0F8A3E0F9A3E0FAA3E0FB12119E1214B5
:101CF900007C007D0A121503ED2430FB900949E0B0
:0E1D0900900939F0900943E0FDD0070228DF71
:081EE400900952EFF0A3EDF0AC
:101EEC00A3E0FCA3E0FDA3E0FEA3E0FF121400902E
:101EFC00095EEEF0A3EFF0E490095BF0900958E076
:101F0C00FF90095BE0FEC39F4003021FAE122D6BD6
:101F1C00A804A905AA06AB0790095EE0FEA3E0FFA2
:101F2C00EE3395E0FDFC1215DAE47B0AFAF9F812AF
:101F3C0015DA90095CEBF0A3E07036900958E014C8
:101F4C00FF90095BE0FEC39F5027A3E0701D900932
:101F5C005AE0FCC3138EF0A4FF900952E02FFFA3AC
:101F6C00E0FD900939ECF07B20802B90095D740129
:101F7C00F090095AE0FEC313FFA3E0FDEF8DF0A42F
:101F8C00FF900952E02FFFA3E0FD90095CE02430A4
:101F9C00FB900939EEF01228DF90095BE004F002A7
:101FAC001F0890095AE0FEC313FF900958E0FDEF9B
:101FBC008DF0A4FF900952E02FFFA3E0FD900939AA
:101FCC00EEF07B2E1228DF900959E0FD7F0A122DCE
:101FDC0072E41213C2C004C005C006C00790095EAB
:101FEC00E0FCA3E0FDEC1213C7A804A905AA06ABFC
:101FFC0007900954E0FCA3E0FDA3E0FEA3E0FF1270
:10200C0010A9D003D002D001D00012119E121400DE
:10201C00900960EEF0A3EFF0E490095BF0900959A1
:10202C00E0F990095BE0FFC3995065C3E99F122D5D
:10203C006EA804A905AA06AB07900960E0FEA3E010
:10204C00FFEE3395E0FDFC1215DAE47B0AFAF9F8A1
:10205C001215DAAF0390095CEFF0FE90095AE0FC20
:10206C00C313FF900958E0FD90095BE02D8FF0A49D
:10207C00FF900952E02F2405FFA3E0FDEE2430FB76
:10208C00900939ECF01228DF90095BE004F0808DA8
:01209C002221
:0A2A9100900970EFF0900972EBF06D
:102A9B00E4900977F0A3F0900973E0FF54077008F6
:102AAB00EF131313541F800A900973E0131313547D
:102ABB001F04900979F0900979EDF0900973E0FF0C
:102ACB00900979E0FDC39F5040900970E0FF1230F0
:102ADB00D1E0FC900972E0FFECC39F502490097485
:102AEB00E0FBA3E0FAA3E0F9A3E475F001121539BA
:102AFB0085F082F583121481FF7D011231BD0C80AC
:092B0B00D2900979E004F080B2D7
:012B1400229E
:10269300E4FF000FEFB464FAE4FD7FAE1231BDE452
:1026A300FDFF1231BDE4FD7F101231BDE4FD7F401B
:1026B3001231BDE4FD7FB01231BDE4FD7F811231E3
:1026C300BDE4FD7FFF1231BDE4FD7FA11231BDE406
:1026D300FD7FA61231BDE4FD7FA81231BDE4FD7F6D
:1026E3003F1231BDE4FD7FC81231BDE4FD7FD3123B
:1026F30031BDE4FDFF1231BDE4FD7FD51231BDE4F0
:10270300FD7F801231BDE4FD7FD81231BDE4FD7F32
:10271300051231BDE4FD7FD91231BDE4FD7FF11215
:1027230031BDE4FD7FDA1231BDE4FD7F121231BD0C
:10273300E4FD7FDB1231BDE4FD7F301231BDE4FDEA
:102743007F8D1231BDE4FD7F141231BDE4FD7FAFF7
:0C2753001231BD123073E4FDFF0230D1E2
:102F5F00AC05AB07E4FD7F2E1231BDE4FD7F2712D8
:102F6F0031BDE4FDFF1231BDAF03E4FD1231BDE40D
:102F7F00FDFF1231BDAF04E4FD1231BDE4FDFF12C0
:102F8F0031BDE4FD7FFF1231BDE4FD7F2F0231BD66
:07331B00E4FD7F2E0231BD2D
:102FD800E4FD7F2E1231BDE4FD7F291231BDE4FDF1
:102FE800FF1231BDE4FDFF1231BDE4FD7F07123150
:102FF800BDE4FD7F071231BDE4FD7F011231BDE460
:06300800FD7F2F0231BD27
:10309F004309050101014C09080000000000000070
:1030AF00000000000041090300410904004309002A
:0330BF00FFFFFF11
:10300E0074052FF582E43409F583E0600E74052F04
:10301E00F582E43409F583E4F0800D74052FF58212
:10302E00E43409F5837401F074052FF582E4340954
:05303E00F583E0FF2214
:03275F00CBEFCBF2
:102762009009261216AA000000009009261216AA45
:10277200000F4240CFEBCFE4FCFDFE900926E0F8CB
:10278200A3E0F9A3E0FAA3E0FB12154FE47BE87A99
:1027920003F9F81215DA90092612169E900926E01E
:1027A200F8A3E0F9A3E0FAA3E0FBC3E49BFFE49AF9
:1027B200FE740199FDE498FC90092612169E900978
:1027C20026E0FCA3E0FDA3E0FEA3E02401FFE43E3B
:1027D200FEE43DFDE43CFC90092612169E9009267B
:1027E200E0FCA3E0FDA3E0FEA3E0FF780812168B55
:1027F200900903EFF0FB900926A3A3A3E0FF900941
:1028020004F0E58954F14401F5898B8C8F8AC28DDD
:04281200D2A9D28CE9
:01281600229F
:10240200E490093CF0900900E025E0FFA291E4335A
:102412004FF0A3E025E0FFA294E4334FF0A3E025C0
:10242200E0FFA295E4334FF0E490093CF090093CC0
:10243200E0FFC3940340030224E174002FF582E419
:102442003409F583E0540F704D90093CE0FF2405F8
:10245200F582E43409F583E4F0EFC3940340030208
:1024620024E190093CE025E025E02408F582E434EB
:1024720009F583C083C082E0FCA3E0FDA3E0FEA3D4
:10248200E0240AFFE43EFEE43DFDE43CFCD082D0C1
:102492008312169E804090093CE02400F582E434C9
:1024A20009F583E0540FFFBF0F2C90093CE0FF2495
:1024B20005F582E43409F5837401F0EFC394035007
:1024C2001EEF25E025E02408F582E43409F58312A5
:0F24D20016AA0000000090093CE004F002242F3D
:0124E10022D8
:0616E70090093C12169E62
:1016ED00E4900940F0A3F0900940F0A3F090094078
:1016FD00E0FEA3E0FFC39403EE64809480400302F8
:10170D001A8012300E900940E0FCA3E0FD90091400
:10171D0075F0061216DBEC75F006A42583F583EF44
:10172D00F090091575F006ED1216DBEC75F006A4B8
:10173D002583F583E0B408004003021A6F9017511A
:10174D00F82828730217690217A102187402195696
:10175D000219AB0219EF0219F10219EF9009147574
:10176D00F006ED1216DBEC75F006A42583F583E08B
:10177D007003021A6F900940E0FEA3E0FF90091577
:10178D0075F0061216DBEE75F006A42583F583744D
:10179D000102194C900940E0FEA3E0FF9009147579
:1017AD00F0061216DBEE75F006A42583F583E070C6
:1017BD000302185690091675F006EF1216DBEE753A
:1017CD00F006A42583F583C083C082E0FCA3E0FD71
:1017DD00A3E0FEA3E0FF90093CE0F8A3E0F9A3E04D
:1017ED00FAA3E0FBEF2BFFEE3AFEED39FDEC38FCF2
:1017FD00D082D08312169E900940E0FEA3E090099E
:10180D001675F0061216DBEE75F006A42583F5832A
:10181D00E0FCA3E0FDA3E0FEA3E0FFE47B14FAF9F6
:10182D00F8C312167A4003021A6F900940E0FEA326
:10183D00E0FF90091575F0061216DBEE75F006A4A3
:10184D002583F583740402194C900940E0FEA3E052
:10185D00FF90091575F0061216DBEE75F006A4253E
:10186D0083F583E402194C900940E0FEA3E0FF905C
:10187D00091475F0061216DBEE75F006A42583F536
:10188D0083E0700302193090091675F006EF1216F9
:10189D00DBEE75F006A42583F583C083C082E0FCE2
:1018AD00A3E0FDA3E0FEA3E0FF90093CE0F8A3E078
:1018BD00F9A3E0FAA3E0FBEF2BFFEE3AFEED39FDC5
:1018CD00EC38FCD082D08312169E900940E0FEA326
:1018DD00E090091675F0061216DBEE75F006A425DC
:1018ED0083F583E0FCA3E0FDA3E0FEA3E0FFE47B32
:1018FD00E87A03F9F8C312167A4003021A6F9009B9
:10190D0040E0FEA3E0FF90091575F0061216DBEE20
:10191D0075F006A42583F5837406F0900916F5F08D
:10192D00021A31900940E0FEA3E0FF90091575F011
:10193D00061216DBEE75F006A42583F5837405F00B
:10194D0090091675F006021A31900940E0FEA3E0E9
:10195D00FF90091475F0061216DBEE75F006A4253E
:10196D0083F583E0601990091575F006EF1216DB0B
:10197D00EE75F006A42583F5837403F0021A6F90BB
:10198D000940E0FEA3E090091575F0061216DBEE96
:10199D0075F006A42583F5837407F0021A6F90097C
:1019AD0040E0FAA3E0FB90091475F0061216DBEA8D
:1019BD0075F006A42583F583E06025900940E0FECF
:1019CD00A3E0FF90091575F0061216DBEE75F00613
:1019DD00A42583F5837402F090091675F0068044F2
:1019ED0080588063900940E0FAA3E0FB90091475DC
:1019FD00F0061216DBEA75F006A42583F583E06088
:101A0D0039900940E0FEA3E0FF90091575F006122C
:101A1D0016DBEE75F006A42583F5837403F09009AB
:101A2D001675F006EF1216DBEE75F006A42583F59C
:101A3D00831216AA00000000802890091575F00683
:101A4D00EB1216DBEA8011900940E0FEA3E090094D
:101A5D001575F0061216DBEE75F006A42583F583D9
:101A6D00E4F0900941E004F07006900940E004F0C4
:031A7D000216FA54
:011A80002243
:03000B000230437D
:10304300C0E0C0F0C083C082C0D075D01090090327
:10305300E0F58CA3E0F58A1224027F147E007D0044
:103063007C001216E7D0D0D082D083D0F0D0E032EB
:102C6200E4FB7F1412275F7D017F01122CC17D04DA
:102C72007F01122CC17D057F01122CC1D291D29409
:102C8200D295E4FBEB75F006A42414F582E4340932
:102C9200F583E4F0EB75F006A42415F582E434091B
:102CA200F583E4F0EB75F006A42416F582E434090A
:0E2CB200F5831216AA000000000BEBB403C657
:012CC00022F1
:1031E200EFC394035011EF75F006A42415F582E4A1
:0A31F2003409F583E0FF227F00227C
:0932E500C296C297C290C2B52244
:0932EE00C296D297C290D2B5221B
:0932F700D296C297D290D2B52202
:09330000C296D297D290D2B522F8
:09330900C296C297D290D2B522FF
:09331200D296D297D290D2B522D6
:100026007D067F01122CC17D077F01122CC1E4FDE4
:100036007F01122CC17D057F01122D16C296C29733
:05004600C290C2B522CA
:0433280043C6102266
:0F328F00309809900985E599F0E0FF227F002231
:080003003099048F99C2992283
:030023000231FCAB
:1031FC00C0E0C083C082309808900985E599F0C280
:08320C0098D082D083D0E0329B
:1031C700C298900985E599F0E0FE543C1313543FEB
:0A31D700B50705EE5403FF227F0048
:0131E10022CB
:06332200E4900985F02291
:10327D0075A15575A1AAE5B954F84404F5B9E4F55D
:02328D00A1227C
:0E329E00EF4E600905A1EF1F70F61E80F322AF
:10322B00EF4E6011E5C330E7FBE5C320E7FBEF1F73
:06323B0070EE1E80EB2284
:1032140075A15575A1AAEF600543B101800353B1AF
:07322400FEE4F5A1F5FF2215
:03332C008FFF22EE
:102CC100EF14601B146029146039240370467401E9
:102CD100A805088002C333D8FCF45292529322749F
:102CE10001A805088002C333D8FCFFF45292802169
:102CF1007401A805088002C333D8FCFF4292EFF4A7
:102D01005293227401A805088002C333D8FCFF4204
:052D110092EF42932245
:102D1600EF14601B14602914603924037046740193
:102D2600A805088002C333D8FCF452965297227441
:102D360001A805088002C333D8FCFFF4529680210F
:102D46007401A805088002C333D8FCFF4296EFF44D
:102D56005297227401A805088002C333D8FCFF42AB
:052D660096EF429722E8
:10297000C29FD29EC29DC2CDC2CC43878090092601
:102980001216AA0000061AE47B0AFAF9F890092642
:10299000E0FCA3E0FDA3E0FEA3E0FF1215DA90093E
:1029A0002AEBF0900926E0FCA3E0FDA3E0FEA3E003
:1029B000FFE47B0AFAF9F81215DA90092612169E3E
:1029C00090092AE0C39405401F900926E0FCA3E08B
:1029D000FDA3E0FEA3E02401FFE43EFEE43DFDE4B0
:1029E0003CFC90092612169EE589540F4420F58977
:1029F00043C9A0900926A3A3A3E0F404F58DD28EC9
:042A0000D299D29CF9
:012A040022AF
:1032560012327D7F057E0012322B123147D2AF1219
:0432660032D080FBE7
:0A32DB003A006B7061002020200013
:0830C20041097F0041097A0079
:102E9D00E4FB7D017F08122E547B017D017F18120A
:102EAD002E547B027D017F28122E547B037D017FE2
:102EBD0038122E547B047D017F48122E547B057DE4
:102ECD00017F58122E547B067D017F68122E54020D
:022EDD00307350
:10209D00900926EFF0E4FBFD7F08122E547B01E43E
:1020AD00FD7F18122E547B02E4FD7F28122E547BE7
:1020BD0003E4FD7F38122E547B04E4FD7F48122E7D
:1020CD00547B05E4FD7F58122E547B06E4FD7F689A
:1020DD00122E54900926E024FE6064147003022130
:1020ED0093240260030222137B177D047F11122EAD
:1020FD00547B0C7D047F21122E547BFF7A3279DBC9
:10210D0090092C7410F07D047F31122C02122E0ACE
:10211D00AC06AD07E41213C7E4FBFA79FB78C212E3
:10212D0010AD12140090097BEEF0A3EFF0C3EE6436
:10213D00809480504FE490097BF0A3F00221D87B6E
:10214D00187D047F11122E547B0C7D047F21122EDD
:10215D00547BFF7A3279DB90092C7410F07D047F6B
:10216D0031122C02122E0AAC06AD07E41213C7E48D
:10217D00FBFA79FB78C21210AD12140090097BEEB8
:10218D00F0A3EFF080457B0F7D047F11122E547B61
:10219D00107D047F21122E547BFF7A3279DB90095A
:1021AD002C7410F07D047F31122C02122E0AAC0615
:1021BD00AD07E41213C7E4FBFA79FB78C21210AD38
:1021CD0012140090097BEEF0A3EFF07BFF7A3279C9
:1021DD00DD90092C7410F07D047F5A122C027BFFC8
:1021ED007A3279E190092C7410F07D047F41122C24
:1021FD000290097BE0FAA3E0FB90092B7410F07DAF
:07220D00047F4112230E22A1
:1024E200E4FBFD7F08122E547B01E4FD7F18122EBF
:1024F200547B02E4FD7F28122E547B03E4FD7F38D7
:10250200122E547B04E4FD7F48122E547B05E4FD19
:102512007F58122E547B06E4FD7F68122E549009D8
:102522007FE014603B04706E7B117D027F20122BD2
:10253200957B127D027F30122B957B157D027F40A9
:10254200122B957B167D027F50122B957B137D04F7
:102552007F30122E547B147D047F40122E5480361D
:102562007B117D027F20122E547B127D027F30125E
:102572002E547B157D027F40122E547B167D027FE6
:1025820050122E547B137D047F30122B957B147DC9
:10259200047F40122B957B097D067F08122E547B07
:1025A2000A7D067F18122E547B077D067F58122E55
:0A25B200547B087D067F68022E545A
:10281700E4FBFD7F08122E547B01E4FD7F18122E86
:10282700547B02E4FD7F28122E547B03E4FD7F389E
:10283700122E547B04E4FD7F48122E547B05E4FDE1
:102847007F58122E547B06E4FD7F68122E547B11AD
:102857007D037F20122E547B127D037F30122E546E
:102867007B157D037F40122E547B167D037F50120C
:102877002E547BFF7A3279DB90092C7410F07D039C
:102887007F60122C027BFF7A3279E190092C741059
:10289700F07D037F68122C0290097AE0FB7A0090A2
:1028A700092B7410F07D037F6812230E7B097D06C8
:0E28B7007F08122E547B0A7D067F18022E54D5
:10221400EF14605D1470030222B21470030222F8FA
:102224002403600302230D90097EE0FF12209D7FAA
:10223400011231E2BF02091232F790097E7401F0F3
:102244007F021231E2BF020912330090097E740248
:10225400F0E4FF1231E2BF02091232E590097E7404
:1022640003F0E4FF1231E2EF6403600302230D8004
:102274007C1224E27F021231E2BF020E90097FE059
:1022840004F0E0D394024002E4F0E4FF1231E2BF30
:10229400020990097D7402F01230737F011231E259
:1022A400EF6402706490097FF090097D80431228E6
:1022B40017E4FF1231E2BF020E90097AE014F0E055
:1022C400C394005002E4F07F021231E2BF02069090
:1022D400097AE004F090097AE0D394104002E4F023
:1022E4007F011231E2BF0221E490097FF090097D61
:1022F40004F08012E4FF1231E27F021231E27F0126
:0A2304001231E2BF0203123073220F
:10314700122693123073122C621200267F0112315D
:103157006B122970E490097DF090097AF090097E4E
:043167007403F022DB
:1030F500EF24FE60111460182402701D1232F7903F
:10310500097E7401F02212330090097E7402F022C8
:0A3115001232E590097E7403F022E7
:10326A00E4FF30980B90097AE0FF1231C71230F56B
:03327A00023322FA
:0B32D00090097DE0FF12221402326A18
:1010A60002146CE86480F8E933E83360110460F0F8
:1010B600ED33EC337009E8FCE9FDEAFEEBFF2204B0
:1010C60060DED3EB9FEA9EE99DE8C2E78CF0C2F7AB
:1010D60095F0400CE8CCF8E9CDF9EACEFAEBCFFB77
:1010E60012143785D0F05804700320D5B3E8047085
:1010F600075002B2D502147692D5EC0460F7E4CC20
:10110600C0E0C398F8603B94186008400DD0E0FB3F
:1011160002144EE4FBFAC9FC8028E830E406E4C970
:10112600FBE4CAFCE830E305E4C9CACBFCE8540793
:101136006010F8C3E913F9EA13FAEB13FBEC13FC9E
:10114600D8F130F52FC3E49CFCEF9BFFEE9AFEED41
:1011560099FDD0E0FBEF4E4D4C701222DB030214DA
:1011660073EC2CFCEF33FFEE33FEED33FDED30E791
:10117600EB02144EEF2BFFEE3AFEED39FDD0E0FB0D
:1011860050130BBB0003021476ED13FDEE13FEEFB6
:0811960013FFEC13FC02144EE0
:10119E00EC4D6011E8497017ED33EC3304600DE44B
:1011AE00FCFFFEFD22E933E8330470F802146C12E2
:1011BE00143758046009E4CC2481500628500902E3
:1011CE001476284003021473C0E0EB4A7044B980D1
:1011DE0006D0E0FB021462EF4E701CBD8008EBFFE0
:1011EE00EAFEE9FD80EBE98DF0A4FEE5F002128740
:1011FE00E9CDF9EAFEEBFFEF89F0A4FCE5F0CE892C
:10120E00F0A42EFFE435F0CD89F0A42DFEE435F0E8
:10121E008067EF4E7005BD80D780C3EF8BF0A4AC16
:10122E00F0EE8BF0A42CFCE435F0F8EF8AF0A42C51
:10123E00E5F038FCE433CB8DF0A42CFCE5F03BF864
:10124E00EE8AF0A42CFCE5F038F8E433CF89F0A454
:10125E002CFCE5F038CF3400CE89F0A42FFFE5F05A
:10126E003EFEE433C98DF0A42EFEE5F039CD8AF0B2
:10127E00A42FFFE5F03EFEE43DFD33D0E0FB50072A
:10128E000BBB000F021476EC2CFCEF33FFEE33FE9B
:06129E00ED33FD02144EC9
:1012A400021476EC5D046005E85904700302146CC2
:1012B400121437580460F6EC4860F2EC7004FDFE3A
:1012C400FF22C860DB2481C85009C398600250061D
:1012D4000214739850CAF582E9294B4A7005AB820F
:1012E40002146275F0007C1A7880C3EF9BEE9AEDCD
:1012F40099400DC3EF9BFFEE9AFEED99FDE842F095
:10130400DC23ACF0D0E0FFD0E0FED0E0FDAB8220E7
:10131400E7101BEB60BAEC2CFCEF33FFEE33FEED71
:1013240033FD02144EE803F830E705C0F075F00011
:10133400EF2FFFEE33FEED33FD40B830E7C280AA55
:1013440074F8CC6480CCC86480C8F582046043C35C
:10135400EB9FF5F0EA9E42F0E99D42F0E89C45F0EF
:1013640060305018E5825FFFE582F42B5582FB5014
:10137400210ABA001D09B90019088016E5825BFB31
:10138400E582F42F5582FF50090EBE00050DBD0005
:10139400010CC3EB9FF5F0EA9E42F0E99D42F0E8B0
:0D13A4009C45F06007CC4820E701B3EC2227
:1013B100ED33EC33600A047003BD8004ECB2E7FC4A
:0113C1002209
:1013C20075F020800E75F010800575F0087D007EA6
:1013D200007F003392D530D50312166CEC334010E7
:1013E200EF33FFEE33FEED33FDEC33FCD5F0ED22AF
:0E13F200E5F0247EA2D513CC92E7CDCEFF22EB
:10140000EDD2E7CD33EC3392D524814006E4FFFEE4
:10141000FDFC22FCE4CFCECDCC24E0501174FF8043
:10142000EDC3CC13CCCD13CDCE13CECF13CF0470E0
:07143000F030D5DE02166C5E
:0D32AC00ED33EC3360065004EC6480FC222E
:10143700E9D2E7C933E833F892D5EDD2E7CD33ECFB
:0714470033FC5002B2D52274
:10144E00EC30E7100FBF000C0EBE00080DBD0004FF
:10145E000BEB6014A2D5EB13FCED92E7FD2274FFAB
:10146E00FCFDFEFF22E480F8A2D574FF13FC7D8004
:03147E00E480EF18
:102A1100023256E493A3F8E493A34003F68001F253
:102A210008DFF48029E493A3F85407240CC8C333C6
:102A3100C4540F4420C8834004F456800146F6DF95
:102A4100E4800B010204081020408090309FE47E56
:102A5100019360BCA3FF543F30E509541FFEE4938A
:102A6100A360010ECF54C025E060A840B8E493A351
:102A7100FAE493A3F8E493A3C8C582C8CAC583CA7C
:102A8100F0A3C8C582C8CAC583CADFE9DEE780BE34
:0130CA000005
:10148100BB010CE58229F582E5833AF583E0225020
:1014910006E92582F8E622BBFE06E92582F8E2226A
:0D14A100E58229F582E5833AF583E4932284
:1014AE00BC000BBE0029EF8DF084FFADF022E4CC22
:1014BE00F875F008EF2FFFEE33FEEC33FCEE9DECEB
:1014CE00984005FCEE9DFE0FD5F0E9E4CEFD22ED31
:1014DE00F8F5F0EE8420D21CFEADF075F008EF2F7B
:1014EE00FFED33FD4007985006D5F0F222C398FD6C
:0514FE000FD5F0EA2209
:10150300C2D5EC30E709B2D5E4C39DFDE49CFCEE03
:1015130030E715B2D5E4C39FFFE49EFE1214AEC3B9
:10152300E49DFDE49CFC80031214AE30D507C3E4B4
:061533009FFFE49EFE2272
:10153900A3F8E0C5F025F0F0E58215827002158365
:06154900E0C838F0E822C2
:10154F00E88FF0A4CC8BF0A42CFCE98EF0A42CFC3B
:10155F008AF0EDA42CFCEA8EF0A4CDA8F08BF0A4B9
:10156F002DCC3825F0FDE98FF0A42CCD35F0FCEB18
:10157F008EF0A4FEA9F0EB8FF0A4CFC5F02ECD39DD
:0F158F00FEE43CFCEAA42DCE35F0FDE43CFC224A
:10159E0075F008758200EF2FFFEE33FECD33CDCC04
:1015AE0033CCC58233C5829BED9AEC99E582984087
:1015BE000CF582EE9BFEED9AFDEC99FC0FD5F0D664
:1015CE00E4CEFBE4CDFAE4CCF9A88222B800C1B98E
:1015DE000059BA002DEC8BF084CFCECDFCE5F0CBCC
:1015EE00F97818EF2FFFEE33FEED33FDEC33FCEB05
:1015FE0033FB10D703994004EB99FB0FD8E5E4F9C0
:10160E00FA227818EF2FFFEE33FEED33FDEC33FCAC
:10161E00C933C910D7059BE99A4007EC9BFCE99AA0
:10162E00F90FD8E0E4C9FAE4CCFB2275F010EF2FE5
:10163E00FFEE33FEED33FDCC33CCC833C810D707E5
:10164E009BEC9AE899400AED9BFDEC9AFCE899F820
:0E165E000FD5F0DAE4CDFBE4CCFAE4C8F922B3
:0E166C00C3E49FFFE49EFEE49DFDE49CFC228F
:10167A00EB9FF5F0EA9E42F0E99D42F0E89C45F0C6
:01168A00223D
:10168B00E8600FECC313FCED13FDEE13FEEF13FF3D
:03169B00D8F12261
:0C169E00ECF0A3EDF0A3EEF0A3EFF022BF
:1016AA00A8828583F0D083D0821216C11216C11285
:1016BA0016C11216C1E473E493A3C583C5F0C583AA
:1016CA00C8C582C8F0A3C583C5F0C583C8C582C88A
:0116DA0022ED
:0C16DB00A42582F582E5F03583F583221A
:0C32B900EE30E707C3E49FFFE49EFE2216
:00000001FF
