:03000000022A2CA5
:0C2A2C00787FE4F6D8FD758117022A734C
:10313400900926EFF07D02E4FF122D3D900926E070
:1031440044FE529A439A08C285D2EB7F0312000EC2
:03315400D2842200
:10000E00EF7009C281C2805393FD802AEFB40109BB
:10001E00C281D2805393EF801DEFB40209D281C208
:10002E00805393DF8010EFB40309D281D2805397AF
:09003E00FB80037FFF227F0022FA
:102DE200439A04ED64017016EF70028019EFB40289
:102DF200028027EFB40304D28180157FFF22ED64A5
:102E0200037022EF7004C2818012EFB40108C28104
:102E1200D280C2838012EFB40208D281C280C28300
:0F2E220080067FFF227FFF22C286D2EB7F002235
:03004B000230C3BD
:1030C300C0E0C083C082C0D075D00830850CAF9FEC
:1030D300900981E4F0A3EFF0C285308602C286D066
:0830E300D0D082D083D0E0328E
:10004E000000000000000000002F0000000007006C
:10005E00070000147F147F1400242A7F2A120062E6
:10006E006408132300364955225000000503000092
:10007E0000001C224100000041221C000014083E1A
:10008E0008140008083E0808000000A060000008E0
:10009E000808080800006060000000201008040234
:1000AE00003E5149453E0000427F400000426151F2
:1000BE004946002141454B31001814127F1000278C
:1000CE0045454539003C4A4949300001710905034F
:1000DE0000364949493600064949291E0000363680
:1000EE0000000000563600000008142241000014E3
:1000FE0014141414000041221408000201510906C0
:10010E0000324959513E007C1211127C007F494940
:10011E004936003E41414122007F4141221C007F71
:10012E0049494941007F09090901003E4149497A7F
:10013E00007F0808087F0000417F410000204041F9
:10014E003F01007F08142241007F40404040007F65
:10015E00020C027F007F0408107F003E4141413EA9
:10016E00007F09090906003E4151215E007F0919F1
:10017E0029460046494949310001017F0101003FEE
:10018E004040403F001F2040201F003F4038403F6E
:10019E0000631408146300070870080700615149D2
:1001AE00454300007F41410000552A552A55000065
:1001BE0041417F00000402010204004040404040E3
:1001CE00000001020400002054545478007F48447B
:1001DE00443800384444442000384444487F0038B2
:1001EE005454541800087E0901020018A4A4A47CDB
:1001FE00007F080404780000447D400000408084A5
:10020E007D00007F102844000000417F4000007CEC
:10021E0004180478007C08040478003844444438F8
:10022E0000FC242424180018242418FC007C080444
:10023E00040800485454542000043F444020003C1D
:10024E004040207C001C2040201C003C4030403CA4
:10025E00004428102844001CA0A0A07C0044645434
:10026E004C44141414141414000000000000000078
:10027E000000000000000000000000F80000000078
:10028E00000000333000000000100C06100C0600B9
:10029E00000000000000000040C07840C078400020
:1002AE00043F04043F040400007088FC0830000082
:1002BE00001820FF211E0000F008F000E0180000DA
:1002CE0000211C031E211E0000F008887000000093
:1002DE001E2123241927211010160E0000000000E5
:1002EE000000000000000000000000E01804020002
:1002FE00000000071820400000020418E000000073
:10030E000040201807000000404080F08040400070
:10031E000202010F01020200000000F000000000C6
:10032E000101011F0101010000000000000000009A
:10033E0080B070000000000000000000000000000F
:10034E000001010101010101000000000000000098
:10035E000030300000000000000000008060180433
:10036E00006018060100000000E010080810E00010
:10037E00000F102020100F00001010F800000000D9
:10038E000020203F20200000007008080888700020
:10039E0000302824222130000030088888483000A0
:1003AE000018202020110E000000C02010F80000C0
:1003BE0000070424243F240000F808888808080059
:1003CE000019212020110E0000E01088881800006E
:1003DE00000F112020110E0000380808C838080040
:1003EE000000003F000000000070880808887000C0
:1003FE00001C222121221C0000E010080810E00041
:10040E000000312222110F00000000C0C0000000C9
:10041E0000000030300000000000008000000000EE
:10042E0000008060000000000000804020100800E6
:10043E0000010204081020004040404040404000AF
:10044E00040404040404040000081020408000008A
:10045E000020100804020100007048080808F0008F
:10046E000000003036010000C030C828E810E0005F
:10047E000718272423140B000000C038E0000000EA
:10048E00203C23020227382008F888888870000054
:10049E00203F202020110E00C03008080808380028
:1004AE00071820202010080008F808080810E0009F
:1004BE00203F202020100F0008F88888E808100040
:1004CE00203F20202320180008F88888E808100014
:1004DE00203F200003000000C0300808083800004C
:1004EE0007182020221E020008F808000008F8084D
:1004FE00203F210101213F20000808F808080000D4
:10050E000020203F2020000000000808F808080006
:10051E00C08080807F00000008F888C0281808007E
:10052E00203F20012638200008F8080000000000B7
:10053E00203F20202020300008F8F800F8F80800AE
:10054E00203F003F003F200008F830C00008F808A8
:10055E00203F200007183F00E01008080810E000B8
:10056E000F10202020100F0008F808080808F000CF
:10057E00203F210101010000E01008080810E000F2
:10058E000F18242438504F0008F888888888700087
:10059E00203F2000030C3020007088080808380027
:1005AE000038202121221C00180808F8080818001D
:1005BE000000203F2000000008F808000008F8089E
:1005CE00001F202020201F000878880000C838084F
:1005DE00000007380E010000F80800F80008F800C7
:1005EE00033C0700073C0300081868808068180861
:1005FE0020302C03032C30200838C800C8380800DF
:10060E000000203F2000000010080808C83808002D
:10061E002038262120201800000000FE02020200D1
:10062E000000007F40404000000C30C00000000081
:10063E00000000010638C00000020202FE000000A9
:10064E00004040407F00000000000402020204004F
:10065E00000000000000000000000000000000008C
:10066E008080808080808080000202040000000074
:10067E00000000000000000000008080808000006C
:10068E000019242222223F2008F80080800000005A
:10069E00003F112020110E0000000080808000001D
:1006AE00000E112020201100000000808088F8002C
:1006BE00000E112020103F2000008080808000005E
:1006CE00001F222222221300008080F088888818C2
:1006DE000020203F202000000000808080808000CD
:1006EE00006B94949493600008F800808080000062
:1006FE00203F210000203F2000809898000000003D
:10070E000020203F2020000000000080989800006C
:10071E0000C08080807F000008F80000808080008C
:10072E00203F24022D302000000808F800000000B1
:10073E000020203F2020000080808080808080006C
:10074E00203F20003F20003F8080008080800000FE
:10075E00203F210000203F2000008080808000008C
:10076E00001F202020201F008080008080000000BD
:10077E0080FFA12020110E000000008080808000EC
:10078E00000E112020A0FF808080800080808000DD
:10079E0020203F212000010000008080808080000A
:1007AE000033242424241900008080E0808000007F
:1007BE000000001F202000008080000000808000CC
:1007CE00001F202020103F2080808000008080802D
:1007DE0000010E30080601008080008000808080BD
:1007EE000F300C030C300F000080800080808000E2
:1007FE000020312E0E31200080808000008080800D
:10080E0080818E70180601000080808080808000BC
:10081E000021302C2221300000000000807C0202DA
:10082E0000000000003F404000000000FF000000FC
:10083E0000000000FF0000000002027C80000000AB
:10084E000040403F000000000006010102020404C7
:10085E00000000000000000008C8B88FE88888403B
:10086E00300FC8082818000000000000000000002B
:10087E00000000000000000008180808FF04844073
:10088E00300E010E3040800000000000000000001D
:10089E0000000000000000001010D0FF901000FEBD
:1008AE00020202FE00000000000000000000000036
:1008BE000000000000000000040300FF0083601F22
:1008CE000000003F404078000000000000000000E3
:1008DE00000000000000000080809E9292929EE038
:1008EE00809EB2D2929E80000000000000000000A8
:1008FE0000000000000000000808F4949292F1003D
:10090E0001F2929494F8080000000000000000002C
:10091E000000000000000000000000000000C03FCA
:10092E00C0000000000000000000000000000000F9
:10093E000000000000000000804020100C030000AA
:10094E0000030C102040800000000000000000009A
:10095E00000000000000000002FA8282FE8000FE0D
:10096E0002126282621A0200000000000000000003
:10097E00000000000000000008184884443F007F7B
:10098E00504846414658400000000000000000005C
:10099E0000000000000000004044C44444444010E5
:1009AE0010FF101010F0000000000000000000000A
:1009BE000000000000000000103C131014B840307E
:1009CE000E014080403F00000000000000000000CB
:1009DE00000000000000000080809E9292929EE037
:1009EE00809EB2D2929E80000000000000000000A7
:1009FE0000000000000000000808F4949292F1003C
:100A0E0001F2929494F8080000000000000000002B
:100A1E000000000000000000404042CC00504EC8D4
:100A2E00487FC84848400000000000000000000059
:100A3E0000000000000000000040201F20504C432A
:100A4E0040404F50505C400000000000000000008D
:100A5E0000000000000000001010FF100082864A07
:100A6E0052A2524A86808000000000000000000062
:100A7E00000000000000000042827F0100101212F0
:100A8E0012FF121212100000000000000000000001
:100A9E000000000000000000404042CC0000FC249A
:100AAE00A4242222A3620000000000000000000027
:100ABE0000000000000000000040201F205847509A
:100ACE00484542454850400000000000000000002C
:100ADE0000000000000000000000FE0202F21212F0
:100AEE0012F20202FE0000000000000000000000F2
:100AFE00000000000000000000007F2020272424BA
:100B0E00242720207F0000000000000000000000CD
:100B1E00000000000000000020104C4754545454B4
:100B2E00545454D4040400000000000000000000DF
:100B3E0000000000000000000000000000000000A7
:100B4E000000000F3040F000000000000000000028
:100B5E0000000000000000000000FE02828282827F
:100B6E00FA828282828202000000000000000000F1
:100B7E00000000000000000080601F404040404028
:100B8E007F4040445840400000000000000000003C
:100B9E000000000000000000000202C2020202FE7D
:100BAE0082828282820200000000000000000000AB
:100BBE0000000000000000004040407F4040407FA9
:100BCE004040404040404000000000000000000057
:100BDE000000000000000000002010E8242724A4DC
:100BEE0024342CE000000000000000000000000093
:100BFE0000000000000000000080804F4020180719
:100C0E001010204F800000000000000000000000C7
:100C1E00000000000000000000001011161010F07F
:100C2E00101014131000000000000000000000005F
:100C3E0000000000000000008181414121110D03E0
:100C4E000D112141418181000000000000000000D3
:100C5E00000000000000000000F80122202222A265
:100C6E00FA22222202FE0000000000000000000016
:100C7E00000000000000000000FF00080402112028
:100C8E001F000040807F00000000000000000000F8
:100C9E0000000000000000002030AC633000FC2497
:100CAE0025262424243C0000000000000000000043
:100CBE00000000000000000022672212523807FFD9
:100CCE00097F093F89FF00000000000000000000BE
:100CDE000000000000000000808080BEA2A2A2A240
:100CEE00A2A2A2BE808080000000000000000000D2
:100CFE0000000000000000000000000605040404CF
:100D0E004484443C0000000000000000000000008D
:100D1E00000000000000000000001011161010F07E
:100D2E00101014131000000000000000000000005E
:100D3E0000000000000000008181414121110D03DF
:100D4E000D112141418181000000000000000000D2
:100D5E00000000000000000040404242424242FEBD
:100D6E0042424242424040000000000000000000AB
:100D7E000000000000000000000000000040807F26
:100D8E000000000000000000000000000000000055
:100D9E000000000000000000404042CC0040A09E39
:100DAE008282829EA0202000000000000000000031
:100DBE0000000000000000000000003F908840434B
:100DCE002C1028464180800000000000000000002A
:100DDE000000000000000000001715D55557557D86
:100DEE00555755D5151700000000000000000000F3
:100DFE0000000000000000004040407F5555555552
:100E0E005555557F40404000000000000000000096
:100E1E000000000000000000000202C2020202FEFA
:100E2E008282828282020000000000000000000028
:100E3E0000000000000000004040407F4040407F26
:100E4E0040404040404040000000000000000000D4
:100E5E000000000000000000002010E8242724A459
:100E6E0024342CE000000000000000000000000010
:100E7E0000000000000000000080804F4020180796
:100E8E001010204F80000000000000000000000045
:100E9E00000000000000000000000000000000C084
:100EAE00F8BC888080808080000000000000000078
:100EBE000000000000000000808080808080808024
:100ECE0080C0C08000000000000000000000000094
:100EDE00000000000000000000008060305C47430E
:100EEE0044444444444444440000000000000000D4
:100EFE0000000000000000004444444444C4E446A2
:100F0E0004000000000000000000000000000000CF
:100F1E0000000000000000000000000000000000C3
:100F2E0000000000000000000000000000000000B3
:100F3E00000000000000000000000000001FFF8005
:100F4E000000000000000000000000000000000093
:100F5E000000000000000000000000000000000083
:100F6E000000000000000000000000000000000073
:100F7E000000000000000000000000000000030F51
:100F8E001C3830707F4000000000000000000000A0
:100F9E000000000000000000000000000000F0F063
:100FAE0010101010101010100000000000000000B3
:100FBE000000000000000000D090901010101010E3
:100FCE0010181C18100000000000000000000000A7
:100FDE000000000000000000000000000000FFFF05
:100FEE000080808080808080000000000000000073
:100FFE000000000000000000FFFF818080808080E4
:10100E00C0C08000000000000000000000000000D2
:10101E0000000000000000000000000000F0FF01D2
:10102E0000000000000000000000000000000000B2
:10103E000000000000000000FFFF00000008187014
:10104E00E0C00000000000000000000000000000F2
:10105E000000000000000000004020180E131010C9
:10106E0010101010101010100000000000000000F2
:10107E0000000000000000001F1F101010101010C4
:10108E0013131018181000000000000000000000DC
:08109E0000000000000000004A
:10315700E4FEC2B400EF30E704D2B38002C2B3EF9B
:0D31670025E0FFD2B4000EEEB408E7C2B4BC
:013174002238
:102EBC00AD07D2B3D2B400C2B3007F78123157C27F
:102ECC00B400D2B40000C2B400E4FF123157C2B453
:102EDC0000D2B40000C2B400AF05123157C2B40026
:102EEC00D2B40000C2B400C2B3D2B400D2B3002238
:102EFC00AD07D2B3D2B400C2B3007F78123157C23F
:102F0C00B400D2B40000C2B4007F40123157C2B436
:102F1C0000D2B40000C2B400AF05123157C2B400E5
:102F2C00D2B40000C2B400C2B3D2B400D2B30022F7
:10317500F583E5822CF582E43583F583E493FF7DC1
:013185000148
:0A318600ED6003022EFC122EBC22A5
:06306F00A907AA05E4F028
:10307500AC07ED24B0FFE4FD123186EC54F0C454E6
:103085000F4410FFE4FD123186EC540F4401FFE4B8
:04309500FD02318681
:1031F200E4FD7F8D123186E4FD7F14123186E4FDF9
:053202007FAF023186E0
:10320700E4FD7F8D123186E4FD7F10123186E4FDE7
:053217007FAE023186CC
:10301700E4FCEC24B0FFE4FD123186E4FDFF12313D
:1030270086E4FD7F10123186E4FB7D01E4FF123157
:0B303700860BEBB480F40CECB408D75F
:01304200226B
:102B3C00E4FBFAEB24B0FFE4FD123186E4FDFF1256
:102B4C003186E4FD7F10123186E4900983F0A3F006
:102B5C00EB25E0FDEA33FC900984E0C4F8540FC87F
:102B6C0068FF900983E0C454F048FE74002FF5828E
:102B7C0074003EF583E5822DF582E5833CF583A355
:102B8C00E0FF7D01123186900984E004F07006901C
:102B9C000983E004F0C3900984E09480900983E0F9
:0F2BAC00940040AC0BBB00010AEB64084A708434
:012BBB0022F7
:1028EC00900969E004A4FF900962E02FFFA3E0FDCA
:0A28FC00900968E0900939F07B2E86
:06290600AA07A905AF03BA
:10290C00E4FCEF24E0FBEAD3947F4004E4FA0909E9
:10291C00900939E064107052AF02AD01123075E4C9
:10292C00FC75F010EBA42CF582E435F0F583E58210
:10293C002476F582E583340212317F0CECB408E185
:10294C00AF02E904FD123075E4FC75F010EBA42C19
:10295C00F582E435F0F583E582247EF582E5833457
:10296C000212317F0CECB408E122AF02AE01AD06CD
:10297C00123075E4FC75F006EBA4244EF582E5F0FC
:0A298C0034001231750CECB406EBB8
:01299600221E
:072D9200C3EF9E14FD7F0A50
:082D9900900936EFF0A3EDF004
:102DA100A312165500000001900937E0FF14F0EF5F
:102DB1006020A3E0F8A3E0F9A3E0FAA3E0FB900907
:102DC10036E0FFE4FCFDFE1214FA900938121649B0
:102DD10080D6900938E0FCA3E0FDA3E0FEA3E0FF6C
:012DE10022CF
:1025E300FFA3E0FD90096CE0FAA3E0900969FBE02A
:0C25F300900931F0900968E0900932F086
:0E25FF0090092DEFF0A3EDF0A3EAF0A3EBF0AE
:10260D00E4900935F0900933F0900931E0FF90091D
:10261D0033E0FEC39F40030226B9122D92A804A9F0
:10262D0005AA06AB0790092FE0FEA3E0FFE4FCFD31
:10263D00121585E47B0AFAF9F8121585900934EB29
:10264D00F0A3E07036900931E014FF900933E0FEFD
:10265D00C39F5027A3E0701D900932E0FCC3138E79
:10266D00F0A4FF90092DE02FFFA3E0FD900939ECB8
:10267D00F07B20802B9009357401F0900932E0FE3B
:10268D00C313FFA3E0FDEF8DF0A4FF90092DE02F04
:10269D00FFA3E0FD900934E02430FB900939EEF002
:0C26AD00122906900933E004F002261602
:0126B90022FE
:0E233500900927EFF0A3EDF0A3EAF0A3EBF080
:10234300E490092CF0EB4A601790092CE004F07C30
:10235300007D0AAF03AE021214AEAA06AB0780E5F6
:10236300900929E0FAA3E0FBD39400EA6480948007
:102373004019900927E0FFA3E0FD90092CE09009A4
:1023830031F090092BE09009328071C3900929E064
:10239300648094805069900927E0FFA3E0FD9009D1
:1023A3002BE0900939F07B2D122906900929E0FED4
:1023B300A3E0FF12327F900929EEF0A3EFF0A3E030
:1023C300FE900927B41019E02408FFA3E0FDA3E061
:1023D300FAA3E0FB90092CE0900931F0A3EE801CF6
:1023E300E02406FFA3E0FDA3E0FAA3E0FB90092CA1
:1023F300E0900931F090092BE0900932F0802390AE
:102403000929E07002A3E0701C900927E0FFA3E014
:10241300FD9009317401F090092BE0900932F0E44A
:05242300FBFA1225FF89
:012428002291
:081D1700900962EFF0A3EDF06A
:101D1F00E4900969F0A3F0A3F0A3F0A3F0A3F0A35C
:101D2F00F0FFFEFDFC900964E0F8A3E0F9A3E0FAF0
:101D3F00A3E0FB121344600A400890096B7401F092
:101D4F00801CE490096BF0900964E0FCA3E0FDA314
:101D5F00E0FEA3E0FF1213B1900964121649900937
:101D6F0064E0FCA3E0FDA3E0FEA3E0FF12140090EB
:101D7F00096CEEF0A3EFF0FDAC06EC1213C7A8044C
:101D8F00A905AA06AB07900964E0FCA3E0FDA3E058
:101D9F00FEA3E0FF1210A9E4FBFA79C878421211F2
:101DAF009E12140090096EEEF0A3EFF090096CE014
:101DBF007002A3E0602290096CE0FEA3E0FF4E608A
:101DCF001D900969E004F07C007D0A1214AE9009A1
:101DDF006CEEF0A3EFF080DE9009697401F09009CA
:101DEF006A7402F0900964E0FCA3E0FDA3E0FEA397
:101DFF00E0FF12140090096CEEF0A3EFF090096B66
:101E0F00E06055900968E0FE64109009627030E060
:101E1F00FFA3E0FD90096CE0FAA3E0FB900969E0F5
:101E2F00900931F0A3EEF01225FF900969E075F0EB
:101E3F00081228F1900969E00475F008021ECBE042
:101E4F001225E3900969E075F0061228F1900969EF
:101E5F00E00475F006021ECB900962E0FFA3E0FDDF
:101E6F00900968E0900939F07B2D122906900968D6
:101E7F00E0FE6410900962702EE02408FFA3E0FDDD
:101E8F0090096CE0FAA3E0FB900969E0900931F04A
:101E9F00A3EEF01225FF75F0081228EC900969E007
:101EAF00240275F0088015E024061225E375F0066C
:101EBF001228EC900969E0240275F006A4FF90093E
:101ECF0062E02FFFA3E0FD90096EE0FAA3E0900916
:041EDF006A1225F16D
:011EE30022DC
:102C2900900927EFF0A3EDF0A3EBF0A3EAF0A3E9F5
:012C3900F0AA
:102C3A00E490092DF0900929E0FBA3E0FAA3E0F95A
:102C4A0090092DE0F582758300121481FB602F90A4
:102C5A000927E0FFA3E0FD90092CE0900939F01262
:102C6A002906900927E02408F0E0D394804007E47D
:0E2C7A00F0A3E02402F090092DE004F080B7F2
:012C88002229
:102BBC0090092612306FE4FC75F040EBA42466F506
:102BCC0082E5F03408F583E5822CF582E43583F553
:102BDC0083E493F4FF7D01123186900926E004F022
:102BEC000CECB410D3AF01EA04FD123075E4FC75A3
:102BFC00F040EBA42486F582E5F03408F583E582F9
:102C0C002CF582E43583F583E493F4FF7D011231D6
:0C2C1C0086900926E004F00CECB410D304
:012C28002289
:102E310090092712306FE4FC75F040EBA42466F58D
:102E410082E5F03408123175900927E004F00CECAA
:102E5100B410E5AF01EA04FD123075E4FC75F040F1
:102E6100EBA42486F582E5F0340812317590092728
:082E7100E004F00CECB410E5E4
:012E79002236
:081A8100900942EFF0A3EDF023
:101A8900E4900951F0FFFEFDFC900944E0F8A3E061
:101A9900F9A3E0FAA3E0FB121344900942E0FFA383
:101AA900E0FD900949E0900939501FF07B2D12297A
:101AB90006900944E0FCA3E0FDA3E0FEA3E0FF12C9
:101AC90032729009441216498006F07B20122906C9
:101AD90090094BE0FFFCE41213CCA804A905AA065F
:101AE900AB07900944E0FCA3E0FDA3E0FEA3E0FFFF
:101AF9001210A990094D121649900948E024FA904C
:101B0900094CF0900949E0FEC31325E025E0FF9058
:101B19000942E02FFFA3E0FD900939EEF07B2E1278
:101B29002906900949E0C313FF900942E02FF0E428
:101B390090094AF090094CE0FF90094AE0FEC39FE2
:101B49004003021BEA122D92E41213C2A804A9054C
:101B5900AA06AB07900944E0FCA3E0FDA3E0FEA3BD
:101B6900E0FF1212A71214007C007D0A1214AE9035
:101B7900094BEDF0900951E0703690094CE014FFE3
:101B890090094AE0FEC39F5027A3E0701D900949C0
:101B9900E0FCC3138EF0A4FF900942E02FFFA3E0FD
:101BA900FD900939ECF07B20802B9009517401F0EC
:101BB900900949E0FEC313FFA3E0FDEF8DF0A4FFF8
:101BC900900942E02FFFA3E0FD90094BE02430FB90
:101BD900900939EEF012290690094AE004F0021B37
:101BE9003D900949E0C31325E025E0FF900942E053
:101BF9002FFFC007E4FFFE7D207C4190094DE0F8EE
:101C0900A3E0F9A3E0FAA3E0FB12119E1214007CF1
:101C1900007D0A1214AEED2430FB900949E09009C9
:101C290039F0900943E0FDD007122906900949E0EF
:101C3900C31375F005A4FF900942E02FFFC007E424
:101C4900FFFE7DC87C4290094DE0F8A3E0F9A3E0CE
:101C5900FAA3E0FB12119E1214007C007D0A1214F3
:101C6900AEED2430FB900949E0900939F090094321
:101C7900E0FDD007122906900949E0C31375F00663
:101C8900A4FF900942E02FFFC007E4FFFE7D7A7CA4
:101C99004490094DE0F8A3E0F9A3E0FAA3E0FB12B0
:101CA900119E1214007C007D0A1214AEED2430FB43
:101CB900900949E0900939F0900943E0FDD00712F5
:101CC9002906900949E0C31375F007A4FF9009425A
:101CD900E02FFFC0077F007E407D1C7C4690094DA8
:101CE900E0F8A3E0F9A3E0FAA3E0FB12119E1214B5
:101CF900007C007D0A1214AEED2430FB900949E006
:0E1D0900900939F0900943E0FDD00702290649
:081EE400900952EFF0A3EDF0AC
:101EEC00A3E0FCA3E0FDA3E0FEA3E0FF121400902E
:101EFC00095EEEF0A3EFF0E490095BF0900958E076
:101F0C00FF90095BE0FEC39F4003021FAE122D92AF
:101F1C00A804A905AA06AB0790095EE0FEA3E0FFA2
:101F2C00EE3395E0FDFC121585E47B0AFAF9F81204
:101F3C00158590095CEBF0A3E07036900958E0141D
:101F4C00FF90095BE0FEC39F5027A3E0701D900932
:101F5C005AE0FCC3138EF0A4FF900952E02FFFA3AC
:101F6C00E0FD900939ECF07B20802B90095D740129
:101F7C00F090095AE0FEC313FFA3E0FDEF8DF0A42F
:101F8C00FF900952E02FFFA3E0FD90095CE02430A4
:101F9C00FB900939EEF012290690095BE004F0027F
:101FAC001F0890095AE0FEC313FF900958E0FDEF9B
:101FBC008DF0A4FF900952E02FFFA3E0FD900939AA
:101FCC00EEF07B2E122906900959E0FD7F0A122DA6
:101FDC0099E41213C2C004C005C006C00790095E84
:101FEC00E0FCA3E0FDEC1213C7A804A905AA06ABFC
:101FFC0007900954E0FCA3E0FDA3E0FEA3E0FF1270
:10200C0010A9D003D002D001D00012119E121400DE
:10201C00900960EEF0A3EFF0E490095BF0900959A1
:10202C00E0F990095BE0FFC3995065C3E99F122D5D
:10203C0095A804A905AA06AB07900960E0FEA3E0E9
:10204C00FFEE3395E0FDFC121585E47B0AFAF9F8F6
:10205C00121585AF0390095CEFF0FE90095AE0FC75
:10206C00C313FF900958E0FD90095BE02D8FF0A49D
:10207C00FF900952E02F2405FFA3E0FDEE2430FB76
:10208C00900939ECF012290690095BE004F0808D80
:01209C002221
:0A2AB800900970EFF0900972EBF046
:102AC200E4900977F0A3F0900973E0FF54077008CF
:102AD200EF131313541F800A900973E01313135456
:102AE2001F04900979F0900979EDF0900973E0FFE5
:102AF200900979E0FDC39F5040900970E0FF1230C9
:102B020075E0FC900972E0FFECC39F5024900974B9
:102B1200E0FBA3E0FAA3E0F9A3E475F0011214E4E8
:102B220085F082F583121481FF7D011231860C80BB
:092B3200D2900979E004F080B2B0
:012B3B002277
:1026BA00E4FF000FEFB464FAE4FD7FAE123186E462
:1026CA00FDFF123186E4FD7F10123186E4FD7F4062
:1026DA00123186E4FD7FB0123186E4FD7F8112312A
:1026EA0086E4FD7FFF123186E4FD7FA1123186E484
:1026FA00FD7FA6123186E4FD7FA8123186E4FD7FB4
:10270A003F123186E4FD7FC8123186E4FD7FD31281
:10271A003186E4FDFF123186E4FD7FD5123186E46D
:10272A00FD7F80123186E4FD7FD8123186E4FD7F79
:10273A0005123186E4FD7FD9123186E4FD7FF1125C
:10274A003186E4FD7FDA123186E4FD7F121231868A
:10275A00E4FD7FDB123186E4FD7F30123186E4FD31
:10276A007F8D123186E4FD7F14123186E4FD7FAF3E
:0C277A00123186123017E4FDFF023075AA
:102F3C00AC05AB07E4FD7F2E123186E4FD7F271232
:102F4C003186E4FDFF123186AF03E4FD123186E4D5
:102F5C00FDFF123186AF04E4FD123186E4FDFF1251
:102F6C003186E4FD7FFF123186E4FD7F2F0231862E
:0732E100E4FD7F2E0231869F
:102F7C00E4FD7F2E123186E4FD7F29123186E4FDBB
:102F8C00FF123186E4FDFF123186E4FD7F0712311A
:102F9C0086E4FD7F07123186E4FD7F01123186E461
:062FAC00FD7F2F023186BB
:103043004309050101014C090800000000000000CC
:103053000000000000410903004109040043090086
:03306300FFFFFF6D
:102FB20074052FF582E43409F583E0600E74052F61
:102FC200F582E43409F583E4F0800D74052FF5826F
:102FD200E43409F5837401F074052FF582E43409B1
:052FE200F583E0FF2271
:03278600CBEFCBCB
:1027890090092612165500000000900926121655C8
:10279900000F4240CFEBCFE4FCFDFE900926E0F8A4
:1027A900A3E0F9A3E0FAA3E0FB1214FAE47BE87AC8
:1027B90003F9F8121585900926121649900926E0A1
:1027C900F8A3E0F9A3E0FAA3E0FBC3E49BFFE49AD2
:1027D900FE740199FDE498FC9009261216499009A6
:1027E90026E0FCA3E0FDA3E0FEA3E02401FFE43E14
:1027F900FEE43DFDE43CFC900926121649900926A9
:10280900E0FCA3E0FDA3E0FEA3E0FF780812163682
:10281900900903EFF0FB900926A3A3A3E0FF900919
:1028290004F0E58954F14401F5898B8C8F8AC28DB6
:04283900D2A9D28CC2
:01283D002278
:10242900E490093CF0900900E025E0FFA291E43333
:102439004FF0A3E025E0FFA294E4334FF0A3E02599
:10244900E0FFA295E4334FF0E490093CF090093C99
:10245900E0FFC39403400302250874002FF582E4CA
:102469003409F583E0540F704D90093CE0FF2405D1
:10247900F582E43409F583E4F0EFC39403400302E1
:10248900250890093CE025E025E02408F582E4349C
:1024990009F583C083C082E0FCA3E0FDA3E0FEA3AD
:1024A900E0240AFFE43EFEE43DFDE43CFCD082D09A
:1024B90083121649804090093CE02400F582E434F7
:1024C90009F583E0540FFFBF0F2C90093CE0FF246E
:1024D90005F582E43409F5837401F0EFC3940350E0
:1024E9001EEF25E025E02408F582E43409F583127E
:0F24F90016550000000090093CE004F002245644
:0125080022B0
:0616E70090093C121649B7
:1016ED00E4900940F0A3F0900940F0A3F090094078
:1016FD00E0FEA3E0FFC39403EE64809480400302F8
:10170D001A80122FB2900940E0FCA3E0FD9009145D
:10171D0075F006121686EC75F006A42583F583EF99
:10172D00F090091575F006ED121686EC75F006A40D
:10173D002583F583E0B408004003021A6F9017511A
:10174D00F82828730217690217A102187402195696
:10175D000219AB0219EF0219F10219EF9009147574
:10176D00F006ED121686EC75F006A42583F583E0E0
:10177D007003021A6F900940E0FEA3E0FF90091577
:10178D0075F006121686EE75F006A42583F58374A2
:10179D000102194C900940E0FEA3E0FF9009147579
:1017AD00F006121686EE75F006A42583F583E0701B
:1017BD000302185690091675F006EF121686EE758F
:1017CD00F006A42583F583C083C082E0FCA3E0FD71
:1017DD00A3E0FEA3E0FF90093CE0F8A3E0F9A3E04D
:1017ED00FAA3E0FBEF2BFFEE3AFEED39FDEC38FCF2
:1017FD00D082D083121649900940E0FEA3E09009F3
:10180D001675F006121686EE75F006A42583F5837F
:10181D00E0FCA3E0FDA3E0FEA3E0FFE47B14FAF9F6
:10182D00F8C31216254003021A6F900940E0FEA37B
:10183D00E0FF90091575F006121686EE75F006A4F8
:10184D002583F583740402194C900940E0FEA3E052
:10185D00FF90091575F006121686EE75F006A42593
:10186D0083F583E402194C900940E0FEA3E0FF905C
:10187D00091475F006121686EE75F006A42583F58B
:10188D0083E0700302193090091675F006EF1216F9
:10189D0086EE75F006A42583F583C083C082E0FC37
:1018AD00A3E0FDA3E0FEA3E0FF90093CE0F8A3E078
:1018BD00F9A3E0FAA3E0FBEF2BFFEE3AFEED39FDC5
:1018CD00EC38FCD082D083121649900940E0FEA37B
:1018DD00E090091675F006121686EE75F006A42531
:1018ED0083F583E0FCA3E0FDA3E0FEA3E0FFE47B32
:1018FD00E87A03F9F8C31216254003021A6F90090E
:10190D0040E0FEA3E0FF90091575F006121686EE75
:10191D0075F006A42583F5837406F0900916F5F08D
:10192D00021A31900940E0FEA3E0FF90091575F011
:10193D0006121686EE75F006A42583F5837405F060
:10194D0090091675F006021A31900940E0FEA3E0E9
:10195D00FF90091475F006121686EE75F006A42593
:10196D0083F583E0601990091575F006EF12168660
:10197D00EE75F006A42583F5837403F0021A6F90BB
:10198D000940E0FEA3E090091575F006121686EEEB
:10199D0075F006A42583F5837407F0021A6F90097C
:1019AD0040E0FAA3E0FB90091475F006121686EAE2
:1019BD0075F006A42583F583E06025900940E0FECF
:1019CD00A3E0FF90091575F006121686EE75F00668
:1019DD00A42583F5837402F090091675F0068044F2
:1019ED0080588063900940E0FAA3E0FB90091475DC
:1019FD00F006121686EA75F006A42583F583E060DD
:101A0D0039900940E0FEA3E0FF90091575F006122C
:101A1D001686EE75F006A42583F5837403F0900900
:101A2D001675F006EF121686EE75F006A42583F5F1
:101A3D008312165500000000802890091575F006D8
:101A4D00EB121686EA8011900940E0FEA3E09009A2
:101A5D001575F006121686EE75F006A42583F5832E
:101A6D00E4F0900941E004F07006900940E004F0C4
:031A7D000216FA54
:011A80002243
:03000B00022FE7DA
:102FE700C0E0C0F0C083C082C0D075D01090090384
:102FF700E0F58CA3E0F58A1224297F147E007D007A
:103007007C001216E7D0D0D082D083D0F0D0E03247
:102C8900E4FB7F141227867D017F03122CE87D0463
:102C99007F03122CE87D057F03122CE8D291D29490
:102CA900D295E4FBEB75F006A42414F582E434090B
:102CB900F583E4F0EB75F006A42415F582E43409F4
:102CC900F583E4F0EB75F006A42416F582E43409E3
:0E2CD900F583121655000000000BEBB403C685
:012CE70022CA
:1031AB00EFC394035011EF75F006A42415F582E4D8
:0A31BB003409F583E0FF227F0022B3
:0932AB00C296C297C290C2B5227E
:0932B400C296D297C290D2B52255
:0932BD00D296C297D290D2B5223C
:0932C600C296D297D290D2B52233
:0932CF00C296C297D290D2B5223A
:0932D800D296D297D290D2B52211
:1030EB007D067F01122CE87D077F01122CE8E4FDA1
:1030FB007F01122CE87D057F01122D3DC296C297F0
:05310B00C290C2B522D4
:0400470043C610227A
:0F325500309809900985E599F0E0FF227F00226B
:080003003099048F99C2992283
:10319000C298900985E599F0E0FE543C1313543F22
:0A31A000B50705EE5403FF227F007F
:0131AA002202
:0632E800E4900985F022CC
:1032430075A15575A1AAE5B954F84404F5B9E4F597
:02325300A122B6
:0E326400EF4E600905A1EF1F70F61E80F322E9
:1031DC00EF4E6011E5C330E7FBE5C320E7FBEF1FC3
:0631EC0070EE1E80EB22D4
:1031C50075A15575A1AAEF600543B101800353B1FF
:0731D500FEE4F5A1F5FF2265
:0332EE008FFF222D
:102CE800EF14601B146029146039240370467401C2
:102CF800A805088002C333D8FCF452925293227478
:102D080001A805088002C333D8FCFFF45292802141
:102D18007401A805088002C333D8FCFF4292EFF47F
:102D28005293227401A805088002C333D8FCFF42DD
:052D380092EF4293221E
:102D3D00EF14601B1460291460392403704674016C
:102D4D00A805088002C333D8FCF45296529722741A
:102D5D0001A805088002C333D8FCFFF452968021E8
:102D6D007401A805088002C333D8FCFF4296EFF426
:102D7D005297227401A805088002C333D8FCFF4284
:052D8D0096EF429722C1
:10299700C29FD29EC29DC2CDC2CC438780900926DA
:1029A7001216550000061AE47B0AFAF9F890092670
:1029B700E0FCA3E0FDA3E0FEA3E0FF12158590096C
:1029C7002AEBF0900926E0FCA3E0FDA3E0FEA3E0DC
:1029D700FFE47B0AFAF9F8121585900926121649C1
:1029E70090092AE0C39405401F900926E0FCA3E064
:1029F700FDA3E0FEA3E02401FFE43EFEE43DFDE489
:102A07003CFC900926121649E589540F4420F589A4
:102A170043C9A0900926A3A3A3E0F404F58DD28EA1
:042A2700D299D29CD2
:012A2B002288
:10321C001232437F057E001231DCD2AF1231101214
:04322C00329680FB5B
:0A32A1003A006B706100202020004D
:083066004109800041097B00D3
:0A328B0090097AE59FF0D284E0FF7D
:013295002216
:102E7A00E4FB7D017F08122E317B017D017F181250
:102E8A002E317B027D017F28122E317B037D017F4B
:102E9A0038122E317B047D017F48122E317B057D4D
:102EAA00017F58122E317B067D017F68122E310276
:022EBA003017CF
:10209D00900926EFF0E4FBFD7F08122E317B01E461
:1020AD00FD7F18122E317B02E4FD7F28122E317B2D
:1020BD0003E4FD7F38122E317B04E4FD7F48122EA0
:1020CD00317B05E4FD7F58122E317B06E4FD7F68E0
:1020DD00122E31900926E024FE700302216E147039
:1020ED00030221CE2402600302223A7B177D047F76
:1020FD0011122E317B0C7D047F21122E317BFF7A44
:10210D003279A190092C7410F07D047F31122C29A5
:10211D0012328BEF24BAFFE434FFFE90097CF0A35A
:10212D00EFF0C3EE648094805007E490097CF0A337
:10213D00F07BFF7A3279A390092C7410F07D047F27
:10214D005A122C297BFF7A3279A790092C7410F042
:10215D007D047F41122C2990097CE0FAA3E0022234
:10216D002C7B187D047F11122E317B0C7D047F2179
:10217D00122E317BFF7A3279A190092C7410F07DEB
:10218D00047F31122C297BFF7A3279A390092C74AC
:10219D0010F07D047F5A122C297BFF7A3279A7909B
:1021AD00092C7410F07D047F41122C2912328BEF13
:1021BD0024C9FFE434FFFE90097CF0FAA3EFF08010
:1021CD005E7B0F7D047F11122E317B107D047F21EC
:1021DD00122E317BFF7A3279A190092C7410F07D8B
:1021ED00047F31122C297BFF7A3279A390092C744C
:1021FD0010F07D047F5A122C297BFF7A3279A7903B
:10220D00092C7410F07D047F41122C2912328BEFB2
:10221D0024E5FFE434FFFE90097CF0FAA3EFF0FB18
:0E222D0090092B7410F07D047F41122335229E
:10250900E4FBFD7F08122E317B01E4FD7F18122EBA
:10251900317B02E4FD7F28122E317B03E4FD7F38F5
:10252900122E317B04E4FD7F48122E317B05E4FD38
:102539007F58122E317B06E4FD7F68122E319009F7
:1025490080E014603B04706E7B117D027F20122BAA
:10255900BC7B127D027F30122BBC7B157D027F4034
:10256900122BBC7B167D027F50122BBC7B137D0482
:102579007F30122E317B147D047F40122E3180363C
:102589007B117D027F20122E317B127D027F30125A
:102599002E317B157D027F40122E317B167D027F05
:1025A90050122E317B137D047F30122BBC7B147D9E
:1025B900047F40122BBC7B097D067F08122E317BDC
:1025C9000A7D067F18122E317B077D067F58122E51
:0A25D900317B087D067F68022E3179
:10283E00E4FBFD7F08122E317B01E4FD7F18122E82
:10284E00317B02E4FD7F28122E317B03E4FD7F38BD
:10285E00122E317B04E4FD7F48122E317B05E4FD00
:10286E007F58122E317B06E4FD7F68122E317B11CC
:10287E007D037F20122E317B127D037F30122E318D
:10288E007B157D037F40122E317B167D037F501208
:10289E002E317BFF7A3279A190092C7410F07D03D2
:1028AE007F60122C297BFF7A3279A790092C741045
:1028BE00F07D037F68122C2990097BE0FB7A009053
:1028CE00092B7410F07D037F681223357B097D067A
:0E28DE007F08122E317B0A7D067F18022E31F4
:10223B00EF14605D1470030222D914700302231F84
:10224B002403600302233490097FE0FF12209D7F5B
:10225B00011231ABBF02091232BD90097F7401F03C
:10226B007F021231ABBF02091232C690097F740292
:10227B00F0E4FF1231ABBF02091232AB90097F744D
:10228B0003F0E4FF1231ABEF6403600302233480ED
:10229B007C1225097F021231ABBF020E900980E040
:1022AB0004F0E0D394024002E4F0E4FF1231ABBF40
:1022BB00020990097E7402F01230177F011231ABC4
:1022CB00EF64027064900980F090097E80431228BD
:1022DB003EE4FF1231ABBF020E90097BE014F0E03D
:1022EB00C394005002E4F07F021231ABBF020690A0
:1022FB00097BE004F090097BE0D394104002E4F0FA
:10230B007F011231ABBF0221E4900980F090097E6E
:10231B0004F08012E4FF1231AB7F021231AB7F016C
:0A232B001231ABBF0203123017227B
:103110001226BA123017122C891230EB7F011231AD
:1031200034122997E490097EF090097BF090097F92
:043130007403F02212
:10309900EF24FE60111460182402701D1232BD90D5
:1030A900097F7401F0221232C690097F7402F0225E
:0A30B9001232AB90097F7403F0227D
:10323000E4FF30980B90097BE0FF12319012309937
:033240000232E86F
:0B32960090097EE0FF12223B02323064
:1010A60002146CE86480F8E933E83360110460F0F8
:1010B600ED33EC337009E8FCE9FDEAFEEBFF2204B0
:1010C60060DED3EB9FEA9EE99DE8C2E78CF0C2F7AB
:1010D60095F0400CE8CCF8E9CDF9EACEFAEBCFFB77
:1010E60012143785D0F05804700320D5B3E8047085
:1010F600075002B2D502147692D5EC0460F7E4CC20
:10110600C0E0C398F8603B94186008400DD0E0FB3F
:1011160002144EE4FBFAC9FC8028E830E406E4C970
:10112600FBE4CAFCE830E305E4C9CACBFCE8540793
:101136006010F8C3E913F9EA13FAEB13FBEC13FC9E
:10114600D8F130F52FC3E49CFCEF9BFFEE9AFEED41
:1011560099FDD0E0FBEF4E4D4C701222DB030214DA
:1011660073EC2CFCEF33FFEE33FEED33FDED30E791
:10117600EB02144EEF2BFFEE3AFEED39FDD0E0FB0D
:1011860050130BBB0003021476ED13FDEE13FEEFB6
:0811960013FFEC13FC02144EE0
:10119E00EC4D6011E8497017ED33EC3304600DE44B
:1011AE00FCFFFEFD22E933E8330470F802146C12E2
:1011BE00143758046009E4CC2481500628500902E3
:1011CE001476284003021473C0E0EB4A7044B980D1
:1011DE0006D0E0FB021462EF4E701CBD8008EBFFE0
:1011EE00EAFEE9FD80EBE98DF0A4FEE5F002128740
:1011FE00E9CDF9EAFEEBFFEF89F0A4FCE5F0CE892C
:10120E00F0A42EFFE435F0CD89F0A42DFEE435F0E8
:10121E008067EF4E7005BD80D780C3EF8BF0A4AC16
:10122E00F0EE8BF0A42CFCE435F0F8EF8AF0A42C51
:10123E00E5F038FCE433CB8DF0A42CFCE5F03BF864
:10124E00EE8AF0A42CFCE5F038F8E433CF89F0A454
:10125E002CFCE5F038CF3400CE89F0A42FFFE5F05A
:10126E003EFEE433C98DF0A42EFEE5F039CD8AF0B2
:10127E00A42FFFE5F03EFEE43DFD33D0E0FB50072A
:10128E000BBB000F021476EC2CFCEF33FFEE33FE9B
:06129E00ED33FD02144EC9
:1012A400021476EC5D046005E85904700302146CC2
:1012B400121437580460F6EC4860F2EC7004FDFE3A
:1012C400FF22C860DB2481C85009C398600250061D
:1012D4000214739850CAF582E9294B4A7005AB820F
:1012E40002146275F0007C1A7880C3EF9BEE9AEDCD
:1012F40099400DC3EF9BFFEE9AFEED99FDE842F095
:10130400DC23ACF0D0E0FFD0E0FED0E0FDAB8220E7
:10131400E7101BEB60BAEC2CFCEF33FFEE33FEED71
:1013240033FD02144EE803F830E705C0F075F00011
:10133400EF2FFFEE33FEED33FD40B830E7C280AA55
:1013440074F8CC6480CCC86480C8F582046043C35C
:10135400EB9FF5F0EA9E42F0E99D42F0E89C45F0EF
:1013640060305018E5825FFFE582F42B5582FB5014
:10137400210ABA001D09B90019088016E5825BFB31
:10138400E582F42F5582FF50090EBE00050DBD0005
:10139400010CC3EB9FF5F0EA9E42F0E99D42F0E8B0
:0D13A4009C45F06007CC4820E701B3EC2227
:1013B100ED33EC33600A047003BD8004ECB2E7FC4A
:0113C1002209
:1013C20075F020800E75F010800575F0087D007EA6
:1013D200007F003392D530D503121617EC3340103C
:1013E200EF33FFEE33FEED33FDEC33FCD5F0ED22AF
:0E13F200E5F0247EA2D513CC92E7CDCEFF22EB
:10140000EDD2E7CD33EC3392D524814006E4FFFEE4
:10141000FDFC22FCE4CFCECDCC24E0501174FF8043
:10142000EDC3CC13CCCD13CDCE13CECF13CF0470E0
:07143000F030D5DE021617B3
:0D327200ED33EC3360065004EC6480FC2268
:10143700E9D2E7C933E833F892D5EDD2E7CD33ECFB
:0714470033FC5002B2D52274
:10144E00EC30E7100FBF000C0EBE00080DBD0004FF
:10145E000BEB6014A2D5EB13FCED92E7FD2274FFAB
:10146E00FCFDFEFF22E480F8A2D574FF13FC7D8004
:03147E00E480EF18
:102A380002321CE493A3F8E493A34003F68001F266
:102A480008DFF48029E493A3F85407240CC8C3339F
:102A5800C4540F4420C8834004F456800146F6DF6E
:102A6800E4800B0102040810204080903043E47E8B
:102A7800019360BCA3FF543F30E509541FFEE49363
:102A8800A360010ECF54C025E060A840B8E493A32A
:102A9800FAE493A3F8E493A3C8C582C8CAC583CA55
:102AA800F0A3C8C582C8CAC583CADFE9DEE780BE0D
:01306E000061
:10148100BB010CE58229F582E5833AF583E0225020
:1014910006E92582F8E622BBFE06E92582F8E2226A
:0D14A100E58229F582E5833AF583E4932284
:1014AE00C2D5EC30E709B2D5E4C39DFDE49CFCEE59
:1014BE0030E715B2D5E4C39FFFE49EFE121692C329
:1014CE00E49DFDE49CFC800312169230D507C3E424
:0614DE009FFFE49EFE22C8
:1014E400A3F8E0C5F025F0F0E582158270021583BB
:0614F400E0C838F0E82218
:1014FA00E88FF0A4CC8BF0A42CFCE98EF0A42CFC91
:10150A008AF0EDA42CFCEA8EF0A4CDA8F08BF0A40E
:10151A002DCC3825F0FDE98FF0A42CCD35F0FCEB6D
:10152A008EF0A4FEA9F0EB8FF0A4CFC5F02ECD3932
:0F153A00FEE43CFCEAA42DCE35F0FDE43CFC229F
:1015490075F008758200EF2FFFEE33FECD33CDCC59
:1015590033CCC58233C5829BED9AEC99E5829840DC
:101569000CF582EE9BFEED9AFDEC99FC0FD5F0D6B9
:10157900E4CEFBE4CDFAE4CCF9A88222B800C1B9E3
:101589000059BA002DEC8BF084CFCECDFCE5F0CB21
:10159900F97818EF2FFFEE33FEED33FDEC33FCEB5A
:1015A90033FB10D703994004EB99FB0FD8E5E4F915
:1015B900FA227818EF2FFFEE33FEED33FDEC33FC02
:1015C900C933C910D7059BE99A4007EC9BFCE99AF6
:1015D900F90FD8E0E4C9FAE4CCFB2275F010EF2F3B
:1015E900FFEE33FEED33FDCC33CCC833C810D7073B
:1015F9009BEC9AE899400AED9BFDEC9AFCE899F876
:0E1609000FD5F0DAE4CDFBE4CCFAE4C8F92208
:0E161700C3E49FFFE49EFEE49DFDE49CFC22E4
:10162500EB9FF5F0EA9E42F0E99D42F0E89C45F01B
:011635002292
:10163600E8600FECC313FCED13FDEE13FEEF13FF92
:03164600D8F122B6
:0C164900ECF0A3EDF0A3EEF0A3EFF02214
:10165500A8828583F0D083D08212166C12166C1284
:10166500166C12166CE473E493A3C583C5F0C583A9
:10167500C8C582C8F0A3C583C5F0C583C8C582C8DF
:011685002242
:0C168600A42582F582E5F03583F583226F
:0C327F00EE30E707C3E49FFFE49EFE2250
:10169200BC000BBE0029EF8DF084FFADF022E4CC3C
:1016A200F875F008EF2FFFEE33FEEC33FCEE9DEC05
:1016B200984005FCEE9DFE0FD5F0E9E4CEFD22ED4B
:1016C200F8F5F0EE8420D21CFEADF075F008EF2F95
:1016D200FFED33FD4007985006D5F0F222C398FD86
:0516E2000FD5F0EA2223
:00000001FF
